:020000040800F2
:1000000000090020F1010008752B0008112B0008E1
:10001000512B0008112B0008312B0008F3010008B8
:10002000F3010008F3010008F3010008C53E0008D1
:10003000F3010008F3010008F3010008F3010008D0
:10004000F3010008F3010008F3010008F3010008C0
:10005000F3010008F30100081142000839420008CA
:100060006142000889420008B1420008F30100081B
:10007000F3010008F3010008F3010008F301000890
:10008000F3010008F3010008F3010008F301000880
:10009000F30100081D2A0008952A0008D94200082B
:1000A000F3010008F3010008F3010008F301000860
:1000B000D5430008F3010008F3010008F30100082C
:1000C000F3010008F3010008F3010008F301000840
:1000D000F3010008F3010008F3010008F301000830
:1000E0004D430008F3010008F3010008F301000884
:1000F000F3010008F3010008F3010008F301000810
:10010000F3010008F3010008F3010008F3010008FF
:10011000F3010008F3010008F3010008F3010008EF
:10012000F3010008F3010008F3010008F3010008DF
:10013000F3010008F3010008F3010008F3010008CF
:10014000F3010008F3010008F3010008F3010008BF
:10015000F3010008F3010008F3010008F3010008AF
:10016000F3010008F3010008F3010008F30100089F
:10017000F3010008F3010008F3010008F30100088F
:10018000F3010008F3010008F3010008F30100087F
:10019000F3010008F3010008F3010008F30100086F
:1001A000F3010008F3010008F3010008F30100085F
:1001B000F3010008F3010008F3010008F30100084F
:1001C000F3010008F3010008F3010008F30100083F
:1001D000F3010008F3010008F3010008F30100082F
:1001E0006111000800000000000000000000000095
:1001F00002E000F000F8FEE772B6374880F30888A6
:10020000364880F3098836483649086040F20000D5
:10021000CCF200004EF63471CEF200010860BFF35C
:100220004F8FBFF36F8F40F20000C0F2F0004EF628
:100230008851CEF200010860BFF34F8FBFF36F8F7C
:100240004FF00000E1EE100A4EF63C71CEF20001D4
:100250000860062080F31488BFF36F8F04F098FDC8
:1002600004F0C6FE4FF055301F491B4A91423CBF77
:1002700041F8040BFAE71D49184A91423CBF41F886
:10028000040BFAE71A491B4A1B4B9A423EBF51F82E
:10029000040B42F8040BF8E700201849184A914271
:1002A0003CBF41F8040BFAE704F076FD04F0A6FE2B
:1002B000144C154DAC4203DA54F8041B8847F9E797
:1002C00000F042F8114C124DAC4203DA54F8041B12
:1002D0008847F9E704F05EBD000900200011002006
:1002E0000000000808ED00E00001002000090020E7
:1002F000E052000800110020A4110020A8110020E5
:10030000043F0020E0010008E4010008E4010008C7
:10031000E40100082DE9F04F2DED108AC1F80CD052
:10032000C3689D46BDEC108ABDE8F08F002383F3BF
:1003300011882846A047002004F098F9FEE704F051
:100340001DF900DFFEE70000F8B500F011FF04F032
:10035000D1FC064604F012FD0746A8B92B4B9E427D
:100360002AD001339E422AD026F0FF02284B9A421F
:1003700003D005464FF47A7408E0F0B200F03CFE7A
:100380003D4642F2107401E00546002400F03AFEBA
:1003900008B10024254601F0A1FA98B9B4F57A7F96
:1003A00016D017B11B4B9E4214D1002004F0AEFCB6
:1003B000ADB900F05BFE24E005460024E6E700242A
:1003C0000125E3E7032000F02FF800242546E8E7A5
:1003D0000125E6E704F0CAFC00242546E5E700F025
:1003E00041F8E6E700F092FE4FF47A7004F046F927
:1003F000002CF7D002F0C6FB401BA042F2D900F05F
:1004000031F802F0BFFB0546F2E700BF010007B07C
:10041000000008B0263A09B0302383F311888546DE
:1004200080F308880847704708B50C4B18700328FC
:1004300006D8DFE800F00A06020E022000F004FFF2
:1004400008BD022000F0F6FEFAE7054B00225A60D4
:10045000F6E7034B00225A60F2E700BFA811002024
:10046000AC11002008B501F039FA034668B9072B32
:100470000FD89A0002F1006202F500421268B2F150
:10048000FF3F05D00133DBB2F1E70320FFF7CCFFDC
:1004900008BD194B5A689A42FAD3184B9B6803F16E
:1004A000006303F500439A42F2D204F045FC0020B9
:1004B00000F07AFE0220FFF7B7FF114B9A6D002281
:1004C0009A65996F9A67996FD96DDA65D96FDA670E
:1004D000D96F196E1A66D3F88010C3F88020D3F84C
:1004E000803072B6044B4FF0E022C2F8083D5968E4
:1004F0001868FFF791FFCBE700800008001100208B
:1005000000100240094A136899B21B0C49F26900B5
:1005100000FB01331360064B186882B2000C44F2F2
:10052000506101FB0200186080B270471411002076
:100530001011002010B50446FFF7E4FFB0FBF4F300
:1005400004FB130080B210BD70B50E4614461D4664
:1005500002F0BEFF60B9022D33D1012C01D0002082
:1005600030E019A3D3E90023C6E90023012029E0E4
:10057000282C1FD00CD8012C15D0052C06D114A383
:10058000D3E90023C6E9002301201BE0002019E085
:10059000302C06D110A3D3E90023C6E900230120A3
:1005A00010E000200EE00EA3D3E90023C6E90023EB
:1005B000012007E00CA3D3E90023C6E900230120B2
:1005C00000E0002070BD00BF401DA12026812A0B45
:1005D000F017304A39059E5678F6339F93CACD8D71
:1005E0009E6AC421818A46EE26417272DF25D7B702
:1005F00010B403460022026042608260C260044C74
:1006000007CC186059609A605DF8044B704700BFD2
:100610009075FF1F70B58AB006460D4602F0B2FA1B
:1006200004464FF4C870FFF785FF044404F51674C0
:10063000174B1C60EB7E23B9164B00221A700AB0D0
:1006400070BD05A9284600F045FF0028F7D101A894
:10065000FFF7CEFF9DF81640224601A90DF11700C5
:1006600004F0FEFC48B90F2C0BD80A4B1C70084A4A
:100670001368A3F516731360E1E7064B00221A70A6
:10068000DDE79DF81410304602F01AFFD7E700BFEF
:10069000C8210020C52100202DE9F043ADF5517D92
:1006A00080460E460DF5E2790027719740F27512EB
:1006B000394672A800F0E6FD0EAC4FF4C47239461C
:1006C000204600F0DFFD02F05DFA2D4BA3FB003069
:1006D00080092C4B186093E8070084E80700022388
:1006E000237467740DF15A00FFF782FF042384F826
:1006F0002030622384F821300DF11C0C224D0FCDE7
:10070000ACE80F0095E80700ACE803008CF8002087
:10071000182384F832310DF11C0CBCE80F00CDF821
:100720006B01CDF86F11CDF87321CDF87731BCE8AE
:100730000300CDF87B01CDF87F1101224946204608
:1007400000F0F4FD80B20590CDF810900397B37ED1
:10075000029306F1190301930123009306A3D3E941
:100760000023F17E404602F069FF0DF5517DBDE8A2
:10077000F08300BFAFF300809E6AC421818A46EEF9
:10078000D34D6210B4110020C4500008F0B5FDB084
:1007900006460D462B4B1C7A6CBB07A9284600F079
:1007A000EBFE002845D19DF81D70C82F41D84FF4AD
:1007B000A6620021234800F065FD032C0AD822021E
:1007C000204B4FF48A7101FB0433C3F8E420013459
:1007D000E4B2F2E71B4C3A460DF11E0104F10900A8
:1007E00000F03CFDE219002353729DF81C30237287
:1007F0000BB9EA7E2272812200213AA800F042FD64
:100800005BAC012221463AA800F006FF80B20590B9
:10081000049400230393AB7E029305F11903019323
:100820002823009305A3D3E90023E97E304602F094
:1008300005FF7DB0F0BD00BFAFF3008026417272AE
:10084000DF25D7B7C0360020134BB3F82C358342D1
:1008500000D9704710B50446002100F0CFFC0134E8
:100860000D4BA3F82C450C4BB3F82C0500F0AAFC5B
:1008700088B1094BB3F82C0500F0B6FC58B9064C0A
:100880000021B4F82C0500F0B9FCB4F82C35013384
:10089000A4F82C35E7E710BDC03600202DE9F04163
:1008A000F0B00646274C94F8D8304FF48A7505FB13
:1008B000004585F8DC30002785F8E870D8223946F5
:1008C0003AA800F0DFFC04F10908404600F0D0FC33
:1008D000C2B28DF8F020D5F8E4303A933B97414608
:1008E0000DF1F10000F0BAFC06AD012229463AA84C
:1008F00000F0C6FE80B205900495012303930823FF
:10090000029304F1D8030193302300930BA3D3E99E
:100910000023217A0C4802F091FEB84203DC00204B
:1009200070B0BDE8F08102F02DF94FF48A7202FB3D
:100930000646C6F8E0000120F2E700BF78F6339FD4
:1009400093CACD8DC0360020CC21002038B502F0EE
:1009500019F90546002408E00532B3EB420F02D333
:10096000FFF79CFFF8B10134E4B2032C1BD80E4B07
:1009700093F8D900204400F003004FF48A7202FB80
:10098000003393F8E830002BEDD1074B02FB003326
:10099000D3F8E030002BE3D0EB1A034A1268F92AAF
:1009A000DAD8FA22D8E738BDC0360020F0B58FB0CB
:1009B00000230A938DF834308DF835300B930C9367
:1009C00000242746002C46D101238DF80C3000234B
:1009D0008DF80D304FF4A65204FB02F22049551851
:1009E0005258966800200021CDE900010DF10D025A
:1009F00003A92846B0479DF80C604EB3194A5369C5
:100A000083F40053536100230693079308930993DB
:100A10004FF4A65304FB03F3114AD3585F690DF159
:100A20000E0304AA0AA92846B84707AB0BAA92E806
:100A3000030083E803009DF834308DF824300A9BCE
:100A40000693DDE9042306A9074802F0FFFF3746B5
:100A50000134E4B2B6E7002FB2D10FB0F0BD00BF51
:100A60000022002000080048CC21002010B586B0EC
:100A7000BDF828400494099C03949DF820400294FA
:100A80000193009202460B46024802F077FD06B041
:100A900010BD00BFCC21002010B58AB0244802F060
:100AA00017FD08B10AB010BD02F06CF8214B1B68AD
:100AB0009842F7D302F066F804464FF4C870FFF787
:100AC00039FD044404F516741A4B1C6000238DF89C
:100AD0002030194B1B7813B901238DF8203004A85E
:100AE000FFF786FD144B1978C1F11004E4B2062C0F
:100AF00000D90624224604AB19440DF1210000F070
:100B0000ADFB0134029408AB0193182300930B4B07
:100B1000012205A1D1E90001FFF7A8FF064B002241
:100B20001A70BFE7AFF30080401DA12026812A0B79
:100B3000CC210020C8210020C5210020C421002094
:100B400010B586B002F01EF80F4BA3FB00239B09E3
:100B50000E48036004AC0122214600F093FC80B2F1
:100B60000290019418230093094B40F2551204A1FE
:100B7000D1E90001FFF77AFF06B010BDAFF30080A6
:100B8000F1C6A7C1D068080FD34D6210B411002080
:100B9000F43B002010B502460B46094C204602F0FB
:100BA00085FD204602F094FC38B1064B1B7A2BB130
:100BB0000322054B5A71FFF7C3FF10BD0222F8E76D
:100BC000CC210020C0360020B4110020012800D024
:100BD000704738B54FF6FF73994200D038BD0024F6
:100BE000074D002C06DB284601F008FA05F5A6554E
:100BF000013CF6E7034A0449002004F013FAEDE74C
:100C000000220020303C00200D0C000838B50E4CAE
:100C10000E4B9C4216D0A4F5A6540D4B236041F216
:100C20004403E21812793AB9E5582DB1284600F08C
:100C300063FE284604F0FCF904F58150103000F002
:100C40005BFEE5E738BD00BFC03600200022002073
:100C500014510008F0B587B0254802F01BFD0028AC
:100C600039D00446002302938DF814308DF81530E6
:100C700003930493027B8DF8142003AA4068A168B3
:100C800003C2226842F0004202921D461C46D5B9BA
:100C90004FF4A65305FB03F3164A9E189B581F6991
:100CA00001F074FF144A82184FF00003009341F1E1
:100CB000000302A93046B8470028C8BF44F0010429
:100CC0000135EDB2E3E744B90C4B1B78072B0BD889
:100CD00001330A4A137007B0F0BD054802F0DEFC8C
:100CE000064B00221A70B7E7014802F0D7FCF2E782
:100CF000CC2100200022002040420F00F53B0020C4
:100D0000CA7E9B4B1B7A9A4240F031812DE9F04715
:100D100000AF08460024032C0CD8954B4FF48A7280
:100D200002FB043393F8DC20437E9A4207D001345F
:100D3000E4B2F0E7002323B9BD46BDE8F087012304
:100D4000F9E74FF48A7104FB01F1E031884B194453
:100D50000A3100F0C7FC0028EED1854B4FF48A72AF
:100D600002FB0434012384F8E83001F00BFFD4F8CF
:100D7000E030C31A192B05D940F6B832934202D994
:100D8000134600E019237A4AD2ED007AF8EE677A2A
:100D90009FED787A27EE877A07EE903AF8EE677A39
:100DA000DFED756A67EEA67A77EE277AFCEEE77AD2
:100DB000C2ED007A3CE013464FF48A7202FB05351F
:100DC000002385F8E830C5F8E030C546684B5B681D
:100DD0009B0A0133694A1381AEE7002042F8040BF5
:100DE000013B002BF9DA2246304600F037FA604B1F
:100DF0005B68002B4BD05E4B93F8D20000F0E2F919
:100E00008246002847D05A4BD3F8D430002B4ED01E
:100E1000574BD3F8D430234453454ED85FFA89F268
:100E20003146534B586800F037FA00284CD1C5467C
:100E30004F4B93F8D9504FF48A7202FB053393F865
:100E4000E830002BC2D0E846494A4FF48A7303FBCE
:100E50000523D3F8E41053689942ACD144494FF4C8
:100E60008A7305FB03F3CA18B2F8EC40E21C4FEAA0
:100E70009209E03319440E314A4609F1FF339200DA
:100E80000732D208A8EBC20295466E46A9E70120B8
:100E900000F08AF9AFE70024354B1C7200F0B8F976
:100EA000204600F081F9354B0B221A818DE7304B3B
:100EB00093F8D200FFF7C8FCAAE72D4B93F8D200B5
:100EC0000130FFF7C1FCA9E7294B5A6822445A6058
:100ED000D3F8D4602644C3F8D46093F8D20000F06D
:100EE00071F986420BD3224B93F8D220013283F85A
:100EF000D220D3F8D420A2EB0A02C3F8D420FF2CCE
:100F000023D91B4C4FF48A7303FB0545002385F856
:100F1000E830C5F8E030D5F8E43003F58063C5F873
:100F2000E43094F8D900FFF7B9FCFFF793FE94F88A
:100F3000D93001335A4203F0030302F0030258BFD1
:100F4000534284F8D930C54672E70024084B1C721E
:100F500000F05EF9204600F027F900F0BFFC074AD8
:100F6000108108B1C546E7E6FFF77CFAFAE770475B
:100F7000C03600206666663FCDCCCC3DB411002063
:100F800038B505460C4602F0A3FA50B1E38A282B87
:100F90001CD014D8012B0FD121462846FFF77CFB2B
:100FA0000CE0237E022B09D1E38A012B06D12146D6
:100FB0002846FFF72FFB01E0052B0CD038BD302B66
:100FC000FCD121462846FFF79BFEF7E7214628463D
:100FD000FFF7DCFBF2E7BFF34F8F0549CA6802F465
:100FE000E062044B1343CB60BFF34F8F00BFFDE7BC
:100FF00000ED00E00400FA05014B1870704700BFD7
:10100000C01100204FF000531A68154B9A4201D0CE
:101010000020704710B54FF00054607DFFF7ECFFE3
:10102000227D104B1A72002309E019020D4A4FF479
:101030008A7000FB0322C2F8E4100133DBB2032BF9
:10104000F3D94FF00054C92204F11601064800F00C
:1010500005F9E0220021204600F014F9012010BD1E
:101060009AAD44C5C0360020C936002030B583B0E3
:1010700000F034FC1C4B188102225A7100246CB918
:101080004FF4A65304FB03F318481A58556801227D
:1010900017491844A8470134E4B2F0E7002301934C
:1010A000144B0093144B4FF480521449144802F02F
:1010B000EBF9144B197899B901F064FD04464FF42B
:1010C000C870FFF737FA044404F516740E4B1C6021
:1010D00003F054FE10B1044B0F221A8103B030BD4F
:1010E000074802F0EDF9E7E7B411002000220020E4
:1010F00040420F0049050008810F0008C41100207C
:10110000CC210020C0110020C821002008B50CE02F
:10111000114B186001F03AFDFFF73CFD13E0C820C9
:1011200003F0ACFA0D4B1B7AA3B1FFF793FDFFF769
:101130003DFCFFF7B1FC01F025FD074B1B68C31A0E
:10114000B3F57A7FE4D2054B1B7A002BE7D0FFF78B
:10115000FDFBE4E708BD00BFF03B0020C0360020E7
:1011600008B54FF6FF710120FFF730FD08BD00BF45
:1011700010B503F099FC0A4B1880002406E003F038
:101180008FFC0444074A136801331360B4F5004F21
:1011900005D2034B1B88034A10688342EFD810BD69
:1011A000243C0020F83B002008B503F0C9FC08BD32
:1011B00008B5920000F1006000F5004003F0BCFCAF
:1011C00008BD00BF08B5064B1B88064A12689B1A6B
:1011D000834201D8002008BD104403F061FCFAE707
:1011E000243C0020F83B002008B5034B1B68184442
:1011F00003F05EFC08BD00BFF83B002008B5034BC0
:101200001B68184403F06CFC08BD00BFF83B0020CD
:1012100008B5074B93F824300BB9012008BD0449E9
:10122000002381F824300822086AFFF7C1FFF5E7A0
:10123000FC3B0020022800D07047024B4FF40052C4
:101240009A61F9E700080048022800D07047024B75
:101250004FF000529A61F9E700080048002304E0CB
:1012600011F803C000F803C001339342F8D370476C
:101270000346002000E0013013F9012B002AFAD1C7
:10128000704700BF034602E003F8011B624602F10B
:10129000FF3C002AF8D170472DE9F8438146884683
:1012A0001546214B93F8243033B31F4A126A02EBE0
:1012B0008303834220D0FFF7ABFF0346E0B930E061
:1012C000194E96F82400C0F10804AC4228BF2C4601
:1012D000E4B2A7003A46414606EB8000FFF7BEFFA6
:1012E000B944B8442D1BEDB296F824301C44E4B246
:1012F00086F82440082C0DD095B10B4B93F8243080
:10130000002BDDD10848C0F820902022FF21FFF7F4
:10131000B9FFD5E7FFF77CFF03460028ECD100E0DA
:1013200001231846BDE8F883FC3B00202DE9F04777
:1013300007460E46914640F2791200213046FFF7EB
:10134000A1FF3B4620220021304602F0FBFA3B1D64
:1013500002222021304602F0F5FA7B1D03222221D1
:10136000304602F0EFFABB1D03222521304602F081
:10137000E9FA07F1080310222821304602F0E2FAC8
:1013800007F1100308223821304602F0DBFA07F19A
:10139000110308224021304602F0D4FA07F112036B
:1013A00008224821304602F0CDFA07F1140320222A
:1013B0005021304602F0C6FA07F11803402270218E
:1013C000304602F0BFFA07F1200843460822B02158
:1013D000304602F0B7FA07F121030822B82130465F
:1013E00002F0B0FAC025002409E008EB0403023340
:1013F00008222946304602F0A5FA083501340F2CA0
:10140000F3D908F1120308222946304602F09AFA6D
:1014100005F1080498F812A00025AA450BD905F19A
:1014200010034344033308222146304602F08AFA6F
:1014300008340135F1E7B9F1000F15D097F8328182
:10144000B8F1500F28BF4FF050080025A84514D917
:1014500005F598733B44033308222146304602F0D9
:1014600071FA08340135F1E707F59973072221462F
:10147000304602F067FA0734E0E7E01DC008BDE837
:10148000F08700BF38B505460C4600212160C4F83E
:10149000031003462022204602F054FA2B1D02229C
:1014A0002021204602F04EFA6B1D03222221204605
:1014B00002F048FAAB1D03222521204602F042FA31
:1014C00005F1080310222821204602F03BFA0720EC
:1014D00038BD00BFF0B583B007460D46047F14B198
:1014E000838A122B3CD800950023072219463846E0
:1014F00002F026F96B1C00930023012207213846D5
:1015000002F01EF954B1BB8ADB00083BDB08AB706C
:101510000826AB78102B26D8002414E0AB1C0093CF
:10152000002305220821384602F00AF90D26F0E7CB
:101530002B1903330093002308223146384602F06A
:10154000FFF808360134AB789C42F1D300243CB953
:101550000736F6083B7F43B1BC8AA41B18BF0124A1
:10156000204603B0F0BD0124F1E7BC8AB4422CBF91
:1015700000240124F4E700BF2DE9F04182B00646C3
:101580008846047F14B1838ACA2B38D8CDF80080EE
:10159000002308221946304602F0D2F808F101076C
:1015A00064B1B38ADB00083BDB0888F8013008250A
:1015B00098F80130C82B26D8002413E000970023A8
:1015C00008221146304602F0BBF81025F0E73B191F
:1015D00001330093002308222946304602F0B0F878
:1015E000083501343B789C42F1D300243CB90735DF
:1015F000ED08337F4BB1B48A641B18BF0124204629
:1016000002B0BDE8F0810124F0E7B48AAC422CBFFF
:1016100000240124F3E700BF2DE9F04106460F4600
:101620001446812200213846FFF72CFE334608225B
:101630000021384602F086F944B1082596F8018069
:1016400096F90130002B09DB002413E0731C0722FC
:101650000821384602F076F90F25EFE74FF07F08B2
:10166000F2E73319023308222946384602F06AF9B4
:10167000083501344445F4D3E81DC008BDE8F081C5
:101680002DE9F04104460E461546CE220021304693
:10169000FFF7F8FD234628220021304602F052F9D8
:1016A00004F1080835B12825277AC82F28BFC82794
:1016B000002411E0434608222821304602F042F976
:1016C0003025F1E708EB04030133082229463046B0
:1016D00002F038F908350134A742F3D8E81DC008F4
:1016E000BDE8F081F0B583B007460E46047F1CB11B
:1016F000838AB3F5827F35D800960123102200211A
:10170000384602F01DF85CB1BB8ADB00103BDB08F9
:10171000738010257388B3F5807F26D8002414E0E9
:10172000B31C0093002309221021384602F008F868
:101730001925EFE7331904330093002308222946C3
:10174000384601F0FDFF0835013473889C42F1D31F
:1017500000243CB90735ED083B7F43B1BC8A641BCC
:1017600018BF0124204603B0F0BD0124F1E7BC8A74
:10177000AC422CBF00240124F4E700BF00B58E4624
:101780000AE040F3000C09490CEA010181EA50002B
:101790000133DBB2072BF4D91346013A23B11EF80B
:1017A000013B58400023F5E75DF804FB2083B8EDCA
:1017B000F0B583B01F4B6A4693E8030082E803004C
:1017C00008231D491D4803F05BFC30B30446036940
:1017D000B3F5F02F23D8418B40F26242914220D1E1
:1017E00000F11807164A024402F110018B421BD384
:1017F0009B1AA3F1100511490020FFF7BFFF064611
:101800002A4639460020FFF7B9FFA368B3420DD13D
:10181000E36883420CD1002004E00A2002E00B20A0
:1018200000E00C2003B0F0BD1020FBE70D20F9E72D
:101830000D20F7E7E0500008DC7F0700008000087B
:101840000880FFF7F0B583B0204B6A4693E80300A9
:1018500082E8030008231E491E4803F011FC38B338
:1018600004460369B3F5F02F24D8B0F8661040F2AF
:101870006242914220D100F16407174A024402F10A
:101880005C018B421BD39B1AA3F15C05114900201C
:10189000FFF774FF06462A4639460020FFF76EFF21
:1018A000A368B3420DD1E36883420CD1002004E069
:1018B0000A2002E00B2000E00C2003B0F0BD102055
:1018C000FBE70D20F9E70D20F7E700BFEC5000081B
:1018D000907F0700008000080880FFF710B5FFF731
:1018E00067FF044608B9204610BDFFF7ABFF00288C
:1018F000F9D10446F7E700BF10B50446037C0BB1ED
:10190000204610BD006803F0A3FBF9E7BFF35B8F2F
:10191000C368BFF35B8FBFF35B8F8268BFF35B8FDE
:101920009A4208D94268BFF35B8F8068BFF35B8F30
:10193000101A18447047BFF35B8F8068BFF35B8F4A
:10194000181A7047BFF35B8F0023C360BFF35B8F30
:10195000BFF35B8F8360BFF35B8F704703464068C4
:1019600000B97047BFF35B8F9A68BFF35B8FBFF31B
:101970005B8FD968BFF35B8F914209D35868BFF37F
:101980005B8FDB68BFF35B8FD21A013A1044E8E744
:101990000020F4E738B505460C46FFF7B7FFA04234
:1019A00001D2002038BDBFF35B8FA968BFF35B8F06
:1019B0000C446968B4FBF1F301FB1344BFF35B8F84
:1019C000AC60BFF35B8F0120ECE700BF70B504464D
:1019D0000E461546FFF7C2FFA84200D3284608B9B5
:1019E000002070BD2368BFF35B8FE268BFF35B8F9D
:1019F000134433606268BFF35B8FE368BFF35B8FB0
:101A0000D11A884207D971602168B1609B1A1844C5
:101A1000F0600220E5E770600120E2E738B5054696
:101A20000C46FFF79BFFA04201D2002038BDBFF358
:101A30005B8FE968BFF35B8F0C446968B4FBF1F31B
:101A400001FB1344BFF35B8FEC60BFF35B8F01209E
:101A5000ECE700BF2DE9F04385B081468846694632
:101A6000FFF7B4FF0746002425460EE004AB03EB66
:101A7000C40656F80C2C08EB050156F8100CFFF7BD
:101A8000EDFB56F80C3C1D440134A742EEDC294620
:101A90004846FFF7C3FF284605B0BDE8F08300BF06
:101AA000BFF35B8FC368BFF35B8FBFF35B8F82684D
:101AB000BFF35B8F9A4210D94368BFF35B8F826894
:101AC000BFF35B8F9B1A0B6073B10368BFF35B8F2F
:101AD0008068BFF35B8F18447047BFF35B8F8268E9
:101AE000BFF35B8F9B1AEEE700207047F0B583B021
:101AF00007460E461546FFF709FF04460190A84227
:101B000000D32C4614B9002003B0F0BD01A938461B
:101B1000FFF7C6FF019B6BB1A34200D9019430606F
:101B200001987060A0420DD23B68B360241AF46043
:101B30000220E9E73B68336074600023B360F36020
:101B40000120E1E70120DFE72DE9F04184B088467C
:101B50006946FFF7CBFF0746002425460EE004AB9D
:101B600003EBC40656F80C2C56F8101C08EB0500C5
:101B7000FFF774FB56F80C3C1D440134A742EEDC21
:101B8000284604B0BDE8F08138B50546FFF7DCFF14
:101B9000044601462846FFF7FDFE204638BD00BF3B
:101BA000704700BF10B51346026814680022A047B2
:101BB00010BD00BF00F5805090F85904704700BF79
:101BC00000F5805090F85204704700BF00F5805037
:101BD00090F95804704700BF50207047302383F3BA
:101BE000118800F58052D2F89C34D2F89804184439
:101BF000D2F894341844D2F87C341844D2F88C3497
:101C00001844D2F888341844002383F311887047AD
:101C100000F58050C0F85414012070472DE9F047BA
:101C200082B01E46BDF828A000F5805393F85234C8
:101C3000002B00F0D78004460D46174600F5805271
:101C4000D2F878340133C2F878340B6813F0005FAF
:101C50004AD10B7B082B02D94A7B002A44D00F2B98
:101C600042D8302383F31188E36AD3F8C42012F4F6
:101C7000001F45D1D3F8C430C3F30149626A09EBB0
:101C8000C9084FEAC80102EBC8082B68002B42DBE9
:101C90009B0453502B6813F0804F03D0535843F0EC
:101CA000005353502A7B4FEA096343EA0243C8F8C2
:101CB00004306A7B9AB343F44013C8F8043004F547
:101CC0008052D2F8B0340133C2F8B03404EB491377
:101CD00003F583531A7B42F020021A73287B00F02D
:101CE000D3FF4FF0000C32E004F58054D4F87C347C
:101CF0000133C4F87C344FF0FF3002B0BDE8F08708
:101D000004F58054D4F880340133C4F880340020C2
:101D100080F31188F1E743F080435350BAE704EBB6
:101D2000491303F583531A7B6FF345121A73D5E7F2
:101D3000B3EBA20F10DA4FEA8C02083205EB8303F3
:101D40005B6848F802300CF1010C5FFA8CFC6346CA
:101D5000C21CEDD50332EBE7E36A4FF0010808FA45
:101D600009F2C3F8CC2004EB491202F582531F613B
:101D70005E6141F2580303EB4913E118D5F800E026
:101D8000D5F804C0A86844F803E0C1F804C088602E
:101D9000AB898B8141F26801531818796AF300000E
:101DA0001871CAF3400CC0B26CF34100187142F8CC
:101DB00001901A796FF382021A71D2B242F01002C6
:101DC0001A71D2B26FF3C3021A71002383F3118820
:101DD000CDF800A03A4633462946204600F016FFCB
:101DE00040468AE74FF0FF3087E700BF38B504462A
:101DF000C26A936923F00103936100F0C3FE0546B4
:101E0000E36A9B6913F0010F06D000F0BBFE401B94
:101E1000FA28F5D9002004E004F58054012084F864
:101E2000520438BD08B5302383F3118800F5805083
:101E3000406CFFF787FD002383F3118808BD00BFC6
:101E400070B504460D4641F244068059FFF786FD01
:101E50001F2801D8002070BD20222946A059FFF775
:101E6000F9FD202814BF00200120F4E72DE9F041FE
:101E700088B005460E4617469846302383F31188EE
:101E800000220023CDE900230024ADF8084003948C
:101E90008DF818408DF819400494059441F24404DB
:101EA0000059FFF733FD1F280CD8002020B105F59D
:101EB000805393F852347BB9002080F3118808B026
:101EC000BDE8F081202269462859FFF75DFE2028F1
:101ED00014BF00200120E9E703AB07CB306071603D
:101EE000B2601B88B381DDE90023C7E90023BDF898
:101EF0000830A8F80030002383F3118843463A469F
:101F00003146284600F05AFED9E700BF10B5374BDE
:101F100003600023436083600446354B44F8303B44
:101F200023464FF07F0C0DE09FED2E7B83ED007B71
:101F300000221A81DA601A765A761A615A612033C1
:101F40000CF1FF3CBCF1000FEEDA00F581521032CB
:101F500000F580531C634FF480545C6300249C6341
:101F6000DC63012483F840405A6483F8484000F55C
:101F7000825310334FF01F0EBEF1000F11DB9C4651
:101F80009FED187BACEC027B00229A608CF80C2051
:101F90008CF80D20DA601A619A6120330EF1FF3E51
:101FA000EAE700F5805383F858140022A3F85A2476
:101FB000A3F85C2483F85E2483F85F2483F860240C
:101FC000A3F86224A3F8642483F8662483F86724C2
:101FD00083F8682411B9074BC36210BD064800F0AE
:101FE000CBFD00BF00000000000000007C51000895
:101FF0001451000800640040F850000810B5044671
:10200000034B19784A1C1A70FFF780FF204610BD59
:102010002D3C002000F58050012380F85934704792
:1020200009B900207047F0B583B014460D46022070
:1020300002F0E8F8404B9D4211D90A23B0FBF5F2BB
:10204000013BDBB29E4603F1010CB2FBFCF10CFB41
:10205000112131B1022B61D9013BDBB2F2E711232F
:10206000ECE7B2FBFCF2511EB1F5806F59D2C3EB25
:10207000C30E1EF103014CD4C1F3C70C8DF800C090
:10208000A3EB0C06F6B28DF801600CF101074FF4DA
:102090007A710CFB01113E4491FBF6F189B2ADF867
:1020A0000210B1F5617F18D9BEF1010E33D4CEF321
:1020B000C70E8DF804E0A3EB0E03DBB28DF80530FC
:1020C0000EF101064FF47A710EFB0111334491FBBE
:1020D000F3F3ADF80630019B00939DF800104B1C04
:1020E0009DF80160334402FB03F3B0FBF3F0A84218
:1020F00019D14B1EDBB20F2B17D8C6B1082E18D83A
:10210000BDF8023023806280012020716171A671C8
:1021100005E00731B0E70EF1070EC8E7002003B075
:10212000F0BD0020FBE70020F9E70020F7E70020E2
:10213000F5E70020F3E700BF3F420F00114B1248C4
:1021400083421DD010B41878104C04FB00F0884274
:1021500007D006330C488342F5D100205DF8044BCC
:1021600070475978518099785171D978917119795E
:1021700011715B7903EB83035B0013800120EDE7B2
:1021800000207047545100087251000840420F006F
:1021900038B504460A4D4FF4547200212846FFF723
:1021A00071F86561074BA3614033E361D833236263
:1021B000F0336362E36A0022C3F8C02038BD00BF79
:1021C00000A4004070A400402DE9F04389B0984677
:1021D00000F5805393F85834012B00F258810646DD
:1021E0000F469146AD4A52F82320002A39D0F760B5
:1021F00086F81080AA4B1B78ABB9302383F3118883
:10220000A84B9A6D42F000729A659A6B42F0007288
:102210009A639A6B22F000729A63A14B01221A70A2
:10222000002383F3118806F5805393F85134E3B10A
:10223000302383F31188F26A936923F010039361CA
:1022400000F0A0FC0546F36A9C6914F0080420D055
:1022500000F098FC401BFA28F5D9002484F311887B
:1022600016E18E4A42F82300C1E7302383F3118838
:102270000321152002F0F0F80321162002F0ECF8FB
:1022800006F58053012283F85124002383F311883B
:10229000CEE79A6942F001029A6100F073FC0546AC
:1022A000F36A9A6912F0010F05D100F06BFC401B34
:1022B000FA28F5D9D1E79A6942F002029A61F26AE6
:1022C0000023536583F3118806F58053586CFFF79C
:1022D00039FB1F2C2BD8202200216846FEF7D2FFA5
:1022E000002502958DF814508DF81550039504952E
:1022F000069541F2500505EB441506EB050EEC463C
:10230000BCE80F007051CEF80410CEF80820CEF8CB
:102310000C30BCE80700CEF81000CEF81410CEF850
:1023200018209CF800308EF81C300134D1E706F5F7
:102330008053002283F8502483F8532406F5A252D8
:102340001A3239463046FFF76BFE0446002871D03A
:1023500006F58052C2F86C7492F85E34591E92F8F9
:102360005F34013B1B0243EA416392F86014013978
:102370000B43B2F85C24013AF16A43EA0243CB61B1
:10238000B9F1000F27D006F5A35202324946304674
:10239000FFF7D4FE054600285FD006F58052C2F84C
:1023A000709492F86734591E92F86834013B1B010F
:1023B00043EA0123B2F86414013943EA014392F875
:1023C0006624013A1343F26A43F40003D360F36ACC
:1023D0004FF420629A643046FFF7DAFE06F5805328
:1023E000002283F85924F36A6FF040421A65F36AB9
:1023F0002D4A5A65F36A44229A65F36A0722C3F8A4
:10240000DC20F36A0322DA65904541D0F26A9369D1
:1024100023F00103936100F0B5FB0546F36A9B6965
:1024200013F0010F2DD000F0ADFB401BFA28F5D9B9
:1024300000242DE0F26A936923F00103936100F018
:10244000A1FB0546F36A9B6913F0010F20D000F051
:1024500099FB401BFA28F5D91AE0F26A936923F038
:102460000103936100F08EFB0446F36A9B6913F04D
:10247000010F11D000F086FB001BFA28F5D92C467D
:1024800006E006F58056012386F8523400E0002469
:10249000204609B0BDE8F0832C46F9E7283C00202F
:1024A0002C3C0020001002409B000800F0B589B0D1
:1024B000054617461E4600240EE005F58053D3F866
:1024C000A8240132C3F8A824D3F8540410B1036837
:1024D0001B6998470134E4B21F2C63D8EB6AD3F828
:1024E000D4102246E14011F0010FF3D005EB441166
:1024F00001F583510B7B13F0080FEBD105F58051EB
:10250000D1F884340133C1F8843405F5A5531F6034
:102510005E6005EB441303F5835308331B7913F016
:10252000200F04D0D1F8B4340133C1F8B43405EB32
:10253000421303F58353197B41F008011973CBB2A1
:1025400013F0010FB9D005F5805393F85334002BE5
:10255000B3D000200021CDE900010023ADF8083000
:1025600003938DF818308DF819300493059341F2D8
:10257000580303EB421205EB020C03ABA858DCF83E
:102580000410DCF8082007C3BCF80C201A80009760
:1025900001960123ADF808302B68DB6B69462846AD
:1025A00098478AE709B0F0BD2DE9F0478CB00546A1
:1025B0000F4600F0EBFA81468846002F46D1EB6AC1
:1025C000D3F8902012F0007F06D005F58051D1F8A5
:1025D00098240132C1F89824D3F8902012F00F0FFC
:1025E00000F0A480D3F89030C3F3012AEE690AEB1F
:1025F000CA0306EBC306002308938DF82C308DF830
:102600002D3009930A93336813F0804F3CD1C3F304
:102610008A42089213F0005F03D0089B43F0804386
:102620000893736813F4001F35D001238DF82D3003
:1026300005F58052D2F8B8340133C2F8B834F388C3
:1026400003F00F038DF82C30002430E0012F6FD100
:10265000EB6AD3F8982012F0007F06D005F5805180
:10266000D1F898240132C1F89824D3F8982012F0B8
:102670000F0F61D0D3F89830C3F3012A2E6A0AEB0A
:10268000CA0306EBC306B6E723F06042089242F0A5
:1026900000420892BEE700238DF82D30CFE73319B2
:1026A0001A7A0CAB234403F80C2C0134E4B29DF8E5
:1026B0002C0000F0E9FAA042F1D847BBEB6AC3F85E
:1026C00094A000220023CDE900230023ADF80830B8
:1026D00003938DF818308DF819300493059303ACEB
:1026E0000CAB13E90F0007C42380CDF80090CDF8A0
:1026F00004802B68DB6B69462846984768B105F56E
:102700008055D5F890340133C5F8903411E0012F8D
:10271000D7D1EB6AC3F89CA0D3E705F58055D5F86F
:1027200094340133C5F89434012002E0002000E025
:1027300000200CB0BDE8F0870020FAE738B5044669
:102740000D4604E004F58053012283F85324294602
:102750002046FFF729FF0028F4D104F58054D4F86F
:10276000A8340133C4F8A834D4F8540410B1036871
:102770001B69984738BD00BFC36A1A6C12F47F0FFB
:102780003FD01A6C00F58053C3F8AC2400221F2AF6
:1027900037DC10B402E001321F2A2FDC00EB4213B9
:1027A00003F5835308331B7913F0020FF3D000EBCA
:1027B000421303F5835308331B7913F0040FEAD156
:1027C00000EB421341F26801595801238B40C16A62
:1027D000D1F8C8402342DED0C1F8D03000EB42131C
:1027E00003F58353197B41F00401197300F58051FF
:1027F000D1F88C340133C1F88C34CCE75DF8044B4C
:102800007047704708B5302383F31188FFF7B4FF92
:10281000002383F3118808BDC36AD3F8C43013F4CE
:10282000001F01D1012070470020704708B53023F8
:1028300083F3118800F58050406CFFF767F80023A0
:1028400083F311881F288CBF0020012008BD00BF22
:1028500000F5805393F8593473B1C26A936923F039
:102860000103936100F58050D0F89C340133C0F827
:102870009C34002380F85934704700BF302181F325
:1028800011884FF0000CBCF11F0F44DCF0B504E0E0
:102890000CF1010CBCF11F0F39DC00EB4C1101F500
:1028A00083510831097911F0040FF1D100EB4C117B
:1028B00001F583510831097911F0100FE8D000EBD0
:1028C0004C1141F268040C590121A140C46AD4F8AA
:1028D000C8502942DCD000EB4C1E41F250050EEBF3
:1028E00005075EF805607D6896429D41D0D2C4F828
:1028F000D0100EF583510C7B44F004040C7300F5EA
:102900008054D4F888140131C4F88814C0E7002337
:1029100083F31188F0BD002383F31188704700BF53
:10292000F8B507460E4614461D4600231370FFF700
:102930007DFF80F0010333701DB13846FFF76CFF57
:102940002070F8BD2DE9F04F83B007460E46904643
:102950009A46DDF83090DDF834B00B7800931378A8
:10296000019300F013F904460D4633781BB998F82B
:10297000000000284AD022462B463846FFF77EFF4B
:102980003846FFF73FFF3846FFF762FF534642469F
:1029900031463846FFF7C4FF33780BB1009B83BB49
:1029A00098F8003033B1019A6ABB23461446294691
:1029B000009D0BE02346019C2946009D06E098F807
:1029C000003003B13CBB00F0E1F803464B4571EB2E
:1029D0000B021AD207F58052D2F85404C8B102682B
:1029E0001268A9EB030190475346424631463846E8
:1029F000FFF796FF3378002BE1D0002DDFD0009851
:102A000004E0009802E0019800E0002003B0BDE877
:102A1000F08F0020FAE70198F8E700BF08B51B4BDC
:102A20001B6853B31A4B1B6D13F0010F04D1184BE5
:102A30001B6D13F0020F07D0154B03221A650021FE
:102A4000124B1868FFF77AFE114B1B6D13F0080F3D
:102A500004D10F4B1B6D13F0100F07D00C4B182235
:102A60001A650121094B1868FFF768FE074B1868C3
:102A7000FFF782FE01F05AFA08BD054B01221A65E4
:102A800008221A654FF480621A65F3E7283C00209B
:102A90000064004008B51C4B1B6883B11B4B1B6DC9
:102AA00013F0800F14D1194B1B6D13F4002F21D19B
:102AB000154B1868FFF760FE01F038FA08BD134B9C
:102AC00001221A6508221A654FF480621A65F3E73D
:102AD0000E4B80221A6500F059F802460B4652EA66
:102AE000030102D0013A43F1FF3307490868FFF7B9
:102AF000DDFCD8E7054B4FF400221A65024B18683D
:102B0000FFF788FAD4E700BF283C002000640040AB
:102B100000B59BB0EFF3098168226846FEF79EFB83
:102B2000EFF30583014B9B6BFEE700BF00ED00E078
:102B300000B59BB0EFF3098168226846FEF78EFB73
:102B4000EFF30583014B9B6BFEE700BF00ED00E058
:102B500000B59BB0EFF3098168226846FEF77EFB63
:102B6000EFF30583014B5B6BFEE700BF00ED00E078
:102B7000FEE700BFFEE700BF0FB408B5029801F002
:102B80002FFDFEE708B502F047F808BD08B502F0D2
:102B90001DF808BD10B5026854681A46A04710BD5C
:102BA00000207047012070470020704700207047C8
:102BB0000020704700207047704700BF30B583B0D9
:102BC00084460D46043003C802AA02E9030069B135
:102BD0000C461B8813F0040F08D1DCF800309B6B07
:102BE000604698472A46C1B20098A047012003B02A
:102BF00030BD00BF82B0EC468CE80600031D9CE8A7
:102C0000030083E80500012002B0704770B58AB068
:102C100004460E46031D93E803000AAB03E90300D4
:102C200069B10D46BDF8383013F0040F0AD123689E
:102C30009B6B204698473246C1B20898A8470120AE
:102C40000AB070BD00220023CDE900230023ADF8B7
:102C5000083003938DF818308DF8193004930593DC
:102C600003AB30687168B26807C3B2891A80FFF796
:102C70008DFFCDE900010423ADF808302368DB6B3C
:102C8000694620469847DAE7082818D909280BD062
:102C90000A280BD00B280BD00C280BD00D280BD0FA
:102CA0000E280BD0402070470C2070471020704732
:102CB000142070471820704720207047302070473C
:102CC00008467047084670470846704708467047F0
:102CD000401A83B2002800DB704703F1200000B2E5
:102CE000FAE700BF03780133DBB203701F2B01D971
:102CF00000230370704700BF082818D909280BD09B
:102D00000A280BD00B280BD00C280BD00D280BD089
:102D10000E280BD0402070470C20704710207047C1
:102D200014207047182070472020704730207047CB
:102D3000082818D90C280BD910280BD914280BD91E
:102D400018280BD920280BD930280BD90F20704711
:102D5000092070470A2070470B2070470C207047ED
:102D60000D2070470E207047034621F0604C20F084
:102D70006042C00FB0EBD17F0FD0002908DB002BE1
:102D800009DB944513D094452CBF002001207047E7
:102D90004FEA9C4CF3E7920CF3E7C1F38071C3F365
:102DA0008070944504D094452CBF002001207047CA
:102DB0008142FCD1F7E700BF2DE9F04107460D46FF
:102DC000D0F82480B8F1000F0CD046464446A4B198
:102DD00069686068FFF7C8FF30B9236826465BB1B1
:102DE0001C46F4E7796208E0A04502D035602C600B
:102DF00003E02C607D6200E02560BDE8F08100BF4B
:102E0000C37DC3F38402013262F38603C375C38AB0
:102E10006FF30903C382C37D6FF3C713C375704794
:102E200038B504460D46006A04E0016804F10C0060
:102E3000FFF74AFF10B10369AB42F6D138BD00BFBE
:102E40002DE9F043079CCE0803EBD40501F00703FE
:102E500004F007041A442AE003F0070804F0070707
:102E6000C646B84538BFBE46CEF1080ED11A8E45CB
:102E700028BF8E464FF47F4C2CFA0EFC5FFA8CFC78
:102E80004CFA07FCD90800EB060919F8011001FA01
:102E900008F1F940C9B24FEAD40815F80870794032
:102EA0000CEA01014F4005F80870734474449342E2
:102EB000D2D1BDE8F08300BF2DE9F04F87B0049078
:102EC0000E4605920393838AB1EBC30F80F0848092
:102ED0001146DA0031448A4204D2D2B2F3B2D21A95
:102EE000D3B20593049BDB683BB3272E36D8C6F1DB
:102EF0002803059A9A422ED35FFA86FBCBF1280B62
:102F00005FFA8BFB00230093039B5A4631460498DB
:102F10008068FFF795FF5E44059BA3EB0B04E4B2CA
:102F2000049B9F8A07F10057053FFF00D3F80C90E0
:102F300028214B46B9461F4627E0049B1B69002BFE
:102F4000D3D100230093039B059A314604988068EF
:102F5000FFF776FF33E0DDF814B0D3E7059C4FF0C0
:102F6000000BDDE72546CDF800B0039B2A46711A19
:102F7000381DFFF765FF2E44AB445FFA8BFB641BE3
:102F8000E4B2A9EB0A093F684146A7B19CB1CA4621
:102F9000B9F1E00F28BF4FF0E00A0AEB01084645FF
:102FA000EFD2A8EB06039C42DCD35FFA88F5F3B2BC
:102FB000ED1AEDB2D7E7049B186900B124B9BDF949
:102FC000140007B0BDE8F08FCDF800B0039B224697
:102FD000711AFFF735FFF2E70020F2E70020704793
:102FE0000139002307E0C25C10F801C000F803C0FB
:102FF0004254013301398B42F5D3704780EA0120F6
:10300000002303E0400080B20133DBB2072B09D874
:1030100010F4004FF6D0400080B280F4815080F070
:103020000100F1E7704700BF70B516461D46002449
:1030300011E0C4F12003A4F1200C26FA04F105FAF2
:1030400003F3194325FA0CFC41EA0C01C9B2FFF75E
:10305000D5FF0834A4B23F2CEBD970BD38B50C466F
:1030600004E014F8011BFFF7C9FF2A46551E002A89
:10307000F7D138BD38B5058C072D0BD90446D0E9FA
:1030800002234FF6FF70FFF7CFFF2A46E169FFF7F3
:10309000E5FF38BD4FF6FF70FBE700BF10B40161DC
:1030A00000F1040C002305E001EB4314CCF80040D0
:1030B000A44601339A42F7D80023CCF800300281AD
:1030C0004381838103605DF8044B70470346406889
:1030D00048B102685A605A89013292B25A8199897C
:1030E0008A4200D99A81704708B5FFF7EFFF08B10F
:1030F0000023036008BD00BF2DE9F84F82468946D2
:1031000016461F46CB8AC3F30903052B34D0184655
:103110000024042B0BD8BAB2A24208D9315D09EBC6
:103120000302D17601339BB20134A4B2F1E7BBB202
:10313000A34218D9B9F816B0CBF3090BABF10502CD
:1031400093083E49A1FB0313C3EBC303A2EB830324
:103150001FFA83F8D9F8041081B15046FFF7B0FD8B
:10316000054601231CE00344B9F8162063F3090265
:10317000A9F81620012055E00024DBE75046FFF7B0
:10318000B3FF054601465046FFF79CFDC9F8040011
:10319000002D49D04FF000082CE001339BB21546BA
:1031A0002A68002AF9D107EB0B02053A9208234955
:1031B000A1FB021292B2013292B293421AD2B8F13A
:1031C000000F17D15046FFF78FFF286078B30546F0
:1031D00010E0325D05EB0C031A710CF1010C1FFAC3
:1031E0008CFC0134A4B2BCF11B0F01D8A142F0D871
:1031F000A14204D8B9B2A1420AD9C446F3E7504665
:10320000FFF772FF2860A8B105464FF00008F1E70C
:10321000B9F81630C3F30902114461F30903A9F8A0
:1032200016300120BDE8F88F6FF00200FAE76FF06A
:103230000200F7E76FF00200F4E700BF254992248F
:1032400043680B6041604389013B4381704700BF85
:10325000F8B506460D460EE006F10C042046FFF7D1
:103260002FFD014607682046FFF7EAFF3946204652
:10327000FFF728FD686069680029EDD1EB8A6FF3DC
:103280000903EB8200200021F8BD00BF08B5FFF75D
:103290001DFF034628B10022026042608260C260C6
:1032A0000261184608BD00BF2DE9F04F83B00192BE
:1032B0001D465B69002B00F08A8081468B462B8C73
:1032C0001BB1EA69002A00F08580072B06D94FF070
:1032D000800A4FF000084446474664E009F10C00BC
:1032E000FFF7D4FF0446002877D02A8CE96908301C
:1032F000FDF7B4FF288C013080B2FFF719FDFFF70E
:10330000FBFC431E9BB22B84013323746B691B7837
:1033100003F01F032A8C43F0C003224413724BF0C6
:103320000043636021464846FFF746FD01273846C3
:1033300003B0BDE8F08F002007E0EA69125D334476
:103340001A72013080B20134A4B20346062802D8B2
:103350002A8CA242F1D82B8CA34235D0013080B206
:10336000FFF7E6FCFFF7C8FC013880B24FEA4813CC
:10337000DBB243EA0A0A6B691B7803F01F034AEACF
:10338000030A331883F808A04BF000437360013040
:10339000307431464846FFF70FFD01373FB288F0E1
:1033A00001084FF0000A2B8CA342C0D009F10C0099
:1033B000FFF76CFF064698B1002CBCD1019B03724D
:1033C0001B0A43720220C0E74FF0400AC6E76FF0C5
:1033D0000107ACE76FF00107A9E76FF00207A6E766
:1033E0006FF00207A3E700BF30B589B004460D4671
:1033F000202200216846FDF745FF04952046FFF78F
:1034000065FE8646A0B1EC46BCE80F00CEF8000091
:10341000CEF80410CEF80820CEF80C30BCE80F002F
:10342000CEF81000CEF81410CEF81820CEF81C30CC
:10343000704609B030BD00BF70B5044600F10C06FF
:103440003046FFF7D1FF054628B1216A3046FFF725
:103450003DFC28602562284670BD00BF38B5044693
:103460000D46036A1BB1FFF7DBFC38B138BD0C30E9
:10347000FFF7BAFF0028F9D02062F7E72946204677
:10348000FFF7DAFFF2E700BFF8B504460E4615462F
:103490001F4630220021FDF7F5FEA760069B636002
:1034A000079BA3626A09B5F5001F01D34FF6FF72AF
:1034B00092B2314604F10C00FFF7F0FDF8BD00BFF9
:1034C000037823B919B111F0800F00D10170704752
:1034D000007870472DE9F84305460C46D1F81C905A
:1034E000B9F1000F23D094F81880B8F11F0F3BD822
:1034F0002846FFF7EDFF0646F8B9228C072A36D892
:10350000278A37F0030335D149464FF6FF70FFF79E
:10351000A5FD47F6FE7303405B0243EA08633F02E2
:1035200007F440773B431E434FF6FF720EE00B8CCF
:10353000002BD8D06FF001050FE0238A1B0243EA6D
:1035400008631E432046FFF795FD02462346314699
:103550002846FFF7A9FE051E02DC2846BDE8F883D1
:103560006069FFF7BFFBF8E76FF00105F5E76FF063
:103570000305F2E76FF00105EFE700BF70B58AB011
:10358000044616461D46282200216846FDF77AFEAD
:1035900002960395BDF83830ADF810300F9B0593B7
:1035A0009DF840308DF81830119B0793BDF84830D6
:1035B000ADF8203069462046FFF78CFF0AB070BD99
:1035C0002DE9F04106460F461546D3692BB395F811
:1035D0001880B8F11F0F2AD83046FFF779FF48B39B
:1035E0002C8A240444EA08642B7844EAC33444EA6D
:1035F0000724044344F080042846FFF73BFD0246BD
:103600002B4621463046FFF74FFE041E02DD2B7885
:10361000012B08D02046BDE8F081138C002BD6D0BA
:103620006FF00104F6E76869FFF75CFBF2E76FF003
:103630000104EFE76FF00304ECE700BFF0B58BB0D7
:1036400004460D4617461E46282200216846FDF70F
:1036500019FE9DF84C30012B14BF002301238DF877
:103660000030029703969DF84030ADF81030119B62
:1036700005939DF848308DF81830149B0793BDF8DA
:103680005430ADF820306A4629462046FFF798FFAF
:103690000BB0F0BD406A00B10430704708B5416A14
:1036A0000B6843620C30FFF7CBFD08BD2DE9F041FC
:1036B000054616469846076A3C4619E021462846C4
:1036C000FFF7C6FD05F10C072B6A19683846FFF7AE
:1036D000FBFA286221463846FFF7B2FD2C6A2746DE
:1036E00006E0216805F10C00FFF7EEFA27460446D4
:1036F0000CB3A168E368711A68EB03030F4A8A42AE
:103700004FF0000272EB0303EBD22B6AA342D5D039
:1037100021462846FFF79CFD23683B6005F10C031A
:1037200021461C461846FFF78BFD39682046FFF7F7
:10373000CBFA0446DCE7BDE8F08100BF80841E00C0
:103740002DE9F04182B0089E002800F0E280144686
:103750001D460746002E00F0DF80531EDBB23F2BD4
:1037600000F2DD80012A02D1002D40F0DB80002331
:10377000009301936B4622463846FFF79DFB071ED8
:103780003BDD14F0070F0AD002AB03EBD40111F8B4
:10379000083C624202F00702134101F8083C012C88
:1037A0000BD0082C2DD9102C2ED9202C2FD9402C01
:1037B00000F2BB804FF0080800E0A046FFF70EFCC7
:1037C00040BB9DB1B4EBC80F10D0082C27D89DF892
:1037D0000020631E22FA03F313F0010F06D0012329
:1037E000A3405B42DBB213438DF80030002D72D052
:1037F000082C5ED89DF900303370384602B0BDE821
:10380000F0814FF00108D9E74FF00208D6E74FF0FA
:103810000408D3E741466846FFF7E2FBD1E7102CE6
:103820000FD8BDF80020631E22FA03F313F0010F36
:10383000DCD00123A3405B429BB21343ADF80030C0
:10384000D4E7202C0CD8009A631E22FA03F313F05D
:10385000010FCBD00123A3405B421A430092C5E77E
:103860003F2C65D8DDF800C0019A631EC4F1210029
:10387000A4F121012CFA03F302FA00F0034322FA27
:1038800001F10B4313F0010FB0D00123A4F120018B
:10389000C4F1200003FA01F123FA00F00143A34030
:1038A0005B4261EB41014CEA03030A43009301923E
:1038B0009CE7102C03D8BDF9003033809DE7202C05
:1038C00002D8009B336098E7402C34D8DDE9002310
:1038D000C6E9002391E7012C05D0082C07D89DF8F4
:1038E0000030337089E79DF80030337085E7102C85
:1038F00003D8BDF8003033807FE7202C02D8009B2E
:1039000033607AE7402C19D8DDE90023C6E90023AB
:1039100073E76FF0010770E76FF001076DE76FF075
:1039200001076AE76FF0010767E76FF0080764E7D0
:103930006FF0080761E76FF008075EE76FF00807B0
:103940005BE700BFF0B585B005460E46402A03D8B8
:10395000144612B9012400E040240022029203928E
:10396000012C06D0082C22D81B788DF808300127AE
:1039700003E01B788DF808302746FFF72FFB68BB64
:1039800014F0070F0AD004AB03EBD40111F8083C84
:10399000624202F00702934001F8083C00962B4671
:1039A0002246002102A8FFF74BFA05B0F0BD102C0B
:1039B00004D81B88ADF808300227DEE7202C03D896
:1039C0001B6802930427D8E7402C05D8D3E90023CD
:1039D000CDE902230827D0E70027CEE7394602A821
:1039E000FFF7FEFACCE700BF70B506460C4605E0CF
:1039F0000D6806F10C00FFF723FCE560E168002983
:103A0000F6D10023E360A3602361A38270BD00BFF1
:103A100010F0800F04D010F4004F03D00120704745
:103A2000022070470020704710B50446FFF7F0FFF2
:103A3000022802D0C4F3074010BDC4F30F2014F0D5
:103A40007F0FF9D100F00300F6E700BF2DE9F04F3A
:103A500099B006460D4603920493D1F8009048466B
:103A6000FFF7D6FF0746022800F08980C9F3062831
:103A7000B9F1000F80F2068219F0C04F40F00582C4
:103A80002C7B002C00F00482022F05D03046FFF77B
:103A90001FFD404540F0FF81C9F30463099309F01D
:103AA0007F0A4846FFF7C0FF0A9040EA074949EA03
:103AB0008A4949EA4869013C2C4494F80480002270
:103AC0000023CDE916235FEAD81302935AD0746815
:103AD000CDF800A03B46024616A93046A047002874
:103AE00000F0DC8149463046FFF7B8FC0446002868
:103AF00000F0D781A368E168039A0593D01A079074
:103B0000049B069163EB0103089395F80DC0CDF873
:103B10002CC094F81AC0CDF830C094F81790C9F3AF
:103B2000840908F01F0B59464846FFF7D1F80D905D
:103B300049465846FFF7CCF86368059A069952EA59
:103B4000010C35D09F4A07998A424FF0000208992C
:103B500072EB010CC0F081800B9A0C998A421BD049
:103B6000994B079A93424FF00003089A934176D2FB
:103B7000029B002B75D00F2875DD002319E04FF054
:103B8000000875E749463046FFF74AF90446002821
:103B9000B0D16FF00C0088E1029A002AE0D00D9AB3
:103BA000012A01DD012304E0002BD9D0012300E02C
:103BB0000123002B59D16A7BA37E9A4240F0748185
:103BC000029B13B118F0400F6AD1C8F34013E27D95
:103BD000B3EBD21F40F06C81C2F384039B4540F0ED
:103BE0006A81029B002B00F0948018F0400F40F097
:103BF00090802B7B032B40F26181039BA360049B8D
:103C0000E360E38A6FF30903E382AF1D2B7B033B81
:103C1000DBB23A46214606F10C00FFF76DFA0028A8
:103C20006DDB2B796A7943EA02232383DDE91623CE
:103C30004FF6FF70FFF7F8F9A0822A7B033AD2B261
:103C40003946FFF70BFAA082E37DDA43C2F3C012D4
:103C500062F3C713E375002027E10123A9E70023DE
:103C6000A7E70023A5E70123A3E7E37D68F3860325
:103C7000E375DBB26FF3C713E37521463046FFF7F8
:103C8000E7FA6B7BA376029B002B94D1E37DC3F311
:103C90008402013262F38603E3756FF00C0004E1E5
:103CA000039BA360049AE260202200210EA8FDF786
:103CB000E9FA039B0E93049A0F922B1D10932B7B12
:103CC000013BDBB2ADF84C300A9BADF84E308DF8BD
:103CD00050708DF851B0099B8DF852308DF853A07B
:103CE00096F82C3083F001038DF85430B3680EA998
:103CF000304698472046FFF783F80020D5E021465C
:103D00003046FFF7A5FA2046FFF77AF86FF0020079
:103D1000CBE0029B13B918F0400F1ED095F80C9021
:103D200009F1FF395FFA89F9B4F81680C8F3090878
:103D3000B8F1040F30D843464FF00008042B53D895
:103D4000C84551D205EB08021179E218D17601334A
:103D500008F101085FFA88F8F0E72F1D2B7B013B83
:103D6000DBB23A46214606F10C00FFF7C5F9002800
:103D700008DB2A7B013AD2B23946A08AFFF76EF9F6
:103D8000A08261E721463046FFF762FA2046FFF73E
:103D900037F86FF0020088E0616806F10C00FEF76A
:103DA0008FFF024608B1052304E04FF000081BE036
:103DB0001C330A4611680029FAD1A8EB03034FF01F
:103DC00000080DE080841E0040420F0005EB080152
:103DD0000879D1180871013308F101085FFA88F8F1
:103DE0001B2B01D8C845F1D3039B0E93049B0F9363
:103DF00004F11B031093616806F10C00FEF760FFED
:103E00001190C84535D2A84408F104031293E38AFF
:103E1000C3F309039944ADF84C900A9BADF84E30BA
:103E20008DF850708DF851B0099B8DF852308DF897
:103E300053A096F82C3083F001038DF85430002302
:103E400063602A7B013A291DA08AFFF707F9A08247
:103E5000238B98420FD00EA93046FFF7C5FD2046B0
:103E6000FEF7CEFFA28A238B9A4209D06FF0100092
:103E70001BE00023CAE7B3680EA930469847EAE77B
:103E8000002012E06FF009000FE06FF009000CE075
:103E90006FF0090009E06FF00A0006E06FF00B0018
:103EA00003E06FF0020000E0002019B0BDE8F08FE1
:103EB0006FF00D00F9E76FF00E00F6E76FF00F00FE
:103EC000F3E700BFEFF30983683305494A6B22F03B
:103ED00001024A6383F30988002383F31188704742
:103EE00000EF00E0302080F3118862B60C4BD968F7
:103EF00021F4E0610904090C0A4A0A43DA60D3F8A4
:103F0000FC2042F08072C3F8FC2007490A6842F0A6
:103F100001020A602022DA7783F82200704700BF8E
:103F200000ED00E00003FA05001000E0302383F309
:103F30001188104B5B6813F4006F03D1002383F3E7
:103F40001188704710B5F1EE103AEFF30984683C20
:103F50004FF08073E361084BDB6B236684F30988C1
:103F600000F000FB10B1054BA36110BD044BA36131
:103F7000FBE700BF00ED00E000EF00E03F030008BA
:103F800042030008574B4FF400721A60554B5B69AF
:103F900013F4C06FFAD1544B9B6803F00C03042B4D
:103FA0006DD1C36813F4803F09D04F4A136843F4BE
:103FB000A02313604C4B1B6813F4003FFAD0C36975
:103FC00013F0010F0CD0484AD2F8983043F00103A7
:103FD000C2F89830444BD3F8983013F0020FF9D060
:103FE0004369414AD360C36843F480731360C36874
:103FF00013F0807F04D03C4B1B6813F0007FF6D099
:1040000039498B6803F00303026922F0030213436A
:104010008B608269354B1A60344B1B68534013F038
:104020000F0FF9D102682F4B1A6042685A608268FC
:10403000C3F88020036813F4804F4CD1294B5B698F
:1040400013F4007FFAD128498B6823F00303026937
:1040500002F0030213438B60234B9B68026983EADF
:10406000820313F00C0FF7D1C36813F4807F04D1DF
:104070001D4A136823F480731360002070471A4AA6
:10408000136843F480731360174B1B6813F4806F3D
:10409000FAD0154B01229A60134B9B6803F00C0376
:1040A000042BF9D1114B124A1A60104B1B6813F004
:1040B0000F0FFAD10C4B0022C3F8982063221A602C
:1040C000094B1B6813F4003FFAD1064B4FF4807282
:1040D000C3F8802065E7034B5B6913F4007FFAD0D7
:1040E000B1E700BF00700040001002400020024015
:1040F0000006040008B500F095F900F071F908BD5C
:1041000008B53B4B9A6A4FF0FF3199629A6A0022D8
:104110009A62986AD86A60F07F00D862D86A00F024
:104120007F00D862D86A186B1963186B1A63186B12
:10413000986B9963986B9A63986BD86BD963D86BBB
:10414000DA63D86B186C1964196C1A64196C196EDF
:1041500041F001011966D3F8801021F00101C3F884
:104160008010D3F88010996D41F080519965996F56
:1041700021F080519967996F1E494FF40040886083
:10418000CA600A624A628A62CA620A634A638A63CE
:10419000CA630A644A648A64CA640A654A650A682A
:1041A00042F480720A60D3F8903013F4407F07D055
:1041B0000F4B4FF48032C3F890200022C3F89020B8
:1041C0000B4B00229A600C49C3F88810C3F89C205E
:1041D0000A48FFF7D7FE38B9054AD2F8903023F0E5
:1041E0000323C2F8903008BD054800F0F9F9F3E761
:1041F000001002400070004055010051C4510008F9
:10420000BC510008014B53F82000704718110020E2
:1042100008B5074A536903F0010353612BB1054BFD
:104220001B6813B1034A50689847FFF77FFE08BD2B
:1042300000040140843E002008B5074A536903F09A
:10424000020353612BB1054B9B6813B1034AD0683D
:104250009847FFF76BFE08BD00040140843E002034
:1042600008B5074A536903F0040353612BB1054BAA
:104270001B6913B1034A50699847FFF757FE08BD01
:1042800000040140843E002008B5074A536903F04A
:10429000080353612BB1054B9B6913B1034AD069E5
:1042A0009847FFF743FE08BD00040140843E00200C
:1042B00008B5074A536903F0100353612BB1054B4E
:1042C0001B6A13B1034A506A9847FFF72FFE08BDD7
:1042D00000040140843E002010B51A4B5C6904F4D0
:1042E00078725A6114F0200F05D0174B9B6A13B1F6
:1042F000154AD06A984714F0400F05D0124B1B6B3B
:1043000013B1114A506B984714F0800F05D00E4B33
:104310009B6B13B10C4AD06B984714F4807F05D087
:10432000094B1B6C13B1084A506C984714F4007F7A
:1043300005D0054B9B6C13B1034AD06C9847FFF72F
:10434000F5FD10BD00040140843E002010B51F4B58
:104350005C6904F47C425A6114F4806F05D01C4BF4
:104360001B6D13B11A4A506D984714F4006F05D0B5
:10437000174B9B6D13B1164AD06D984714F4805FAC
:1043800005D0134B1B6E13B1114A506E984714F4AD
:10439000005F05D00E4B9B6E13B10D4AD06E98474F
:1043A00014F4804F05D00A4B1B6F13B1084A506FAD
:1043B000984714F4004F05D0054B9B6F13B1044A86
:1043C000D06F9847FFF7B2FD10BD00BF0004014059
:1043D000843E002008B500F037FDFFF7A7FD08BDBB
:1043E00008B50621084600F037F80621072000F03E
:1043F00033F80621082000F02FF80621092000F0EC
:104400002BF806210A2000F027F80621172000F0DB
:1044100023F80621282000F01FF807211C2000F0B7
:104420001BF808BD10B44FF0E0235C6800230BE0DC
:10443000084A03F120004FF0FF3142F8201003F149
:10444000600042F820100133A342F1D95DF8044B1B
:10445000704700BF00E100E00901C9B2074A131824
:1044600083F8001300F01F01400901238B4000F185
:10447000600142F8213042F82030704700E100E04E
:104480000023037503691B68996882689142FAD218
:1044900003605A68426010605860704708B508466B
:1044A000302383F311880B7D032B0ED0042B10D007
:1044B00043B14FF0FF338361FFF7E2FF002383F343
:1044C000118808BD83F31188FBE78B6900221A600D
:1044D000EFE74A680B6813604A685A60E9E700BF73
:1044E0000023037503691B68996882689142FAD8B2
:1044F00003605A68426010605860704708B5FFF763
:10450000BFFF08BD08B5064BD96808751868026872
:104510001A60536001220275D860FBF7FBFE08BDEC
:10452000383C002030B587B004460C4BDD68B1F153
:10453000FF3F0FD02B460A4A684600F01BF9204681
:10454000FFF7E0FF009B13B1684600F021F9A8696E
:1045500007B030BDFFF7D6FFF9E700BF383C0020B9
:104560009D440008044BDA681B6898689368984279
:1045700094BF002001207047383C002010B5084B44
:10458000D8681C6822681A60536001222275DC60BA
:10459000FFF7A6FF01462046FBF7BCFE10BD00BF9B
:1045A000383C002008B50B4B01221A70002353B190
:1045B00009490A4800F07AFC064B02221A700023CF
:1045C00083F3118808BD034A02EB83020021516086
:1045D0000133ECE7603E0020E8510008383C002041
:1045E00008B572B6044B186500F0C4FA00F0A2FBDF
:1045F000024B03221A70FEE7383C0020603E002088
:1046000008B500F0FFF808BD8B6002230B7500238E
:104610004B7508610846704708B58168A1F18403AD
:1046200041F8143C026941F8442C426941F8402C9D
:10463000044A41F8242CC368026820390248FFF775
:10464000E3FF08BD2D030008383C002008B5FFF744
:10465000E3FFFFF753FF08BD08B5034BDB68986124
:104660000F20FFF74FFF08BD383C002008B530236E
:1046700083F31188FFF7F0FF08BD00BF08B50146BE
:10468000302383F311880820FFF74CFF002383F3C6
:10469000118808BDF8B515461C46C2608B6048609D
:1046A00003680B6059600160092C00D80A24C068B7
:1046B000204400F0E7FB0A2700F0E0FB0646431B1E
:1046C0009C4202D90A2F07D8F8BD7C1C281900F09B
:1046D000E7FB27463546EFE7012000F027FCF3E72C
:1046E00070B504460D46092900D80A250A26601926
:1046F00000F0D6FB00F0C2FB041BA54202D90A2E33
:1047000004D870BD013635460446F0E7012000F0BC
:104710000DFCF6E7F8B505460E46174600F0AEFB71
:104720002B689D4209D0EC68041B3C1900D33C4621
:104730009B68A34208D82B680CE03B4602463146F2
:104740002846FFF7A7FF14E03946FFF7C9FFF2E755
:10475000A41A1B689A689442FAD8B46033605A6805
:10476000726016605E609A68121B9A604FF0FF33A9
:10477000AB60F8BD08B50361C260002343610A461F
:1047800001460248FFF7C6FF08BD00BF483C0020B5
:1047900008B51B4B1B69984210D042680368136030
:1047A00042685A600268816893680B4493600023F2
:1047B0000360134B4FF0FF329A6108BD1968104A2D
:1047C000134643F8101F4B600021016012699A42A2
:1047D00012D0816893680B44936000F04FFB084A45
:1047E000D369A0EB030C126991686145E5D91B1AE6
:1047F0001944FFF775FFE0E700F04CFBDDE700BF71
:10480000383C0020F8B50BE0002383F31188E368FF
:10481000216920469847302383F311886369CBB917
:104820002C4D2C6900F02AFBEB69C21AA568954251
:1048300042D81D44274BDD61616822680A606168C7
:1048400051600022226053F8102F9A42DCD100F010
:1048500021FBD9E700F012FB0746461B6269B24212
:104860000CD32B1A13441B4A52F8101F91420AD042
:104870009E1900D23346174A12690CE0022000F05C
:1048800055FB0023EFE73A4621461348FFF702FFA6
:104890001FE05B1A126891688B42FAD8A36022600D
:1048A000516861600C6054609168CB1A9360094B49
:1048B0004FF0FF329A61B3E7064A52F8101F914257
:1048C00007D0044AD0611B1AA1681944A160FFF700
:1048D00007FFF8BD383C0020483C002038B500F008
:1048E000CDFA054AD2E90845031B181945F1000124
:1048F000C2E9080138BD00BF383C002000207047E5
:10490000FEE700BF704700BF4FF0FF30704700BFA9
:10491000BFF34F8F024B1B6913F4803FFAD17047EE
:1049200000200240014BF3221A6170470020024030
:1049300008B50B4B1B7803B108BDFFF7E9FF094B26
:104940005B69002B05DB074A136823F4806313605F
:10495000F2E7044B044A9A6002F188329A60F2E767
:10496000783E0020002002402301674508B50C4B2B
:104970001B7803B108BDFFF7CBFF0A4B5A6942F021
:1049800000425A611A6842F480521A601A6822F48E
:1049900080521A601A6842F480621A60EAE700BF27
:1049A000783E0020002002402DE9F04112F0070F70
:1049B0000FD105460C46164610F0070F09D10244E8
:1049C0002D4B9A420FD92D4B40F246321A600020EF
:1049D00004E02A4B40F241321A600020BDE8F08129
:1049E000083E08350834072E08D92B6822689A42F9
:1049F00004D12B1D1B6862689A42F1D00EB90120C8
:104A0000ECE7FFF795FFFFF783FF012E2FD9DFF8C3
:104A10007C800123C8F8143023682F4647F8043BF4
:104A200063686B60FFF774FFD8F8103043F0010340
:104A3000C8F810300023C8F814302B6822689A4256
:104A400007D13F686368BB4203D1083E083408358C
:104A5000DBE70A4B40F26E321A60094B1D60094BCE
:104A60001E60094B1C60FFF781FF0020B6E7FFF7CF
:104A70007DFF0120B2E700BF00000808743E00205F
:104A8000683E0020703E00206C3E00200020024066
:104A9000FF2803D800F58030C0027047002070471F
:104AA0004FF40060704700BF4FF48070704700BF44
:104AB000FF2811D838B50546FFF7EAFF0446284617
:104AC000FFF7EEFF30B12368B3F1FF3F06D10438A2
:104AD0000434F7E7012038BD002070470020FAE7D2
:104AE000FF2801D90020704738B50446FFF710FFB2
:104AF000FFF71EFFFFF716FF0E4B02225A615A699D
:104B000042EAC4025A615A6942F480325A61FFF79C
:104B1000FFFE2046FFF7BCFF05462046FFF7C0FF1B
:104B20000146284600F002F9FFF720FF2046FFF774
:104B3000BFFF38BD0020024008B5FFF735FF08BDB4
:104B400008B5034610B10A4A127822B113B9084BCE
:104B50001B7833B908BDFFF7EBFE054B01221A7035
:104B6000F8E7034B00221A70FFF700FFF2E700BFDF
:104B7000783E002010B500240BE0074804EB440306
:104B80009A00134603445968805800F0D1F8013464
:104B9000E4B2012CF1D910BDF451000808B5084663
:104BA00000F056FA08BD00BF302383F31188704728
:104BB000002383F311887047302383F311887047F3
:104BC000002383F311887047FFF788BEEFF311834A
:104BD00003BB00B583B0EFF30583C3F3080363B9E8
:104BE000FFF7E2FFFFF7F0FFCDE90010FFF7E0FF6E
:104BF000DDE9001003B05DF804FBFFF7DDFFFFF710
:104C0000E3FFCDE90010FFF7DBFFDDE9001003B0A3
:104C10005DF804FBFFF7D8BF38B5FFF7D7FF114C9D
:104C2000114AC00840EA4170A0FB025EC908A0FB1F
:104C3000040C1CEB050CA1FB04404FF000035B418E
:104C4000A1FB02121CEB040C43EB000011EB0E0164
:104C500042F10002411842F10000090941EA0070E6
:104C600038BD00BFCFF753E3A59BC4200CE000F193
:104C7000010C800000F1804000F51450026841F8FA
:104C8000042B1A465FFA8CF0531EDBB2002AEED1D9
:104C9000704700BF10B4154BD3F8903013F4004F99
:104CA0000AD1124BD3F89040C3F89040D3F890400B
:104CB00044F40044C3F890400D4C236843F48073DF
:104CC00023600CE000F1010C800000F1804000F551
:104CD000145051F8042B02601A465FFA8CF0531EF0
:104CE000DBB2002AEED15DF8044B704700100240A1
:104CF0000070004000B583B0012201A90020FFF739
:104D0000B5FF019803B05DF804FB00BF10B582B099
:104D10000446FFF7EFFFA04201D102B010BD01949D
:104D2000012201A90020FFF7B5FFF6E7704700BF99
:104D3000704700BF704700BF034B1B781BB1034B8C
:104D40004AF6AA221A607047803E002000300040D8
:104D5000054B1B683BB903F1804303F50433D3F8DB
:104D60009420014B1A6070477C3E0020024B4FF4A8
:104D70000002C3F8942070470010024008B5FFF706
:104D8000E7FF024B1868C0F3407008BD7C3E00206E
:104D9000704700BFFEE700BF084B094903E051F828
:104DA000042B43F8042B074A9342F8D302E0002275
:104DB00043F8042B044A9342F9D37047043F002080
:104DC00084530008043F0020043F0020002307E034
:104DD000054A002142F8331002EBC302516001334F
:104DE0000F2BF5D9704700BF843E002008B5134B48
:104DF0009A6D42F001029A659A6F42F001029A6739
:104E00009B6F0F4A936843F0010393600620FFF7FE
:104E1000F9F90C4BA3FB00239B0C013B4FF08042A4
:104E200093624FF0FF33D362002393615363D360E7
:104E3000536001235361136008BD00BF001002409E
:104E4000002004E083DE1B4308B54FF08042136965
:104E5000D168C9B20B40D943116113F0020F00D1E0
:104E600008BD302383F31188FFF7CAFB002383F3C7
:104E70001188F5E708B5FFF7B9FF08BD4FF080438B
:104E8000586A70474FF08043586300221A6102222B
:104E9000DA6070474FF080430022DA60704700BF4D
:104EA0004FF0804358637047FEE700BF70B586B08F
:104EB00004460E46194B5860002585620163FFF7D2
:104EC00011F824606460A560E56204F110032361B9
:104ED00063614FF0FF33A361E561FFF7CFFF024647
:104EE0002B46C4E90823256580230D4A04F13401CB
:104EF0002046FFF789FBE06001230375094A009211
:104F000072680192B26802920393074B049305956D
:104F10006846FFF79BFB06B070BD00BF603E0020F7
:104F20000C52000814520008A94E0008024AD36A25
:104F30000343D362704700BF383C00204B68436096
:104F40008B688360CB68C3600B6943614B69036204
:104F50008B6943620B680360704700BF10B51C4B40
:104F6000DA6A42F07F02DA62DA6A22F07F02DA62FB
:104F7000DA6ADA6C42F07F02DA64DA6E42F07F02BB
:104F8000DA66DB6E134C21464FF09040FFF7D6FFF8
:104F900004F11C011048FFF7D1FF04F138010F485C
:104FA000FFF7CCFF04F154010D48FFF7C7FF04F1F0
:104FB00070010C48FFF7C2FF04F18C010A48FFF7AB
:104FC000BDFF04F1A8010948FFF7B8FF10BD00BFFD
:104FD000001002401C52000800040048000800486D
:104FE000000C004800100048001400480018004859
:104FF00008B5FFF7B3FFFFF783F808BD08B500F069
:1050000007F8FFF7CFFAFFF7A3FE08BD704700BF10
:1050100008B5FFF76FF8FFF7D9FEFFF7F7FFFFF7C7
:1050200029FF08BD0B460146184600F003B80000F2
:1050300000F00EB810B5054C13462CB10A460146D7
:105040000220AFF3008010BD2046FCE70000000006
:10505000024B01461868FFF7A1BD00BF40110020B8
:1050600010B501390244904201D1002005E00378D7
:1050700011F8014FA34201D0181B10BD0130F2E717
:105080002DE9F041A3B1C91A17780144044603F190
:10509000FF3C8C42204601D9002009E00578BD4242
:1050A00004F10104F5D10CEB0405D618A54201D199
:1050B000BDE8F08115F8018D16F801EDF045F5D049
:1050C000E7E700006F72672E6172647570696C6F3C
:1050D000742E3344522D4D313031343400000000F1
:1050E00040A2E4F1646891060000000041A3E5F2EB
:1050F00065699207000000004261642043414E4907
:105100006661636520696E6465782E0000000000AA
:1051100000000000C9210008A51B0008452900085F
:10512000111C00081D1C00086D1E0008ED1D000864
:10513000D91B0008DD1B0008B51B0008A11B0008D7
:10514000251E0008C11B0008F52B0008CD1B000818
:10515000411E000801040E05054B02020E05054B19
:1051600004010E05054B05010B04044B0801060361
:10517000034600000000000000000000952B00081E
:10518000712B0008A12B0008A52B00080D2C00088E
:10519000BD2B0008A92B0008AD2B0008B12B00087F
:1051A000B52B0008A11B0008B92B0008712B0008C3
:1051B000F52B0008712B0008712B0008636C6B73D2
:1051C0007763000000030000000000000001000001
:1051D000000001010300000023283101040704003E
:1051E0000100000063300000E4510008903C002002
:1051F000603E002000010020007F0100010000004F
:105200000000001000800000020000006D61696E67
:105210000000000069646C65000000000001802A45
:1052200000000000AAAAAAAA00000024FFFF0000B4
:1052300000000000009009000000000100000000D4
:10524000AAAAAAAA00000001FFFF000000000000B7
:10525000000000000000004400000000AAAAAAAA62
:1052600000000040FFFF0000000000000000000000
:105270000000000000000000AAAAAAAA0000000086
:10528000FFFF000000000000000000000000000020
:1052900000000000AAAAAAAA00000000FFFF000068
:1052A00000000000000000000000000000000000FE
:1052B000AAAAAAAA00000000FFFF00000000000048
:1052C000000000000000000000000000AAAAAAAA36
:1052D00000000000FFFF00000000000000000000D0
:1052E00062040000000000000080070000000000D1
:1052F000FE2A0100D2040000006889096D8BB90202
:1053000000B4C40400688909006889090068890933
:10531000006889090068890900688909000000009F
:105320004411002000000000000000000000000008
:10533000000000000000000000000000000000006D
:10534000000000000000000000000000000000005D
:10535000000000000000000000000000000000004D
:10536000000000000000000000000000000000003D
:10537000000000000000000000000000000000002D
:045380000000000029
:00000001FF
