:020000040800F2
:1000000000090020F10100084D260008052600081F
:100010002D2600080526000825260008F301000803
:10002000F3010008F3010008F30100083936000865
:10003000F3010008F3010008F3010008F3010008D0
:10004000F3010008F3010008F3010008F3010008C0
:10005000F3010008F30100082D39000855390008A4
:100060007D390008A5390008CD390008F3010008E2
:10007000F3010008F3010008F3010008F301000890
:10008000F3010008F3010008F3010008F301000880
:10009000F3010008E5250008F5250008F5390008FA
:1000A000F3010008F3010008F3010008F301000860
:1000B000C93A0008F3010008F3010008F301000841
:1000C000F3010008F3010008F3010008F301000840
:1000D000F3010008F3010008F3010008F301000830
:1000E000593A0008F3010008F3010008F301000881
:1000F000F3010008F3010008F3010008F301000810
:10010000F3010008F3010008F3010008F3010008FF
:10011000F3010008F3010008F3010008F3010008EF
:10012000F3010008F3010008F3010008F3010008DF
:10013000F3010008F3010008F3010008F3010008CF
:10014000F3010008F3010008F3010008F3010008BF
:10015000F3010008F3010008F3010008F3010008AF
:10016000F3010008F3010008F3010008F30100089F
:10017000F3010008F3010008F3010008F30100088F
:10018000F3010008F3010008F3010008F30100087F
:10019000F3010008F3010008F3010008F30100086F
:1001A000F3010008F3010008F3010008F30100085F
:1001B000F3010008F3010008F3010008F30100084F
:1001C000F3010008F3010008F3010008F30100083F
:1001D000F3010008F3010008F3010008F30100082F
:1001E0003D0F0008000000000000000000000000BB
:1001F00002E000F000F8FEE772B6374880F30888A6
:10020000364880F3098836483649086040F20000D5
:10021000CCF200004EF63471CEF200010860BFF35C
:100220004F8FBFF36F8F40F20000C0F2F0004EF628
:100230008851CEF200010860BFF34F8FBFF36F8F7C
:100240004FF00000E1EE100A4EF63C71CEF20001D4
:100250000860062080F31488BFF36F8F04F0CEF897
:1002600004F0AEF94FF055301F491B4A91423CBF94
:1002700041F8040BFAE71D49184A91423CBF41F886
:10028000040BFAE71A491B4A1B4B9A423EBF51F82E
:10029000040B42F8040BF8E700201849184A914271
:1002A0003CBF41F8040BFAE704F0ACF804F0CEF9D7
:1002B000144C154DAC4203DA54F8041B8847F9E797
:1002C00000F042F8114C124DAC4203DA54F8041B12
:1002D0008847F9E704F094B80009002000110020D5
:1002E0000000000808ED00E00001002000090020E7
:1002F000E048000800110020A4110020A8110020EF
:10030000043F0020E0010008E4010008E4010008C7
:10031000E40100082DE9F04F2DED108AC1F80CD052
:10032000C3689D46BDEC108ABDE8F08F002383F3BF
:1003300011882846A047002003F004FDFEE703F0E3
:100340008DFC00DFFEE70000F8B500F009FE03F0C9
:10035000F7FF074604F048F80646C0BB274B9F420C
:1003600035D001339F4235D0254B27F0FF029A420A
:1003700033D1F8B200F03AFC354642F2107400F086
:100380003BFC08B10024254601F0E8F848B30320FF
:1003900000F03AF80024254636B11A4B9F4203D0AC
:1003A00004F01AF800242546002003F0D3FF0DB115
:1003B00000F040F800F052FC02F050F90546ACB9EC
:1003C00000F094FC4FF47A7003F0C2FCF7E7354676
:1003D0000024D4E704460125D1E705464FF47A749A
:1003E000CDE7B4F57A7F08BF0125D5E702F036F9ED
:1003F000431BA342E4D900F01DF8DDE7010007B07C
:10040000000008B0263A09B0084B187003280CD831
:10041000DFE800F008050208022000F00BBE022011
:1004200000F0FEBD024B00225A607047A811002068
:10043000AC11002010B501F091F830B1234B03222C
:100440001A70234B00225A6010BD224B224A1C46D0
:1004500019680131F8D004339342F9D16268A2429D
:10046000F2D31E4B9B6803F1006303F5C0439A422D
:10047000EAD203F083FF03F095FF002000F096FD21
:100480000220FFF7C1FF164B9A6D00229A65996F03
:100490009A67996FD96DDA65D96FDA67D96F196E76
:1004A0001A66D3F88010C3F88020D3F8803072B673
:1004B0004FF0E0233021C3F8084DD4E9003281F336
:1004C00011889D4683F308881047BDE7A8110020D6
:1004D000AC1100200060000820600008001100201E
:1004E00000100240094A136849F2690099B21B0CD6
:1004F00000FB01331360064B186844F2506182B26E
:10050000000C01FB0200186080B27047141100203B
:100510001011002010B500211022044600F0A6FDA5
:10052000034B03CB206061601868A06010BD00BF62
:100530009075FF1F2DE9F041ADF54E7D0DF13408AA
:100540006CAC40F2751207460D460EA80021C8F8A3
:10055000001000F08BFD4FF4C4720021204600F023
:1005600085FD02F07BF8254B4FF47A72B0FBF2F078
:10057000186093E80700022384E807000DF5E9708E
:100580002382FFF7C7FF46F204231D49238406A8F0
:1005900004F0C4F8182384F832310DF2E3266B44DA
:1005A0000DF1300C1A4603CA624530607160134683
:1005B00006F10806F6D141460122204600F0A2FDD0
:1005C00000230393AB7E029305F11903019380B2DC
:1005D0000123CDE904800093E97E06A3D3E900233B
:1005E000384602F0F9FB0DF54E7DBDE8F08100BF05
:1005F000AFF300809E6AC421818A46EEB4110020C8
:100600002C4700082DE9F0412C4C237ADAB08046C3
:100610000D465BBB27A9284600F096FE074600283A
:1006200042D19DF89D60C82E3ED801464FF4A66287
:10063000204600F01BFD4FF48073C4F8F8314FF4EE
:100640000073C4F80C334FF44073C4F820343246BE
:100650000DF19E0104F1090000F0F6FC26449DF81E
:100660009C30777223720BB9EB7E237281220021BA
:1006700006AC27A800F0FAFC0122214627A800F0CA
:10068000A9FE00230393AB7E029305F1190380B208
:1006900001932823CDE904400093E97E05A3D3E923
:1006A0000023404602F098FB5AB0BDE8F08100BF3D
:1006B000AFF3008026417272DF25D7B7C036002025
:1006C000F0B5254E4FF48A7505FB0065F1B096F83C
:1006D000D83085F8DC300024D822214685F8E8405F
:1006E0003AA800F0C3FC06F1090000F0B7FCD5F809
:1006F000E4308DF8F000C2B206AF06F109010DF149
:10070000F100CDE93A3400F09FFC394601223AA8C5
:1007100000F096FE80B2CDE9047008230127CDE9F0
:10072000023706F1D803019330230093317A0B4846
:1007300007A3D3E9002302F04FFBA04206DD01F03E
:100740008DFFC5F8E000384671B0F0BD2046FBE7EC
:1007500078F6339F93CACD8DC0360020CC2100207F
:100760002DE9F0411D4D1E4E1E4F86B0284602F069
:100770005FFB034658B30024CDE90344ADF81440B1
:10078000027B8DF8142099684068029403AA03C282
:100790001B68DFF8548043F00043029301F060FFD0
:1007A000821941F10003009402A9384601F0EAF8E9
:1007B000A04205DD284602F03FFB88F80040D5E75F
:1007C00098F80030072B05D8013388F8003006B0C0
:1007D000BDE8F081014802F02FFBF8E7CC210020B2
:1007E00040420F0000220020F53B002070B50D466E
:1007F00014461E4602F04CFA50B9022E10D1012CBC
:100800000ED112A3D3E90023C5E90023012007E09C
:10081000282C10D005D8012C09D0052C0FD0002091
:1008200070BD302CFBD10BA3D3E90023ECE70BA365
:10083000D3E90023E8E70BA3D3E90023E4E70BA304
:10084000D3E90023E0E700BFAFF30080401DA12003
:1008500026812A0B78F6339F93CACD8D9E6AC421D8
:10086000818A46EE26417272DF25D7B7F017304AEB
:1008700039059E5638B505460E4C0021013500F06D
:10088000B7FBA4F82C55B4F82C0500F099FB78B10F
:10089000B4F82C0500F0A4FB014648B9B4F82C05C7
:1008A00000F0A6FBB4F82C350133A4F82C35EAE7A8
:1008B00038BD00BFC036002010B50A4B0A4A1A6086
:1008C00003F5805393F848203AB95C6C2CB120466C
:1008D00000F0C2FE204603F0D7FEBDE810400348FA
:1008E00000F0BABE00220020784700083032002015
:1008F0002DE9F04F8FB000AF05460C4602F0C8F965
:10090000002849D1237E022B1BD1E38A012B18D169
:1009100001F0A4FE0646FFF7E5FD03464FF4C8705C
:10092000DFF8C482B3FBF0F206F5167602FB103353
:1009300016FA83F3C8F80030E37E33B9A34B0022E4
:100940001A703C37BD46BDE8F08F07F12401204600
:1009500000F0AEFC0028F4D107F11400FFF7DAFD37
:1009600097F8264007F11401224607F1270003F00B
:10097000A3FE0028E2D10F2C08D8944B1C70D8F8A5
:100980000030A3F51673C8F80030DAE797F82410A2
:10099000284602F075F9D4E7E38A282B2BD010D82B
:1009A000012B23D0052BCCD1BFF34F8F8849894B26
:1009B000CA6802F4E0621343CB60BFF34F8F00BFFD
:1009C000FDE7302BBDD1844EE17E327A9142B8D121
:1009D000607E3146002291F8DC50854200F0A5800F
:1009E0000132042A01F58A71F5D1AAE72146284689
:1009F000FFF7A0FDA5E721462846FFF703FEA0E785
:100A0000B2F8EC507B6005F103094FEA99094FEA0F
:100A10008902D11DC908A8EBC1039D46EB46002100
:100A2000584600F023FB04F1EE012A4631445846B3
:100A300000F00AFB7B6813B9012000F0B7FA96F8C2
:100A4000D20000F0BDFA044630B9307200F0D8FA96
:100A5000204600F0ABFAB1E0D6F8D4203AB996F8C7
:100A6000D200B6F82C25824201D8FFF703FFD6F852
:100A7000D4202A44944208D296F8D200B6F82C2505
:100A80000130824201D8FFF7F5FE70685FFA89F203
:100A9000594600F0F3FA08B9C54679E0726896F84D
:100AA000D2002A447260D6F8D42005EB0209C6F8B9
:100AB000D49000F085FA814509D396F8D220D6F873
:100AC000D4000132001B86F8D220C6F8D400FF2DD6
:100AD0000FD80024347200F093FA204600F066FA32
:100AE00000F03CFD3D4B188108B9FFF7A3FCC5465B
:100AF00027E7BB6896F8D9000AFB0362FB68D2F8C7
:100B0000E41082F8E83001F58061C2F8E030C2F804
:100B1000E410FFF7D5FDFFF723FE96F8D920013248
:100B200002F0030286F8D920B6E74FF48A7A0AFB6E
:100B300002F505F1EA013144204600F0B3FCF8600B
:100B400000287FF4FEAE3544012285F8E82001F04C
:100B500085FDD5F8E020D6ED007ADFED216A801A18
:100B6000192838BF192040F6B832904228BF1046E5
:100B7000B8EE677A07EE900AF8EEE77A67EEA67AA3
:100B8000DFED186AE7EE267AFCEEE77AC6ED007A2A
:100B900096F8D930BB60BA6873680AFB02F4321960
:100BA00092F8E81059B1D2F8E4108B42E8463FF4CD
:100BB00027AF002182F8E810C2F8E010C54673683C
:100BC000064A9B0A01331381BBE600BFC521002002
:100BD00000ED00E00400FA05C0360020B41100204A
:100BE000CDCCCC3D6666663FC8210020014B187015
:100BF000704700BFC011002038B54FF00054134BB0
:100C000022689A4220D1124B627D12481A70237DCD
:100C100003724FF48073C0F8F8314FF40073C0F8DA
:100C20000C3300254FF44073C0F820340A49C0F853
:100C3000E450C922093000F007FAE0222946204694
:100C400000F014FA012038BD0020FCE79AAD44C53D
:100C5000C0110020C03600201600002037B500F07B
:100C60007DFC194D1949288102236B710022012353
:100C7000174801F0D1F800230193164B1649009351
:100C80001648174B4FF4805201F0D2FF154B1978DC
:100C900011B1124801F0F4FF01F0E0FC0446FFF747
:100CA00021FC4FF4C873B0FBF3F202FB130304F50D
:100CB000167010FA83F00C4B186003F095FB08B126
:100CC0000F232B8103B030BDB411002040420F0030
:100CD00000220020ED070008C4110020CC210020D4
:100CE000F1080008C0110020C82100202DE9F04FB4
:100CF0002DED028B0FF23829D9E90089834C93B08E
:100D00000BAE9FED7E8BFFF72BFD814FDFF828A206
:100D100000230A93ADF834300B9373604FF0000B4F
:100D20005B468DED008B01250DF11D0207A93846AC
:100D30008DF81C508DF81DB001F0F8FB9DF81C30AB
:100D4000002B40F0A580204601F0A2FF06460028B7
:100D500045D1704F01F082FC3B6898423FD301F0CF
:100D60007DFC8246FFF7BEFB4FF4C873B0FBF3F285
:100D700002FB13030AF5167010FA83F03860664F11
:100D800097F800B0CBF1100ABBF1000F14BF334647
:100D90002B465FFA8AFA0EA88DF82830FFF7BAFBC7
:100DA000BAF1060F28BF4FF0060A0EAB03EB0B019A
:100DB00052460DF1290000F047F90AAB03931823BE
:100DC00002930AF10102554BD2B2CDE900530492CD
:100DD00020464CA3D3E9002301F0A0FF3E7001F0B0
:100DE0003DFC4F4A4F4D1368C31AB3F57A7F2ED39B
:100DF000106001F035FC02460B46204602F026F852
:100E0000204601F045FF10B32B7A474E002B14BF4C
:100E100003230223737101F021FC0EAF4FF47A73A8
:100E20000122B0FBF3F039463060304600F018FA8A
:100E3000182302933D4B019380B240F25513CDE944
:100E40000370009342464B46204601F067FF2B7A21
:100E500093B101F003FC002607464FF48A7A95F817
:100E6000D900304400F003000AFB005393F8E82057
:100E700092B30136042EF2D1C82002F069FF2B7A1A
:100E8000002B7FF43DAF13B0BDEC028BBDE8F08FBB
:100E9000DAF8143083F40053CAF81430594610229B
:100EA0000EA800F0E3F80DF11E0308AA0AA93846BF
:100EB00000F05CFE96E803000FAB83E803009DF8AA
:100EC00034308DF844300A9B0E930EA9DDE90823D7
:100ED000204602F08FF921E7D3F8E02042B12B68D9
:100EE000FA2B38BFFA23BA1A0533B2EB430FC0D33B
:100EF000FFF7E6FB0028BCD1BEE700BF0000000002
:100F000000000000401DA12026812A0BCC210020DA
:100F100000220020C8210020C5210020C42100207B
:100F2000F03B0020C0360020B4110020F43B00202C
:100F3000F1C6A7C1D068080F0008004808B50548E9
:100F400000F0BAFEBDE80840034A0449002003F05F
:100F500095BB00BF00220020303C0020B9080008EB
:100F600070B503F091F80F4C0F4E208000253068CB
:100F7000238883420CD800252088013803F080F8AC
:100F800023880544013BB5F5805F2380F4D370BD11
:100F900003F076F8336805440133B5F5C04F33608C
:100FA000E5D3E8E7243C0020F83B002003F01EB91D
:100FB00000F10060920000F5C04003F0A1B800000D
:100FC000054B1A68054B1B889B1A834202D91044B3
:100FD00003F056B800207047F83B0020243C002066
:100FE000024B1B68184403F051B800BFF83B0020C7
:100FF000024B1B68184403F05BB800BFF83B0020AD
:10100000064991F8243033B10023086A81F824306E
:101010000822FFF7CDBF0120704700BFFC3B002036
:10102000022802BF024B4FF000529A61704700BF86
:1010300000080048022802BF024B4FF400529A6198
:10104000704700BF0008004810B50023934203D04A
:10105000CC5CC4540133F9E710BD000003460246DE
:10106000D01A12F9011B0029FAD170470244034635
:10107000934202D003F8011BFAE770472DE9F843C9
:101080001F4D144695F824200746884652BBDFF8CA
:1010900070909CB395F824302BB92022FF2148464C
:1010A0002F62FFF7E3FF95F82400C0F10802A24287
:1010B00028BF2246D6B24146920005EB8000FFF7DA
:1010C000C3FF95F82430A41B1E44F6B2082E174423
:1010D0009044E4B285F82460DBD1FFF791FF00284B
:1010E000D7D108E02B6A03EB82038342CFD0FFF70E
:1010F00087FF0028CBD10020BDE8F8830120FBE763
:10110000FC3B00202DE9F8430D46044600219046A3
:10111000284640F27912FFF7A9FF2346202200213A
:10112000284602F009F8231D02222021284602F059
:1011300003F8631D03222221284601F0FDFFA31DB1
:1011400003222521284601F0F7FF04F108031022AD
:101150002821284601F0F0FF04F11003082238216D
:10116000284601F0E9FF04F1110308224021284636
:1011700001F0E2FF04F1120308224821284601F0A1
:10118000DBFF04F1140320225021284601F0D4FF94
:1011900004F1180340227021284601F0CDFF04F12C
:1011A00020030822B021284601F0C6FF04F12103E4
:1011B0000822B821284601F0BFFF04F12207C0260B
:1011C0003B46314608222846083601F0B5FFB6F501
:1011D000A07F07F10107F3D1314604F13203082261
:1011E000284601F0A9FF94F83260002704F1330982
:1011F000F900BE4201F5A4711FD8F70007F5A476E7
:10120000B8F1000F08D1314604F59973072228463A
:1012100001F092FF07F24F1694F83201502828BFD0
:101220005020074604EB0009B046A1450DD106EB5E
:10123000C7000730C008BDE8F88309EB07030822A0
:10124000284601F079FF0137D2E704F23313414613
:101250000822284601F070FF08F108080134E4E78D
:1012600013B504460846002101602346C0F8031068
:101270002022019001F060FF0198231D022220210D
:1012800001F05AFF0198631D0322222101F054FF4F
:101290000198A31D0322252101F04EFF019804F1BE
:1012A00008031022282101F047FF072002B010BDDB
:1012B000F7B5047F05460E462CB1838A122B02D95E
:1012C000012003B0F0BD00231946072200962846EE
:1012D00001F0F6FD731C009301220023072128462C
:1012E00001F0EEFDD4B9B31C00930522234608217A
:1012F000284601F0E5FD0D24B378102BE0D83746E1
:10130000B278BB1B934210D32B7FA88A0734E40822
:10131000B3B9844294BF00200120D2E7AB8ADB003E
:10132000083BDB08B3700824E6E7FB1C009321466A
:1013300000230822284601F0C3FD08340137DFE707
:10134000201A18BF0120BCE7F7B5047F05460E46FA
:101350002CB1838ACA2B02D9012003B0F0BD00232F
:10136000194600960822284601F0AAFD731CD4B93C
:101370000822009311462346284601F0A1FD1024BF
:101380007378C82BE8D8012372785F1C013B934225
:1013900010D32B7FA88A0734E408B3B9844294BFE2
:1013A00000200120D9E7AB8ADB00083BDB08737023
:1013B0000824E5E7F3190093214600230822284674
:1013C00001F07EFD08343B46DEE7201A18BF0120FD
:1013D000C3E700002DE9F8430D46044616460021F8
:1013E00081222846FFF742FE234608220021284694
:1013F00001F0A2FEC6B9631C07220821284601F0AD
:101400009BFE0F2694F901306778002BB8BF7F2729
:1014100004EB0709B0464C4508D10736082010FBFD
:101420000760C008BDE8F8830826EBE7A31C414627
:101430000822284601F080FE08F108080134EAE796
:101440002DE9F0410D46044616460021CE222846DD
:10145000FFF70CFE234628220021284601F06CFEEF
:10146000BEB904F1080308222821284601F064FED1
:10147000302614F8080FC82828BFC8208046002747
:10148000B84506EBC70106D806EBC800C008BDE8A2
:10149000F0812826EDE70137E3190822284601F0FC
:1014A0004BFEEDE7F7B5047F05460E4634B1838A5F
:1014B000B3F5827F02D9012003B0F0BD009601236D
:1014C00010220021284601F0FBFCDCB9B31C00937C
:1014D000092223461021284601F0F2FC19247388C2
:1014E000B3F5807FE7D837467288BB1B934210D391
:1014F0002B7FA88A0734E408B3B9844294BF002044
:101500000120D9E7AB8ADB00103BDB087380102495
:10151000E5E73B1D0093214600230822284601F001
:10152000CFFC08340137DFE7201A18BF0120C3E7DA
:1015300030B5094D0A4491420DD011F8013B584095
:10154000082340F30004013B2C4013F0FF0384EA1E
:101550005000F6D1EFE730BD2083B8EDF7B5384A3B
:10156000106851686B4603C36A46364936480823FB
:1015700003F0B2F80446002833D10A25334A106834
:1015800051686B4603C36A4631492F48082303F06C
:10159000A3F80446002849D00369B3F5D03F45D8E5
:1015A000B0F8661040F2624291423FD1294A0244AB
:1015B00002F15C018B4239D35C3B234900209E1A27
:1015C000FFF7B6FF3246074604F164010020FFF73B
:1015D000AFFFA3689F4229D1E368984208BF002566
:1015E00024E00369B3F5D03F27D8418B40F2624233
:1015F000914220D1174A024402F110018B4218D3C4
:10160000103B114900209D1AFFF792FF2A4606461B
:1016100004F118010020FFF78BFFA3689E4202D15E
:10162000E368984201D00D25A8E70025284603B0BD
:10163000F0BD1025A2E70C25A0E70B259EE700BF13
:1016400048470008DC9F010000600008514700087F
:10165000909F010008A0FFF710B5037C044613B962
:10166000006803F021F8204610BD00000023BFF3FE
:101670005B8FC360BFF35B8FBFF35B8F8360BFF390
:101680005B8F7047BFF35B8F0068BFF35B8F704762
:1016900070B505460C30FFF7F5FF05F10806044666
:1016A0003046FFF7EFFFA04206D930466D68FFF7DE
:1016B000E9FF2544281A70BD3046FFF7E3FF201AE2
:1016C000F9E7000070B50546406898B105F10800DB
:1016D000FFF7D8FF05F10C0604463046FFF7D2FFAE
:1016E0008442304694BF6D680025FFF7CBFF013C74
:1016F0002C44201A70BD000038B50C460546FFF793
:10170000C7FFA04210D305F10800FFF7BBFF044458
:101710006868B4FBF0F100FB1144BFF35B8F01205C
:10172000AC60BFF35B8F38BD0020FCE72DE9F041D2
:10173000144607460D46FFF7C5FF844228BF0446FE
:10174000D4B1B84658F80C6B4046FFF79BFF3044C5
:10175000286040467E68FFF795FF331A9C4203D805
:101760006C600120BDE8F0816B60A41B3B68AB603E
:101770002044E8600220F5E72046F3E738B50C4640
:101780000546FFF79FFFA04210D305F10C00FFF7BD
:1017900079FF04446868B4FBF0F100FB1144BFF327
:1017A0005B8F0120EC60BFF35B8F38BD0020FCE74E
:1017B0002DE9FF41884669460746FFF7B7FF6C46AB
:1017C00006B204EBC6060025B44209D06268206860
:1017D00008EB0501FFF738FC636808341D44F3E7A4
:1017E00029463846FFF7CAFF284604B0BDE8F08115
:1017F000F8B505460C300F46FFF744FF05F1080623
:1018000004463046FFF73EFFA042304688BF6C6872
:10181000FFF738FF201A386020B130462C68FFF7F8
:1018200031FF2044F8BD000073B5144606460D464E
:10183000FFF72EFF844228BF04460190DCB101A9C6
:101840003046FFF7D5FF019B33B93268C5E9023353
:10185000C5E9002401200CE09C4238BF01942860B7
:10186000019868608442F5D93368AB60241AEC6053
:10187000022002B070BD2046FBE700002DE9FF41C9
:101880000F466946FFF7D0FF6C4600B204EBC00577
:101890000026AC4209D0D4F8048054F8081BB819CB
:1018A0004246FFF7D1FB4644F3E7304604B0BDE8BB
:1018B000F081000038B50546FFF7E0FF0446014619
:1018C0002846FFF719FF204638BD0000704700008A
:1018D00010B41346026814680022A4465DF8044B55
:1018E0006047000000F5805090F8590470470000F0
:1018F00000F5805090F852047047000000F58050C9
:1019000090F958047047000050207047302383F34B
:10191000118800F58052D2F89C34D2F8980418440B
:10192000D2F894341844D2F87C341844D2F88C3469
:101930001844D2F888341844002383F31188704780
:1019400000F58050C0F854140120704738B5C26AC1
:10195000936923F001039361044600F07FFE05467E
:10196000E36A9B69DB0706D500F078FE431BFA2B80
:10197000F6D9002004E004F58054012084F85204D4
:1019800038BD00002DE9F04F0C4600F5805185B0C0
:101990001F4691F85234BDF83890054690469BB1E9
:1019A000D1F878340133C1F878342368980006D42C
:1019B000237B082B0BD9627B0AB10F2B07D9D1F8F7
:1019C0007C340133C1F87C344FF0FF3010E0302319
:1019D00083F31188EB6AD3F8C42012F4001B0AD0F9
:1019E000D1F880340133C1F88034002080F31188AD
:1019F00005B0BDE8F08FD3F8C4302068C3F3014AC6
:101A00006B6A4822002812FB0A33B4BF40F08040C2
:101A1000800418602268520044BF40F000501860F3
:101A2000207B4FEA0A6242EA00425A60607B4FEA3A
:101A30004A1610B342F440125A60D1F8B024013271
:101A4000C1F8B024AA1902F58352117B41F020019C
:101A50001173207B039300F05DFE039B0330801025
:101A60005FFA8BF282420BF1010B0DDA04EB82017B
:101A700003EB820249689160F2E7AA1902F58352EA
:101A8000117B60F34511E3E7EB6A012202FA0AF2E7
:101A9000C3F8CC2005EB4A11AB1903F5825301F5CD
:101AA0008251C3E904871831234604F10C0253F82C
:101AB000040B41F8040B9342F9D11B880B802E4490
:101AC00041F2680346F803A006F5805609F00303C7
:101AD00096F86C2043F0100322F01F02134386F89F
:101AE0006C30002383F31188CDF8009042463B46CA
:101AF0002146284600F0D4FD012079E713B500F512
:101B000080540191606CFFF7DDFD1F280AD901990F
:101B1000606C2022FFF74CFEA0F120035842584190
:101B200002B010BD0020FBE708B5302383F3118815
:101B300000F58050406CFFF799FD002383F3118876
:101B400008BD00000022026082814260826070470E
:101B500010B500220023C0E90023002304460381BE
:101B60000C30FFF7EFFF204610BD00002DE9F047D5
:101B70009A4688B0074688469146302383F31188F9
:101B800007F580546846FFF7E3FF606CFFF780FDC0
:101B90001F282DD9606C20226946FFF78BFE202874
:101BA00026D194F852341BB303AD444605AB2E4600
:101BB00003CE9E4220606160354604F10804F6D1F0
:101BC00030682060B388A380DDE90023C9E90023E1
:101BD000BDF80830AAF80030002383F3118853467B
:101BE0004A464146384608B0BDE8F04700F046BDD9
:101BF000002080F3118808B0BDE8F0872DE9F84F88
:101C000000230646C0E90133284B46F8303B00F577
:101C10008154054688463746103438462037FFF74A
:101C200097FFA742F9D105F580544FF480532663FE
:101C30000026C4E90D366764012305F5835705F5D1
:101C4000A359E66384F8403084F84830103709F12E
:101C500010094FF0000A4FF0000B47E908ABA7F15D
:101C60001800FFF76FFF203747F8286C4F45F4D175
:101C700084F85884A4F85A64A4F85C64A4F85E64F8
:101C800084F86064A4F86264A4F86464A4F86664E8
:101C900084F86864B8F1000F02D0054800F0D8FC61
:101CA000044BEB622846BDE8F88F00BF7847000878
:101CB0005C4700080064004010B5044B19780446E6
:101CC0004A1C1A70FFF79AFF204610BD2D3C0020D9
:101CD0002DE9F84315460C4600295CD0022001F09E
:101CE0001FFE2E49B0FBF4F78C428CBF0A21112154
:101CF0004B1EB7FBF1F601FB1671DAB221B1022BD4
:101D00001946F5D8002032E0731EB3F5806FF9D282
:101D1000C2EBC20808F103014FEAE10EC1F3C701AB
:101D2000A2EB010C0EF101094FF47A735FFA8CF704
:101D30000EFB033E59FA8CFCBEFBFCFCBCF5617F3C
:101D400017DC1FFA8CF34A1C57FA82F27243B0FB7D
:101D5000F2F08442D6D14A1E0F2AD3D87A1E072A1F
:101D6000D0D801202B806E8028716971AF71BDE8D9
:101D7000F88308F1FF314FEAE10CC1F3C701521AB1
:101D80000CF1010ED7B20CFB03335EFA82F2B3FB07
:101D9000F2F39BB2D7E70846E9E700BF3F420F00E6
:101DA00030B50D4B0D4D05201C786C438C420ED187
:101DB0005978518099785171D97891711979117147
:101DC0005B7903EB83035B001380012030BD013896
:101DD00003F10603E8D1F9E7B847000840420F00D5
:101DE0000B4B10B54FF45472044600211846FFF710
:101DF0003DF9084BA3614033E361D8332362F033EC
:101E00006362E36A60610022C3F8C02010BD00BFB6
:101E100000A4004070A400402DE9F04F00F580556B
:101E20001F4695F85834012B89B0044689469046E0
:101E300004D90026304609B0BDE8F08F9A4A52F81E
:101E4000231009B942F823009848C4F80C9001788F
:101E5000277499B9302383F31188954B9A6D42F01A
:101E600000729A659A6B42F000729A639A6B22F044
:101E700000729A630123037081F3118895F851640D
:101E80007EB9302383F311880321152001F05CFE15
:101E90000321162001F058FE012385F8513486F302
:101EA0001188302383F31188E26A936923F01003C9
:101EB000936100F0D3FB8246E36A9E6916F0080640
:101EC00009D000F0CBFBA0EB0A03FA2BF4D90026D3
:101ED00086F31188AEE79A6942F001029A6100F038
:101EE000BDFB8246E36A9A69D00706D400F0B6FBD0
:101EF000A0EB0A03FA2BF5D9E9E79A6942F002024E
:101F00009A61E36A4FF0000AC3F854A08AF311887B
:101F1000686CFFF7ABFB04F5825B0BF1100B202222
:101F200000216846FFF7A2F802A8FFF70BFECDF8E4
:101F300018A06A460BEB06030DF1180E9446BCE898
:101F40000300F44518605960624603F10803F5D1B7
:101F5000DCF80000186020369CF804201A71B6F5F1
:101F6000806FDCD1002304F5A25285F8503485F847
:101F700053341A3249462046FFF7AAFE064690B966
:101F8000E26A936923F00103936100F067FB054661
:101F9000E36A9B69D9077FF54CAF00F05FFB431BF9
:101FA000FA2BF5D945E795F85E34C5F86C94591EBF
:101FB00095F85F34E26A013B1B0243EA416395F8FE
:101FC000601401390B43B5F85C14013943EA01434D
:101FD000D361B8F1000F36D004F5A3520232414666
:101FE0002046FFF7DDFE90B9E26A936923F0010312
:101FF000936100F033FB0546E36A9B69DA077FF5DE
:1020000018AF00F02BFB431BFA2BF5D911E795F81D
:102010006724C5F87084511E95F86824E36A013A74
:10202000120142EA012295F8661401390A43B5F813
:102030006414013942EA014242F40002DA60E36AC0
:102040004FF420629A642046FFF7CAFE002385F809
:102050005934E36A6FF040421A65E36A154A5A65DB
:10206000E36A44229A65E36A0722C3F8DC20E36A44
:1020700003229742DA653FF4DDAEE26A936923F00A
:102080000103936100F0EAFA0746E36A9B69DB0704
:1020900005D500F0E3FAC31BFA2BF6D9C9E60123F4
:1020A00085F85234C6E600BF283C00202C3C0020B6
:1020B000001002409B0008002DE9F04F054689B052
:1020C00090469946002741F2680A00F58056EB6A6F
:1020D000D3F8D430FB40D80751D505EB4712524412
:1020E0004FEA471B1379190749D4D6F884340133D2
:1020F000C6F8843405F5A553C3E9008913799A0617
:1021000048BFD6F8B43405EB0B0248BF0133524444
:1021100048BFC6F8B434137943F008031371DB07E2
:1021200022D596F85334FBB105F58254183468462D
:102130005C44FFF70DFD03AB04F1080C20686168F7
:102140001A4603C2083464451346F7D1206810606C
:10215000A2889A800123ADF808302B68CDE9008968
:10216000DB6B694628469847D6F8A834D6F854045D
:102170000133C6F8A83410B103681B6998470137CA
:10218000202FA4D109B0BDE8F08F00002DE9F04F59
:102190008DB004460F4600F063FA82468946002F50
:1021A00056D1E36AD3F89020920141BF04F58051E3
:1021B000D1F898240132C1F89824D3F8902016075A
:1021C00003D100200DB0BDE8F08FD3F89050E66940
:1021D000C5F30125482303FB0566E8464046FFF7A3
:1021E000B1FC326851004ABF22F06043C2F38A4317
:1021F00043F00043920048BF43F08043009373686C
:1022000013F400131FBF04F5805201238DF80D3025
:10221000D2F8B8340EBF8DF80D300133C2F8B8349F
:10222000F38803F00F038DF80C304FF0000B9DF88E
:102230000C0000F06FFA5FFA8BF3984220D9F21885
:102240000CA90B44127A03F82C2C0BF1010BEEE7CE
:10225000012FB6D1E36AD3F89820950141BF04F568
:102260008051D1F898240132C1F89824D3F89820ED
:102270001007A6D0D3F89850266AC5F30125A9E720
:10228000EFB9E36AC3F8945004A8FFF761FC98E83B
:102290000F0007AD07C52B800023ADF81830236869
:1022A0002046CDE904A9DB6B04A9984704F58054C6
:1022B00058B1D4F890340133C4F8903482E7012F38
:1022C00004BFE36AC3F89C50DEE7D4F894340133CA
:1022D000C4F89434012075E72DE9F04105460F4616
:1022E00000F58054012639462846FFF74FFF10B10C
:1022F00084F85364F7E7D4F8A834D4F854040133CD
:10230000C4F8A83420B10368BDE8F0411B69184740
:10231000BDE8F081F0B5C36A1A6C12F47F0F2BD0C0
:1023200000F580541B6CC4F8AC3441F268050023FE
:1023300047194FF0010C00EB43122A445E0111795A
:1023400011F0020F15D0490713D4B959C66AD6F84F
:10235000C8E00CFA01F111EA0E0F0AD0C6F8D0104D
:10236000117941F004011171D4F88C240132C4F8C0
:102370008C240133202BDED1F0BD000010B5254C9C
:10238000254B226802B338B31A6D12060ED580228F
:102390001A6500F065F950EA01020B4602D00138D7
:1023A00061F1000302462068FFF786FE1A4A136DAA
:1023B0001B032AD523684FF4002103F580531165D0
:1023C000012283F8592420E001221A6508221A65A7
:1023D0004FF480621A6510BD196DC80702D4196DDB
:1023E000890705D50321196510460021FFF774FF01
:1023F000094B1A6D100702D41A6DD10605D51822A3
:102400001A6520680121FFF767FF2068BDE81040CA
:10241000FFF780BF283C00200064004008B530234F
:1024200083F31188FFF776FF002383F3118808BD3B
:10243000C36AD3F8C40080F40010C0F34050704762
:1024400008B5302383F3118800F58050406CFFF706
:102450001FF9002383F3118843090CBF01200020DA
:1024600008BD000000F5805393F8592462B1C16A99
:102470008A6922F001028A61D3F89C240132C3F8F0
:102480009C24002283F85924704700002DE9F7436B
:10249000302181F3118800F582511031002541F27D
:1024A000680E4FF0010800F5805C00EB45147444A1
:1024B000267977071CD4F6061AD5D0F82C908E69A9
:1024C000D9F8C87008FA06F63E4211D04F68019755
:1024D0000F689742019F9F410AD2C9F8D0602679C0
:1024E00046F004062671DCF888440134CCF88844B0
:1024F0000135202D01F12001D7D1002383F311886C
:1025000003B0BDE8F0830000F8B51E460023137049
:102510000F4605461446FFF793FF80F00100387020
:102520001EB12846FFF784FF2070F8BD2DE9F04F5B
:1025300085B09946DDE90EA30D4602931378019309
:1025400091F800B08046164600F08AF82B780446D1
:102550000F4613B93378002B41D022463B46404604
:10256000FFF794FFFFF75AFFFFF77CFF4B46324619
:102570002946FFF7C9FF2B7833B1BBF1000F03D019
:10258000012005B0BDE8F08F337813B1019B002B1B
:10259000F6D108F580530393029B544577EB030370
:1025A0001DD2039BD3F85404C8B10368AAEB0401FD
:1025B0001B6898474B46324629464046FFF7A4FF22
:1025C0002B7813B1BBF1000FDAD1337813B1019B33
:1025D000002BD5D100F044F804460F46DCE700207C
:1025E000CFE7000008B50020FFF7C8FEBDE80840AF
:1025F00001F056B808B50120FFF7C0FEBDE808405D
:1026000001F04EB800B59BB0EFF30981682268462F
:10261000FEF71AFDEFF30583014B9B6BFEE700BF4E
:1026200000ED00E008B5FFF7EDFF000000B59BB03E
:10263000EFF3098168226846FEF706FDEFF3058394
:10264000014B5B6BFEE700BF00ED00E0FEE7000022
:102650000FB408B5029801F02BFBFEE701F00CBEA9
:1026600001F0EEBD13B56C4684E80600031D94E846
:10267000030083E80500012002B010BD73B5856832
:10268000019155B11B885B0707D4D0E900369B6BDD
:102690009847019AC1B23046A847012002B070BDE8
:1026A000F0B5866889B005460C465EB1BDF8383095
:1026B0005B070AD4D0E900379B6B98472246C1B22A
:1026C0003846B047012009B0F0BD00220023CDE913
:1026D00000230023ADF808300A4603AB01F10806D9
:1026E000106851681C4603C40832B2422346F7D131
:1026F000106820609288A280FFF7B2FF0423ADF833
:1027000008302B68CDE90001DB6B69462846984705
:10271000D8E70000082817D909280CD00A280CD0BF
:102720000B280CD00C280CD00D280CD00E2814BF70
:102730004020302070470C20704710207047142034
:102740007047182070472020704700002DE9F041A5
:10275000456A15B94162BDE8F0814B6823F06047D6
:10276000C3F38A464FEAD37EC3F3807816EA230682
:1027700038BF3E46AC462B465A68BEEBD27F22F0AD
:1027800060440AD0002A18DAA40CB44217D19D4242
:102790000FD10D60DEE71346EEE7A74207D102F046
:1027A0008044C2F3807242450BD054B1EFE708D2A7
:1027B000EDE7CCF800100B60CDE7B44201D0B44295
:1027C000E5D81A689C46002AE5D11960C3E70000E5
:1027D0002DE9F047089D01F007044FEAD50822448F
:1027E00005F0070500EBD1004FF47F49944201D179
:1027F000BDE8F08704F0070705F0070A57453E4695
:1028000038BF5646C6F10806111B8E4228BF0E4639
:10281000E10808EBD50E415C13F80EC0B94029FA67
:1028200006F721FA0AF1FFB28CEA010147FA0AF72A
:1028300039408CEA010C03F80EC034443544D5E726
:1028400080EA0120082341F2210201B24000002960
:1028500080B203F1FF33B8BF504013F0FF03F4D14F
:102860007047000038B50C468D18A54200D138BD20
:1028700014F8011BFFF7E4FFF7E7000042684AB1D4
:10288000136843604389818901339BB29942438134
:1028900038BF83811046704770B588B02022044647
:1028A0000D4668460021FEF7E1FB20460495FFF740
:1028B000E5FF024658B16B46054608AE1C4603CC00
:1028C000B44228606960234605F10805F6D1104638
:1028D00008B070BD082817D909280CD00A280CD0D8
:1028E0000B280CD00C280CD00D280CD00E2814BFAF
:1028F0004020302070470C20704710207047142073
:10290000704718207047202070470000082817D90A
:102910000C280CD910280CD914280CD918280CD93B
:1029200020280CD930288CBF0F200E20704709209A
:1029300070470A2070470B2070470C2070470D200D
:10294000704700002DE9F843078C072F04461ED975
:10295000D0E9029800254FF6FF73C5F12006A5F1D6
:10296000200029FA05F108FA06F628FA00F03143AA
:102970000143C9B21846FFF763FF0835402D0346EF
:10298000EBD1E1693A46BDE8F843FFF76BBF4FF67C
:10299000FF70BDE8F883000010B54B6823B9CA8A00
:1029A00063F30902CA8210BD04691A681C600361DE
:1029B000C38A013BC3824A60EFE700002DE9F84F6C
:1029C0001D46CB8A0F46C3F309010529814692466D
:1029D0000B4630D00020AAB207F11A049EB2042E92
:1029E0001FFA80F80FD8904503F1010306D3FB8A44
:1029F0000A4462F30903FB8201201AE01AF800601E
:102A0000E6540130EAE79045F1D2A1F1050B1C2311
:102A10007C68BBFBF3F203FB12BB1FFA8BF6002CA6
:102A200045D14846FFF72AFF044638B978606FF071
:102A30000200BDE8F88F4FF00008E6E700260660C8
:102A40007860ADB24FF0000B454510D90AEB080392
:102A5000221D13F8011B9155B1B208F101081B2981
:102A60001FFA88F82BD0454506F10106F1D8FB8AFC
:102A7000C3F30902154465F30903BCE7013292B2BE
:102A80001C462368002BF9D16B1F0B441C21B3FBA0
:102A9000F1F301339BB29A42D3D2BBF1000FD0D1F4
:102AA0004846FFF7EBFE20B9C4F800B0BFE70122AB
:102AB000E7E7C0F800B05E4620600446C1E7454540
:102AC000D5D94846FFF7DAFE08B92060AFE7C0F86D
:102AD00000B0002620600446B6E700002DE9F04F64
:102AE0002DED028B1C4683B05B6901920746884638
:102AF000002B00F09A80238C2BB1E269002A00F0B1
:102B00009480072B35D807F10C00FFF7B7FE054678
:102B100038B96FF00205284603B0BDEC028BBDE862
:102B2000F08F14220021FEF7A1FA228CE16905F151
:102B30000800FEF789FA208C013080B2FFF7E6FE2C
:102B4000FFF7C8FE013880B2208401302874636921
:102B5000228C1B782A4403F01F0363F03F0348F0E4
:102B600000411372384669602946FFF7EFFD0125E1
:102B7000D1E700F10C034FF0000908EE103A4FF0D6
:102B8000800A4E464D4618EE100AFFF777FE834640
:102B90000028BED014220021FEF768FA002E3AD198
:102BA000019BABF8083002220BF1080E1FFA82FCE1
:102BB0000CF10100BCF1060F218C80B201D88E42CD
:102BC0002BD3FFF7A3FEFFF785FE62691278013869
:102BD00002F01F028E4208BF4FF0400A42EA49123B
:102BE0001BFA80F14AEA020A013048F0004281F8FB
:102BF00008A08BF81000CBF8042059463846FFF7A0
:102C0000A5FD238C0135B3422DB289F001094FF0A7
:102C1000000AB8D17FE70022C6E7E169895D0EF8B6
:102C200002100136B6B20132C0E76FF0010572E75B
:102C3000F8B515460E463022002104461F46FEF721
:102C400015FA069B6360B5F5001F079BA76034BFAC
:102C50006A094FF6FF72A36297B2E66104F11000B1
:102C600000239A4206D800230360A782E3822383CD
:102C7000E360F8BD0660013330462036F1E700001E
:102C800003781BB94BB2002BC8BF0170704700001E
:102C900000787047F8B50C46C969074611B9238C0E
:102CA000002B37D1257E1F2D34D8387828BB228CB5
:102CB000072A2CD8268A36F003032BD14FF6FF7053
:102CC000FFF7D0FD20F001003102400441EA056128
:102CD000400C41EA40254FF6FF722346294638460C
:102CE000FFF7FCFE002807DD626913780133DBB2D1
:102CF0001F2B88BF00231370F8BD218A2D0645EADB
:102D0000012505432046FFF71DFE0246E5E76FF06B
:102D10000300F1E76FF00100EEE7000070B58AB044
:102D2000044616460021282268461D46FEF79EF9F5
:102D3000BDF83830ADF810300F9B05939DF840304A
:102D40008DF81830119B07936946BDF84830ADF8EF
:102D500020302046CDE90265FFF79CFF0AB070BD28
:102D60002DE9F041D36905460C4616460BB9138C84
:102D70005BBB377E1F2F28D895F80080B8F1000F75
:102D800026D03046FFF7DEFD3378210241EAC33119
:102D900041EA0801338A41EA076141EA03410246F8
:102DA000334641F080012846FFF798FE00280ADDEF
:102DB0003378012B07D1726913780133DBB21F2BF3
:102DC00088BF00231370BDE8F0816FF00100FAE7BF
:102DD0006FF00300F7E70000F0B58BB004460D4636
:102DE00017460021282268461E46FEF73FF99DF847
:102DF0004C305A1E534253418DF800309DF84030FC
:102E0000ADF81030119B05939DF848308DF81830BF
:102E1000149B07936A46BDF85430ADF8203029461C
:102E20002046CDE90276FFF79BFF0BB0F0BD000016
:102E3000406A00B104307047436A1A68426202690E
:102E40001A600361C38A013BC38270472DE9F041D8
:102E5000D0F82080194E14461D464146002709B976
:102E6000BDE8F081D1E90223A21A65EB0303964283
:102E700077EB03031ED2036A8B420DD1FFF78CFD63
:102E8000036A1B68036203690B60C38A0161016AFC
:102E9000013BC3828846E2E7FFF77EFD0B68C8F876
:102EA000003003690B60C38A0161013BC382D8F81B
:102EB0000010D4E788460968D1E700BF80841E006F
:102EC0002DE9F04F8BB00D46DDF8509014469B462F
:102ED0008046002800F01981B9F1000F00F015813B
:102EE000531E3F2B00F21181012A03D1BBF1000FC9
:102EF00040F00B810023CDE90833B8F81430B5EB6E
:102F0000C30F4FEAC30703D300200BB0BDE8F08F17
:102F10002B199F42D8F80C303ABF7F1BFFB22746CF
:102F20001BB9D8F81030002B7AD0272D4ED8C5F118
:102F30002806B7424FF000032CBFF6B23E4600937E
:102F40002946D8F8080008AB3246FFF741FCA7EB4A
:102F5000060A35445FFA8AFAB8F8143003F10053D0
:102F6000053BDB000493D8F80C3003932821039B26
:102F700013B1BAF1000F2CD1D8F8100040B1BAF15A
:102F8000000F05D0009608AB5246691AFFF720FCE7
:102F900038B2002FB8D066070AD00AAB03EBD401D1
:102FA000624211F8083C02F00702134101F8083CA4
:102FB000082C3CD9102C40F2B580202C40F2B78070
:102FC000BBF1000F00F09C80082334E0BA460026D5
:102FD000C2E7049BE02B28BFE02306930B44AB42DF
:102FE000059314D95A1B03980096924534BF524654
:102FF000D2B2691A08AB04300792FFF7E9FB079ACF
:103000001644AAEB020A1544F6B25FFA8AFA049B48
:10301000069A05999B1A0493039B1B680393A6E7E2
:103020000093D8F8080008AB3A462946AEE7BBF152
:10303000000F13D00123B4EBC30F6CD0082C12D8AF
:103040009DF82030621E23FA02F2D50706D54FF014
:10305000FF3202FA04F423438DF820309DF820302B
:1030600089F8003051E7102C12D8BDF82030621ECC
:1030700023FA02F2D10706D54FF0FF3202FA04F428
:103080002343ADF82030BDF82030A9F800303CE7EC
:10309000202C0FD80899631E21FA03F3DA0705D50F
:1030A0004FF0FF3202FA04F40C430894089BC9F86D
:1030B00000302AE7402C2BD0DDE90865611EC4F101
:1030C0002102A4F1210326FA01F105FA02F225FA00
:1030D00003F311431943CB0712D50122A4F12003B6
:1030E000C4F1200102FA03F322FA01F1A240524294
:1030F00043EA010363EB430332432B43CDE9082347
:10310000DDE90823C9E90023FFE66FF00100FCE6D2
:103110006FF00800F9E6082CA0D9102CB3D9202CA8
:10312000EED8C3E7BBF1000FADD0022383E7BBF1BC
:10313000000FBBD004237EE730B5012A144638BF08
:103140000124402C85B028BF40240025012ACDE968
:10315000025518D81B788DF8083063070AD004ABE5
:1031600003EBD405624215F8083C02F007029340D5
:1031700005F8083C009103462246002102A8FFF70B
:1031800027FB05B030BD082AE4D9102A03D81B88D4
:10319000ADF80830E1E7202A8DBFD3E900231B6892
:1031A0000293CDE90223D8E710B5CB681BB98B6039
:1031B0000B618B8210BD04691A681C600361C38AAD
:1031C000013BC382CA60F0E703064CBFC0F3C030C6
:1031D0000220704708B50246FFF7F6FF022806D125
:1031E0005306C2F30F2001D100F0030008BDC2F363
:1031F0000740FBE72DE9F04F93B0CDE903230A68C0
:1032000004461046FFF7E0FF022814BFC2F306266B
:103210000026002A0D46824680F2F78112F0C0494E
:1032200040F0F381097B002900F0EF81022803D0F0
:103230002378B34240F0EC81C2F304630693104656
:1032400002F07F030593FFF7C5FF059B29444FEA72
:10325000834848EA0A4848EA4668CE7800230022B4
:10326000CDE90823F309834648EA0008029367D0B2
:10327000059B009302466768534608A92046B84755
:10328000002800F0C881276A4FB9414604F10C00BC
:10329000FFF702FB074690B96FF0020054E03B696C
:1032A00098450DD03F68002FF9D1414604F10C003C
:1032B000FFF7F2FA07460028EED0236A3B60276248
:1032C00097F817C006F01F08CCF3840CACEB08008D
:1032D0001FFA80FE0028B8BF0EF12000A8EB0C03F7
:1032E0001FFA83FED7E90221B8BF00B2002B079373
:1032F000BEBF0EF120031BB2079352EA010338D080
:10330000039BDFF824E39A1A049B4FF0000C63EB55
:10331000010196457CEB01032BD36B7B97F81AE0F8
:10332000734519D1029B002B78D0012821DC7868E5
:10333000F8B9DFF8F0C2944570EB010316D337E01B
:10334000276A27B96FF00C0013B0BDE8F08F3B6916
:103350009845B5D03F68F4E7B24890427CEB010352
:1033600001D30020F0E7029B002BFAD0079B0F2B24
:1033700017DCFA7DB30002F0030203F07C03134371
:10338000FB7539462046FFF707FB6B7BBB76029B3C
:103390003BB9FB7DC3F38402013262F38603FB7504
:1033A000D0E76A7BBB7E9A42DBD1029B002B35D0F3
:1033B000B309022B32D0039BBB60049BFB60142239
:1033C00000210DA8FDF752FE039B0A93049B0B936B
:1033D0002B1D0C932B7BADF83EB0013BDBB2ADF85F
:1033E0003C30069B8DF84230059B8DF8433094F8B5
:1033F0002C308DF840A083F001038DF844308DF817
:103400004180A3680AA920469847FB7DC3F3840343
:10341000013303F01F039B02FB82A2E7FB7DC6F38F
:103420004012B2EBD31F40F0F980C3F3840343454D
:1034300040F0FC80029A2B7BB609002A52D016F08D
:10344000010661D1032B40F2F480039BBB60049B17
:10345000FB60FB8A66F30903FB822B7BAE1D033BFB
:10346000DBB23246394604F10C00FFF7A7FA002818
:103470000CDA39462046FFF78FFAFB7DC3F384034D
:10348000013303F01F039B02FB8205E7DDE908849B
:10349000AB883B834FF6FF73C9F12000A9F12002EE
:1034A00028FA09F104FA00F0014324FA02F2114368
:1034B0001846C9B2FFF7C4F909F10809B9F1400F7C
:1034C0000346E9D1B8822A7B033AD2B23146FFF7EC
:1034D000C9F9FB7DB882DA43C2F3C01262F3C713A5
:1034E000FB753EE786B92E1D013BDBB232463946FD
:1034F00004F10C00FFF762FA0028BADB2A7BB88AD5
:10350000013AD2B23146E2E7F98AC1F30901013B3F
:103510000429DAB25BD8281D002307F11B069A4262
:1035200008D910F801CB06F801C001310133052993
:10353000DBB2F4D103990A9104990B91934207F1FC
:103540001B010C9138BF043379680D9134BF55FAD3
:1035500083F300230E93FB8AADF83EB0C3F3090357
:103560001A44069B8DF84230059B8DF8433094F841
:103570002C30ADF83C2083F001038DF8443000235B
:103580008DF840A08DF841807B602A7BB88A013A93
:10359000291DFFF767F93B8BB882834203D1A368EB
:1035A0000AA92046984720460AA9FFF7FDFDFB7DA2
:1035B000BA8AC3F38403013303F01F039B02FB8227
:1035C0003B8B9A420CBF00206FF01000BCE67B687A
:1035D000002BAFD0052001E01C3033461E68002EC2
:1035E000FAD1091A081D2E1D184401EB090CBCF173
:1035F0001B0F5FFA89F39DD89A429BD916F8013BBD
:1036000000F8013B09F10109EFE76FF009009BE6C3
:103610006FF00A0098E66FF00B0095E66FF00D0072
:1036200092E600BF40420F0080841E006FF00E0043
:103630008AE66FF00F0087E6EFF3098305494A6BCE
:1036400022F001024A63683383F30988002383F37D
:103650001188704700EF00E0302080F3118862B6D7
:103660000C4B0D4AD96821F4E0610904090C0A43A6
:10367000DA60D3F8FC20094942F08072C3F8FC20DC
:103680000A6842F001020A602022DA7783F82200F9
:10369000704700BF00ED00E00003FA05001000E0F5
:1036A00010B5302383F311880E4B5B6813F400636D
:1036B00014D0F1EE103AEFF30984683C4FF08073B8
:1036C000E361094BDB6B236684F3098800F0BAFAE7
:1036D00010B1064BA36110BD054BFBE783F31188C6
:1036E000F9E700BF00ED00E000EF00E03F03000855
:1036F00042030008434B4FF4007270B51A605A69D8
:1037000012F4C06FFBD1404B9A6802F00C02042AFD
:1037100020D01A6842F480721A601A685205FCD5EB
:1037200001229A609A6802F00C02042AFAD1374901
:10373000374A0A600A6812F00F02FBD1C3F89820DA
:1037400063221A601A689603FCD42E4A4FF48071E3
:10375000C2F88010C468E50306D51A6842F48032C6
:103760001A601A689103FCD5C269D20709D5D3F84B
:10377000982042F00102C3F89820D3F898209607C9
:10378000FBD54269DA6044F480721A6004F08071FB
:1037900011B11A689501FBD5996802691B4E22F098
:1037A000030501F00301294399608569356031689B
:1037B00069400907FBD1134905680D6046684E60F2
:1037C0008068C1F880006E0417D448698505FCD470
:1037D000996802F0030021F003010143996092000F
:1037E0009968514011F00C0FFAD1E2055EBF1A68DA
:1037F00022F480721A60002070BD48698005FCD5F3
:10380000E6E700BF007000400010024000200240C8
:103810000006040008B500F083F9BDE8084000F098
:103820005BB9000010B5394C3948A36A4FF0FF323C
:10383000A262A36A0023A362A16AE16A61F07F0128
:10384000E162E16A01F07F01E162E16A216B2263DA
:10385000216B2363216BA16BA263A16BA363A16B9B
:10386000E16BE263E16BE363E16B216C2264226C48
:103870002364226C226E42F001022266D4F880207A
:1038800022F00102C4F88020D4F88020A26D42F01A
:103890008052A265A26F22F08052A267A26F1D4AD9
:1038A0004FF400419160D360136253629362D3621C
:1038B000136353639363D363136453649364D36454
:1038C00013655365116841F480711160D4F890203C
:1038D00012F4407F1EBF4FF48032C4F89020C4F829
:1038E00090300D4A0023A360C4F88820C4F89C30AF
:1038F000FFF700FF10B1094800F0DAF9D4F8903072
:1039000023F00323C4F8903010BD00BF0010024024
:10391000E04700080070004055010051D8470008FA
:10392000014B53F82000704718110020074A08B5D2
:10393000536903F00103536123B1054A13680BB1C6
:1039400050689847BDE80840FFF7AABE0004014050
:10395000843E0020074A08B5536903F0020353610F
:1039600023B1054A93680BB1D0689847BDE8084079
:10397000FFF796BE00040140843E0020074A08B5C8
:10398000536903F00403536123B1054A13690BB172
:1039900050699847BDE80840FFF782BE0004014027
:1039A000843E0020074A08B5536903F008035361B9
:1039B00023B1054A93690BB1D0699847BDE8084027
:1039C000FFF76EBE00040140843E0020074A08B5A0
:1039D000536903F01003536123B1054A136A0BB115
:1039E000506A9847BDE80840FFF75ABE00040140FE
:1039F000843E0020164B10B55C6904F478725A615D
:103A0000A30604D5134A936A0BB1D06A984760069F
:103A100004D5104A136B0BB1506B9847210604D59F
:103A20000C4A936B0BB1D06B9847E20504D5094A59
:103A3000136C0BB1506C9847A30504D5054A936CE1
:103A40000BB1D06C9847BDE81040FFF729BE00BF0E
:103A500000040140843E0020194B10B55C6904F459
:103A60007C425A61620504D5164A136D0BB1506D44
:103A70009847230504D5134A936D0BB1D06D984731
:103A8000E00404D50F4A136E0BB1506E9847A104A1
:103A900004D50C4A936E0BB1D06E9847620404D5DE
:103AA000084A136F0BB1506F9847230404D5054A99
:103AB000936F0BB1D06F9847BDE81040FFF7F0BD92
:103AC00000040140843E002008B500F0F3FCBDE88E
:103AD0000840FFF7E5BD0000062108B5084600F0E4
:103AE00033F80621072000F02FF80621082000F007
:103AF0002BF80621092000F027F806210A2000F003
:103B000023F80621172000F01FF80621282000F0D6
:103B10001BF8BDE8084007211C2000F015B8000084
:103B20004FF0E023002258684FF0FF31930003F17B
:103B3000604303F5614301329042C3F88010C3F83B
:103B40008011F3D27047000000F1604303F5614338
:103B50000901C9B283F80013012200F01F039A4043
:103B600043099B0003F1604303F56143C3F88021DF
:103B70001A60704700230375826803691B6899689F
:103B80009142FBD25A6803604260106058607047EF
:103B900000230375826803691B6899689142FBD80A
:103BA0005A680360426010605860704708B5084664
:103BB000302383F311880B7D032B05D0042B0DD00C
:103BC0002BB983F3118808BD8B6900221A604FF06E
:103BD000FF338361FFF7CEFF0023F2E7D1E9003224
:103BE00013605A60F3E70000FFF7C4BF054BD968C4
:103BF0000875186802681A60536001220275D8605F
:103C0000FCF788BB383C002030B50C4BDD684B1C02
:103C100087B004460FD02B46094A684600F02AF9BF
:103C20002046FFF7E3FF009B13B1684600F02CF934
:103C3000A86907B030BDFFF7D9FFF9E7383C00208D
:103C4000AD3B0008044B1A68DB6890689B6898429B
:103C500094BF002001207047383C0020084B10B56D
:103C60001C68D86822681A60536001222275DC60E3
:103C7000FFF78EFF01462046BDE81040FCF74ABB27
:103C8000383C002038B5074C074908480123002577
:103C90002370656000F03CFC0223237085F31188DB
:103CA00038BD00BF603E002004480008383C0020BA
:103CB00008B572B6044B186500F0ACFA00F05CFB76
:103CC000024B03221A70FEE7383C0020603E0020C1
:103CD00000F010B98B60022308618B8208467047A0
:103CE0008368A3F1840243F8142C026943F8442C3E
:103CF000426943F8402C094A43F8242CC26843F82F
:103D0000182C022203F80C2C002203F80B2C044A76
:103D100043F8102CA3F12000704700BF2D030008CA
:103D2000383C002008B5FFF7DBFFBDE80840FFF78F
:103D30005BBF0000024BDB6898610F20FFF756BFA6
:103D4000383C0020302383F31188FFF7F3BF0000D5
:103D500008B50146302383F311880820FFF754FF8C
:103D6000002383F3118808BD10B503689C68A24244
:103D70000CD85C688A600B604C602160596099685F
:103D80008A1A9A604FF0FF33836010BD1B68121BC4
:103D9000ECE700000A2938BF0A2170B504460D4639
:103DA0000A26601900F0AEFB00F09AFB041BA54246
:103DB00003D8751C2E460446F3E70A2E04D9BDE845
:103DC0007040012000F0E4BB70BD0000F8B5144B5A
:103DD0000D46D96103F1100141600A2A1969826018
:103DE00038BF0A22016048601861A818144600F024
:103DF0007BFB0A2700F074FB431BA342064606D355
:103E00007C1C281900F07EFB27463546F2E70A2F76
:103E100004D9BDE8F840012000F0BABBF8BD00BFEE
:103E2000383C0020F8B506460D4600F059FB0F4A15
:103E3000134653F8107F9F4206D12A46014630466A
:103E4000BDE8F840FFF7C2BFD169BB68441A2C191E
:103E500028BF2C46A34202D92946FFF79BFF2246E2
:103E600031460348BDE8F840FFF77EBF383C0020EC
:103E7000483C002010B4C0E9032300235DF8044B44
:103E80004361FFF7CFBF000010B5194C236998427A
:103E90000DD0D0E90032816813605A609A680A44F4
:103EA0009A60002303604FF0FF33A36110BD2346E7
:103EB000026843F8102F53600022026022699A4280
:103EC00003D1BDE8104000F017BB936881680B4434
:103ED000936000F005FB2269E1699268441AA242EE
:103EE000E4D91144BDE81040091AFFF753BF00BFE1
:103EF000383C00202DE9F047DFF8BC8008F11007BE
:103F00002C4ED8F8105000F0EBFAD8F81C40AA68F4
:103F1000031B9A423ED81444D5E900324FF0000901
:103F2000C8F81C4013605A60C5F80090D8F81030EB
:103F3000B34201D100F0E0FA89F31188D5E90331E9
:103F400028469847302383F311886B69002BD8D01B
:103F500000F0C6FA6A69A0EB04094A4582460DD210
:103F6000022000F015FB0022D8F81030B34208D12F
:103F700051462846BDE8F047FFF728BF121A2244F1
:103F8000F2E712EB090938BF4A4629463846FFF7DF
:103F9000EBFEB5E7D8F81030B34208D01444211A2C
:103FA000C8F81C00A960BDE8F047FFF7F3BEBDE804
:103FB000F08700BF483C0020383C002038B500F0B6
:103FC0008FFA054AD2E90845031B181945F100018B
:103FD000C2E9080138BD00BF383C0020002070470E
:103FE000FEE70000704700004FF0FF307047000010
:103FF000BFF34F8F024A1369DB03FCD4704700BF45
:104000000020024008B5094B1B7873B9FFF7F0FF99
:10401000074B5A69002ABFBF064A9A6002F18832EC
:104020009A601A6822F480621A6008BD783E002007
:10403000002002402301674508B50B4B1B7893B95C
:10404000FFF7D6FF094B5A6942F000425A611A68DD
:1040500042F480521A601A6822F480521A601A6878
:1040600042F480621A6008BD783E002000200240C1
:104070003F289ABF00F58030C00200207047000042
:104080004FF4006070470000402070473F2808B59B
:104090000BD8FFF7EDFF00F500630268013204D191
:1040A00004308342F9D1012008BD0020FCE7000064
:1040B0003F2810B504461FD8FFF79AFFFFF7A2FF6D
:1040C0000E4BF3221A6102225A615A6942EAC00277
:1040D0005A615A6942F480325A61FFF789FF4FF4FE
:1040E0000061FFF7C5FF00F043F9FFF7A5FF204689
:1040F000BDE81040FFF7CABF002010BD00200240FD
:104100002DE9F84340EA020313F00703144606D0F2
:10411000304B40F241321A600020BDE8F883851828
:104120002D4A95420CD92B4A40F246311160F3E7F3
:10413000031D1B684A68934208D1083C08300831C7
:10414000072C14D902680B689A42F1D0FFF75AFF86
:10415000FFF74EFF214E08314FF001084FF00009E4
:10416000012CA1F1080706D8FFF766FF01E0002C3B
:10417000ECD10120D1E7C6F81480054651F8083C7F
:1041800045F8043B51F8043C4360FFF731FF3369C5
:1041900043F001033361C6F81490026851F8083CFB
:1041A0009A420CD00B4B40F26E321A600C4B1860E6
:1041B0000C4B1C600C4B1F60FFF73EFFACE72D68FB
:1041C00051F8043C9D4201F10801EBD1083C083054
:1041D000C6E700BF743E0020000002080020024035
:1041E000683E0020703E00206C3E0020084908B563
:1041F0000B7828B11BB9FFF705FF01230B7008BD31
:10420000002BFCD0BDE808400870FFF715BF00BFC9
:10421000783E002008B50649064800F0ABF8BDE836
:1042200008404FF400414FF0805000F0A3B800BFA9
:10423000007F010000010020084600F035BA0000B0
:1042400038B5EFF311859DB9EFF30584C4F3080485
:10425000302334B183F31188FFF7B0FE85F3118862
:1042600038BD83F31188FFF7A9FE84F3118838BDA8
:10427000BDE83840FFF7A2BE38B5FFF7E1FF114CAB
:10428000114AC00840EA4170A0FB025EC908A0FBC9
:10429000040C1CEB050CA1FB04404FF000035B4138
:1042A000A1FB02121CEB040C43EB000011EB0E010E
:1042B00042F10002411842F10000090941EA007090
:1042C00038BD00BFCFF753E3A59BC4200244D2B250
:1042D000904200D17047431C800000F1804000F5FF
:1042E0001450006841F8040BD8B2F1E7124B10B536
:1042F000D3F89040240409D4D3F89040C3F89040F8
:10430000D3F8904044F40044C3F890400B4C236829
:10431000024443F480732360D2B2904200D110BDB6
:10432000431C800000F1804000F5145051F8044B0C
:104330000460D8B2F1E700BF0010024000700040F6
:1043400007B5012201A90020FFF7C0FF019803B0C3
:104350005DF804FB13B50446FFF7F2FFA04205D059
:10436000012201A900200194FFF7C0FF02B010BD97
:10437000704700007047000070470000074B45F28F
:1043800055521A6002225A6040F6FF729A604CF64B
:10439000CC421A60024B01221A7070470030004074
:1043A000803E0020034B1B781BB1034B4AF6AA2228
:1043B0001A607047803E002000300040054B1A68AC
:1043C00032B902F1804202F50432D2F894201A6028
:1043D000704700BF7C3E0020024B4FF40002C3F840
:1043E000942070470010024008B5FFF7E7FF024B2A
:1043F0001868C0F3407008BD7C3E00207047000084
:10440000FEE700000A4B0B480B4A90420BD30B4BC4
:10441000DA1C121AC11E22F003028B4238BF00229E
:104420000021FCF723BE53F8041B40F8041BECE703
:1044300084490008043F0020043F0020043F00207E
:104440000023054A19460133102BC2E9001102F17D
:104450000802F8D1704700BF843E002008B5124B17
:104460009A6D42F001029A659A6F42F001029A67D2
:104470000E4A9B6F936843F0010393600620FFF799
:104480004FFA0B4BB0FBF3F04FF080434FF0FF328D
:1044900001389862DA6200229A615A63DA605A60DF
:1044A00001225A611A6008BD00100240002004E099
:1044B00040420F004FF0804208B51169D3680B40AD
:1044C000D9B2C9439B07116107D5302383F3118803
:1044D000FFF7FEFB002383F3118808BDFFF7BEBF83
:1044E0004FF08043586A70474FF080430022586372
:1044F0001A610222DA6070474FF080430022DA60CE
:10450000704700004FF0804358637047FEE700009B
:1045100070B51B4B01630025044686B05860856268
:104520000E46FFF799F804F11003C4E904334FF085
:10453000FF33C4E90635C4E90044A560E562FFF72E
:10454000CFFF2B460246C4E9082304F134010D4A8B
:10455000256580232046FFF7BDFB0123E0600A4A62
:104560000375009272680192B268CDE90223074B8D
:104570006846CDE90435FFF7D5FB06B070BD00BF36
:10458000603E002010480008154800080D4500084E
:10459000024AD36A1843D062704700BF383C0020FB
:1045A0004B6843608B688360CB68C3600B69436171
:1045B0004B6903628B6943620B68036070470000BC
:1045C00008B5204BDA6A42F07F02DA62DA6A22F03A
:1045D0007F02DA62DA6ADA6C42F07F02DA64DA6E5B
:1045E00042F07F02DA66184ADB6E11464FF09040C7
:1045F000FFF7D6FF02F11C0100F58060FFF7D0FF46
:1046000002F1380100F58060FFF7CAFF02F15401A2
:1046100000F58060FFF7C4FF02F1700100F58060D3
:10462000FFF7BEFF02F18C0100F58060FFF7B8FFD5
:1046300002F1A80100F58060FFF7B2FFBDE8084075
:10464000FFF7F0B8001002401C48000808B500F061
:1046500009F8FFF717FBBDE80840FFF7AFBE000001
:104660007047000008B5FFF7D5F8FFF7E9FEFFF740
:10467000F7FFBDE80840FFF731BF00000B460146D9
:10468000184600F003B8000000F00EB810B5054C55
:1046900013462CB10A4601460220AFF3008010BD3C
:1046A0002046FCE700000000024B01461868FFF7B7
:1046B000C3BD00BF4011002010B501390244904233
:1046C00001D1002005E0037811F8014FA34201D089
:1046D000181B10BD0130F2E72DE9F041A3B1C91A52
:1046E00017780144044603F1FF3C8C42204601D96F
:1046F000002009E00578BD4204F10104F5D10CEB7E
:104700000405D618A54201D1BDE8F08115F8018D48
:1047100016F801EDF045F5D0E7E70000034611F883
:10472000012B03F8012B002AF9D170476F72672E15
:104730006172647570696C6F742E3344522D4D3103
:10474000303134340000000040A2E4F16468910686
:104750000041A3E5F2656992070000004261642010
:1047600043414E496661636520696E6465782E0039
:104770000000000000000000191E0008D118000809
:104780002D25000841190008851900086D1B000837
:104790004D190008091900080D190008E51800084E
:1047A000CD180008291B0008F1180008652600082C
:1047B000FD180008FD1A000801040E05054B020251
:1047C0000E05054B04010E05054B05010B04044BBA
:1047D0000801060303460000636C6B7377630000F7
:1047E00000030000000000000001000000000101C3
:1047F0000300000023283101040704000100000029
:104800006330000000480008903C0020603E00201B
:104810006D61696E0069646C650000000000802AAB
:1048200000000000AAAAAAAA00000024FFFF0000BE
:1048300000000000009009000000000100000000DE
:10484000AAAAAAAA00000001FFFF000000000000C1
:10485000000000000000004400000000AAAAAAAA6C
:1048600000000040FFDF000000000000000000002A
:104870000000000000000000AAAAAAAA0000000090
:10488000FFFF00000000000000000000000000002A
:1048900000000000AAAAAAAA00000000FFFF000072
:1048A0000000000000000000000000000000000008
:1048B000AAAAAAAA00000000FFFF00000000000052
:1048C000000000000000000000000000AAAAAAAA40
:1048D00000000000FFFF00000000000000000000DA
:1048E00062040000000000000090010000000000D1
:1048F000FE2A0100D2040000006889096D8BB9020C
:1049000000B4C4040068890900688909006889093D
:1049100000688909006889090068890900000000A9
:104920004411002000000000000000000000000012
:104930000000000000000000000000000000000077
:104940000000000000000000000000000000000067
:104950000000000000000000000000000000000057
:104960000000000000000000000000000000000047
:104970000000000000000000000000000000000037
:044980000000000033
:00000001FF
