:020000040800F2
:1000000000090020F504000801250008B9240008B3
:10001000E1240008B9240008D9240008F7040008E6
:10002000F7040008F7040008F7040008E5340008A6
:10003000F7040008F7040008F7040008F7040008B4
:10004000F7040008F7040008F7040008F7040008A4
:10005000F7040008F70400087D420008A5420008E4
:10006000CD420008F54200081D430008F7040008CF
:10007000F7040008F7040008F7040008F704000874
:10008000F7040008F7040008F7040008F704000864
:10009000F704000899240008A92400084543000833
:1000A000F7040008F7040008F7040008F704000844
:1000B00019440008F7040008F7040008F7040008D2
:1000C000F7040008F7040008F7040008F704000824
:1000D000F7040008F7040008F7040008F704000814
:1000E000A9430008F7040008F7040008F704000813
:1000F000F7040008F7040008F7040008F7040008F4
:10010000F7040008F7040008F7040008F7040008E3
:10011000F7040008F7040008F7040008F7040008D3
:10012000F7040008F7040008F7040008F7040008C3
:10013000F7040008F7040008F7040008F7040008B3
:10014000F7040008F7040008F7040008F7040008A3
:10015000F7040008F7040008F7040008F704000893
:10016000F7040008F7040008F7040008F704000883
:10017000F7040008F7040008F7040008F704000873
:10018000F7040008F7040008F7040008F704000863
:10019000F7040008F7040008F7040008F704000853
:1001A000F7040008F7040008F7040008F704000843
:1001B000F7040008F7040008F7040008F704000833
:1001C000F7040008F7040008F7040008F704000823
:1001D000F7040008F7040008F7040008F704000813
:1001E000DD1000080000000000000000000000001A
:1001F00053B94AB9002908BF00281CBF4FF0FF318E
:100200004FF0FF3000F074B9ADF1080C6DE904CE89
:1002100000F006F8DDF804E0DDE9022304B07047E1
:100220002DE9F047089D04468E46002B4DD18A42A9
:10023000944669D9B2FA82F252B101FA02F3C2F1DC
:10024000200120FA01F10CFA02FC41EA030E94406D
:100250004FEA1C48210CBEFBF8F61FFA8CF708FB8E
:1002600016E341EA034306FB07F199420AD91CEB66
:10027000030306F1FF3080F01F81994240F21C8198
:10028000023E63445B1AA4B2B3FBF8F008FB1033E0
:1002900044EA034400FB07F7A7420AD91CEB040415
:1002A00000F1FF3380F00A81A74240F207816444E5
:1002B000023840EA0640E41B00261DB1D44000236A
:1002C000C5E900433146BDE8F0878B4209D9002DCE
:1002D00000F0EF800026C5E9000130463146BDE858
:1002E000F087B3FA83F6002E4AD18B4202D38242C2
:1002F00000F2F980841A61EB030301209E46002D71
:10030000E0D0C5E9004EDDE702B9FFDEB2FA82F2C5
:10031000002A40F09280A1EB0C014FEA1C471FFA23
:100320008CFE0126200CB1FBF7F307FB131140EA0A
:1003300001410EFB03F0884208D91CEB010103F1D7
:10034000FF3802D2884200F2CB804346091AA4B299
:10035000B1FBF7F007FB101144EA01440EFB00FE6D
:10036000A64508D91CEB040400F1FF3102D2A645D2
:1003700000F2BB800846A4EB0E0440EA03409CE771
:10038000C6F12007B34022FA07FC4CEA030C20FA1E
:1003900007F401FA06F31C43F9404FEA1C4900FA3E
:1003A00006F3B1FBF9F8200C1FFA8CFE09FB1811BB
:1003B00040EA014108FB0EF0884202FA06F20BD92E
:1003C0001CEB010108F1FF3A80F08880884240F27E
:1003D0008580A8F102086144091AA4B2B1FBF9F0C2
:1003E00009FB101144EA014100FB0EFE8E4508D9BD
:1003F0001CEB010100F1FF346CD28E456AD9023842
:10040000614440EA0840A0FB0294A1EB0E01A14226
:10041000C846A64656D353D05DB1B3EB080261EB94
:100420000E0101FA07F722FA06F3F1401F43C5E96E
:10043000007100263146BDE8F087C2F12003D840A4
:100440000CFA02FC21FA03F3914001434FEA1C47E6
:100450001FFA8CFEB3FBF7F007FB10360B0C43EAD8
:10046000064300FB0EF69E4204FA02F408D91CEB88
:10047000030300F1FF382FD29E422DD90238634486
:100480009B1B89B2B3FBF7F607FB163341EA034126
:1004900006FB0EF38B4208D91CEB010106F1FF3875
:1004A00016D28B4214D9023E6144C91A46EA00466C
:1004B00038E72E46284605E70646E3E61846F8E6FE
:1004C0004B45A9D2B9EB020864EB0C0E0138A3E747
:1004D0004646EAE7204694E74046D1E7D0467BE728
:1004E000023B614432E7304609E76444023842E7A0
:1004F000704700BF02E000F000F8FEE772B6374830
:1005000080F30888364880F3098836483649086001
:1005100040F20000CCF200004EF63471CEF2000141
:100520000860BFF34F8FBFF36F8F40F20000C0F23F
:10053000F0004EF68851CEF200010860BFF34F8FF5
:10054000BFF36F8F4FF00000E1EE100A4EF63C71E2
:10055000CEF200010860062080F31488BFF36F8F8D
:1005600003F0BCFC03F04EFD4FF055301F491B4A11
:1005700091423CBF41F8040BFAE71D49184A9142E9
:100580003CBF41F8040BFAE71A491B4A1B4B9A423D
:100590003EBF51F8040B42F8040BF8E7002018495D
:1005A000184A91423CBF41F8040BFAE703F09AFC69
:1005B00003F06EFD144C154DAC4203DA54F8041BE5
:1005C0008847F9E700F042F8114C124DAC4203DACB
:1005D00054F8041B8847F9E703F082BC00090020A7
:1005E000001100200000000808ED00E000010020DC
:1005F00000090020C8460008001100207C110020DE
:1006000080110020883A0020E0010008E401000881
:10061000E4010008E40100082DE9F04F2DED108AF7
:10062000C1F80CD0C3689D46BDEC108ABDE8F08FC0
:10063000002383F311882846A047002003F0E8F840
:10064000FEE703F04BF800DFFEE70000F8B500F02E
:1006500057FD03F0E5FB074603F036FC0546D0BB2B
:10066000294B9F4237D001339F4237D0274B27F089
:10067000FF029A4235D1F8B200F082FB2E4642F2D8
:10068000107400F083FB08B10024264600F006FF3A
:1006900058B3032000F03EF80024264635B11C4B29
:1006A0009F4203D003F008FC00242646002003F0FC
:1006B000C1FB0EB100F044F800F08CFB00F022FD0D
:1006C00001F026FF0546B4B900F0CCFB4FF47A7078
:1006D00003F0A4F8F7E72E460024D2E704460126EB
:1006E000CFE706464FF47A74CBE7002CD6D04FF410
:1006F0007A740126D2E701F00BFF431BA342E3D932
:1007000000F01EF8DCE700BF010007B0000008B0F1
:10071000263A09B0084B187003280CD8DFE800F01F
:1007200008050208022000F041BD022000F036BD9D
:10073000024B00225A607047801100208411002073
:1007400038B500F0ABFE30B1254B03221A70254BB3
:1007500000225A6038BD244B244A19680131F9D06F
:1007600004339342F9D1224C1F4DD4F80428AA42F5
:10077000F0D3204B9B6803F1006303F5D0439A420A
:10078000E8D203F06BFB03F07DFB002000F0D4FC0B
:100790000220FFF7BFFF184B9A6D00229A65996FF0
:1007A0009A67996FD96DDA65D96FDA67D96F196E63
:1007B0001A66D3F88010C3F88020D3F8803072B660
:1007C0004FF0E0233021C3F8085DD4F80038D4F8A6
:1007D000042881F311889D4683F308881047B9E700
:1007E00080110020841100200068000820680008A3
:1007F000006000080011002000100240094A136840
:1008000049F2690099B21B0C00FB01331360064BDF
:10081000186844F2506182B2000C01FB02001860BB
:1008200080B27047141100201011002010B5002173
:100830001022044600F0D6FC034B03CB206061601D
:100840001868A06010BD00BF9075FF1F2DE9F04132
:10085000ADF54E7D0DF134086CAC40F275120746D3
:100860000D460EA80021C8F8001000F0BBFC4FF4A4
:10087000C4720021204600F0B5FC01F049FE254B72
:100880004FF47A72B0FBF2F0186093E8070001238E
:1008900084E807000DF5E9702382FFF7C7FF46F2F1
:1008A00004131D49238406A803F04CFE182384F882
:1008B00032310DF2E3266B440DF1300C1A4603CAB7
:1008C000624530607160134606F10806F6D1414674
:1008D0000122204600F0D2FC00230393AB7E02935A
:1008E00005F11903019380B20123CDE9048000933F
:1008F000E97E06A3D3E90023384602F0C9F90DF5D5
:100900004E7DBDE8F08100BFAFF300809E6AC42138
:10091000818A46EE8C110020544500082DE9F043F1
:10092000224DBBB001F0F4FDAB6840F2ED22C31ADA
:10093000934232D906AFA8602B46282200213846C0
:1009400002F056FB05F10E0000F044FC00260446C0
:100950005FFA80F905F10E08F3B2F100994501F153
:10096000280107D908EB06030822384602F040FBAD
:100970000136F1E708230122CDE9023205340C4BA0
:100980000193A4B230230093CDE9047405A3D3E905
:100990000023297B074802F07BF93BB0BDE8F083D8
:1009A000AFF3008078F6339F93CACD8D8836002050
:1009B00095360020A4210020F0B58B8A013B9BB224
:1009C000C92BC9B006460C4647D8274D2F7B27BBFD
:1009D00005F10C03009308223B463946204602F0FD
:1009E000CBF97B1CFAB2D9001F46A38A013B9A427D
:1009F00005DA0E322A44009200230822EEE7002393
:100A00000022C5E900230023AB6085F8D730C5F884
:100A1000D8302B7B0BB9E37E2B738122002106ADEE
:100A200027A800F0DFFB0122294627A800F0F4FCEC
:100A300000230393A37E029304F1190380B2019370
:100A40002823CDE90450E17E0093304604A3D3E986
:100A5000002302F01DF9FFF761FF49B0F0BD00BFB0
:100A600026417272DF25D7B78836002070B50D4653
:100A700014461E4602F068F850B9022E10D1012C1F
:100A80000ED112A3D3E90023C5E90023012007E01A
:100A9000282C10D005D8012C09D0052C0FD000200F
:100AA00070BD302CFBD10BA3D3E90023ECE70BA3E3
:100AB000D3E90023E8E70BA3D3E90023E4E70BA382
:100AC000D3E90023E0E700BFAFF30080401DA12081
:100AD00026812A0B78F6339F93CACD8D9E6AC42156
:100AE000818A46EE26417272DF25D7B7F017304A69
:100AF00039059E562DE9F04F8DB002AF80460D4668
:100B000002F022F8044600285CD12B7E022B1BD178
:100B1000EB8A012B18D101F0FBFC0646FFF76EFEB5
:100B200003464FF4C870DFF81C92B3FBF0F206F5F1
:100B3000167602FB103316FA83F3C9F80030EB7E09
:100B400033B97B4B00221A702C37BD46BDE8F08FBD
:100B5000AB8AE6B2013BB34204F101040CD907F1C0
:100B600008031E44E10000960023082201F0F8016A
:100B7000284602F001F9EBE707F11800FFF756FEEF
:100B8000324607F1180107F1080003F0A9FC00281C
:100B9000D7D10F2E08D8664B1E70D9F80030A3F5B8
:100BA0001673C9F80030CFE7FB1DF87101460093BA
:100BB00007220346284602F0DFF8F979404601F0A3
:100BC000BBFFC1E7EB8A282B26D010D8012B1ED003
:100BD000052BB9D1BFF34F8F5649574BCA6802F462
:100BE000E0621343CB60BFF34F8F00BFFDE7302BB4
:100BF000AAD16B7E514C0133627BDBB29342E94652
:100C000003D1EA7E237B9A420BD0CD469CE729464E
:100C10004046FFF71BFE97E729464046FFF7CCFE0C
:100C200092E74FF0000807F11803A7F81880102288
:100C3000009341460123284602F09EF8AE8A023E08
:100C4000B6B2F31C9B109B000733DB08A9EBC30370
:100C50009D460DF1080A1FFA88F34FEAC8019E422B
:100C600001F110010AD90AEB0803009308220023BE
:100C7000284602F081F808F10108ECE794F8D70063
:100C800000F064FAD4F8D810054619B994F8D700E2
:100C900000F06CFAD4F8D83033449D4205D294F871
:100CA000D7000021013000F061FA4FEA960B4FF0B7
:100CB00000081FFA88F18B45D4E9003209D90AEB04
:100CC000880103EB8800012200F094FA08F1010882
:100CD000EFE7F31842F10002C4E90032D4F8D8304B
:100CE00094F8D70006EB0308C4F8D88000F02EFA79
:100CF000804509D394F8D730D4F8D8000133401B8D
:100D000084F8D730C4F8D800FF2E0D4D09D8002341
:100D1000237300F033FA00F0C1FB288108B9FFF714
:100D20000FFD23689B0A01332B810023A3606CE72E
:100D30009D21002000ED00E00400FA058836002027
:100D40008C110020A021002010B50A4B0A4A1A601D
:100D500003F5805393F848203AB95C6C2CB12046D7
:100D600000F01AFC204603F0A3FBBDE81040034846
:100D700000F012BCD8210020A04500080832002055
:100D8000014B1870704700BF9811002010B54FF04C
:100D900000540C4B22689A4211D10B4B627D1A70A1
:100DA0000A48237D03730A49C9220E3000F008FA6D
:100DB000E0220021204600F015FA012010BD00209D
:100DC000FCE700BF9AAD44C598110020883600208A
:100DD0001600002037B500F061FB194D1949288134
:100DE00002236B7100220123174800F09BFF0023B0
:100DF0000193164B164900931648174B4FF4805237
:100E000001F072FE154B197811B1124801F094FEF1
:100E100001F07EFB0446FFF7F1FC4FF4C873B0FB12
:100E2000F3F202FB130304F5167010FA83F00C4B77
:100E3000186003F049F808B10F232B8103B030BDCF
:100E40008C11002040420F00D82100206D0A0008BC
:100E50009C110020A4210020F50A00089811002010
:100E6000A02100202DE9F04F2DED028B0FF25C291F
:100E7000D9E900898B4C93B08B4E8C4F204601F002
:100E800033FF034660B30025CDE90F550E95ADF84D
:100E90004450027B8DF8442099684068DFF834A202
:100EA0000FAA03C21B6843F000430E9301F032FB0C
:100EB000821941F1000300950EA9384600F00AFDA1
:100EC000A84205DD204601F013FF8AF80050D5E75F
:100ED0009AF80030072B00F2B58001338AF8003011
:100EE0000BAE9FED6C8B0023704FDFF8ECA10A93E3
:100EF000ADF834300B9373604FF0000B5B468DED13
:100F0000008B01250DF11D0207A938468DF81C50F4
:100F10008DF81DB001F064FA9DF81C30002B40F0F4
:100F20009580204601F010FE0646002845D1604F0E
:100F300001F0EEFA3B6898423FD301F0E9FA8246AD
:100F4000FFF75CFC4FF4C8730AF5167AB0FBF3F2B6
:100F500002FB13031AFA83F33B60564F97F800B075
:100F6000CBF1100ABBF1000F14BF33462B465FFADA
:100F70008AFA0EA88DF82830FFF758FCBAF1060F50
:100F800028BF4FF0060A0EAB03EB0B0152460DF1E2
:100F9000290000F015F90AAB0393182302930AF114
:100FA0000102454BD2B2CDE90053049220463BA347
:100FB000D3E9002301F00EFE3E7001F0A9FA3F4A8A
:100FC0003F4D1368C31AB3F57A7F2ED3106001F03A
:100FD000A1FA02460B46204601F094FE204601F09D
:100FE000B3FD10B32B7B374E002B14BF032302231A
:100FF000737101F08DFA0EAF4FF47A730122B0FBDA
:10100000F3F039463060304600F0DEF918230293E1
:101010002D4B019380B240F25513CDE9037000933C
:1010200042464B46204601F0D5FD2B7B2BB1FFF706
:1010300075FC2B7B002B7FF41FAF13B0BDEC028B34
:10104000BDE8F08F204601F053FE49E7DAF814308E
:1010500083F01003CAF81430594610220EA800F08D
:10106000C1F80DF11E0308AA0AA9384600F024FDB4
:1010700096E803000FAB83E803009DF834308DF849
:1010800044300A9B0E930EA9DDE90823204602F0A6
:101090000DF831E70000000000000000401DA12015
:1010A00026812A0BA421002040420F00D8210020D5
:1010B000A02100209D2100209C21002068370020D5
:1010C000883600208C1100206C370020F1C6A7C1A3
:1010D000D068080F6D3700200004004808B50548A7
:1010E00000F08EFDBDE80840034A0449002003F0EB
:1010F000D9B900BFD8210020A8370020490D000829
:101100007047000070B502F015FD094E094D3080A2
:10111000002428683388834208D902F007FD2B6831
:1011200004440133B4F5D04F2B60F2D370BD00BF3F
:101130009C3700207037002002F0C0BD00F1006035
:10114000920000F5D04002F039BD0000054B1A684E
:10115000054B1B889B1A834202D9104402F0E6BC5F
:1011600000207047703700209C370020024B1B681E
:10117000184402F0F3BC00BF70370020064991F814
:10118000243033B10023086A81F824300822FFF7A5
:10119000D5BF0120704700BF74370020022802BF6E
:1011A000014B10229A61704700040048022802BFD8
:1011B000024B4FF480129A61704700BF0004004850
:1011C00010B50023934203D0CC5CC4540133F9E73B
:1011D00010BD000003460246D01A12F9011B002977
:1011E000FAD1704702440346934202D003F8011B30
:1011F000FAE770472DE9F8431F4D144695F824206F
:101200000746884652BBDFF870909CB395F82430AF
:101210002BB92022FF2148462F62FFF7E3FF95F804
:101220002400C0F10802A24228BF2246D6B241469D
:10123000920005EB8000FFF7C3FF95F82430A41B54
:101240001E44F6B2082E17449044E4B285F8246098
:10125000DBD1FFF793FF0028D7D108E02B6A03EB1F
:1012600082038342CFD0FFF789FF0028CBD1002033
:10127000BDE8F8830120FBE7743700202DE9F04733
:101280000D46044600219046284640F27912FFF7A9
:10129000A9FF234620220021284601F0A9FE231D94
:1012A00002222021284601F0A3FE631D03222221F1
:1012B000284601F09DFEA31D03222521284601F0AA
:1012C00097FE04F1080310222821284601F090FE21
:1012D00004F1100308223821284601F089FE04F1A8
:1012E000110308224021284601F082FE04F1120376
:1012F00008224821284601F07BFE04F11403202235
:101300005021284601F074FE04F118034022702198
:10131000284601F06DFE04F120030822B021284682
:1013200001F066FE04F121030822B821284601F0ED
:101330005FFE04F12207C0263B46314608222846BC
:10134000083601F055FEB6F5A07F07F10107F3D18D
:1013500004F1320308223146284601F049FE0027F5
:1013600004F1330A94F832304FEAC7099F4209F575
:10137000A47615D3B8F1000F08D1314604F599735E
:101380000722284601F034FE09F24F16274694F84A
:1013900032213B1B93420CD3F01DC008BDE8F087FF
:1013A0000AEB070308223146284601F021FE0137E7
:1013B000D8E707F2331331460822284601F018FE19
:1013C00008360137E3E7000013B50446084600215C
:1013D00001602346C0F803102022019001F008FEAE
:1013E0000198231D0222202101F002FE0198631DB5
:1013F0000322222101F0FCFD0198A31D03222521D7
:1014000001F0F6FD019804F108031022282101F0F3
:10141000EFFD072002B010BDF8B50E460546144694
:10142000002181223046FFF7DDFE2B4608220021F5
:10143000304601F0DDFD7CB96B1C072208213046E7
:1014400001F0D6FD0F2401236A785F1C013B934213
:1014500004D3E01DC008F8BD0824F4E7EB192146C9
:101460000822304601F0C4FD08343B46ECE700009A
:1014700030B5094D0A4491420DD011F8013B584056
:10148000082340F30004013B2C4013F0FF0384EADF
:101490005000F6D1EFE730BD2083B8EDF7B5384AFC
:1014A000106851686B4603C36A46364936480823BC
:1014B00003F026F80446002833D10A25334A106881
:1014C00051686B4603C36A4631492F48082303F02D
:1014D00017F80446002849D00369B3F5CC3F45D836
:1014E000B0F8661040F2614291423FD1294A02446D
:1014F00002F15C018B4239D35C3B234900209E1AE8
:10150000FFF7B6FF3246074604F164010020FFF7FB
:10151000AFFFA3689F4229D1E368984208BF002526
:1015200024E00369B3F5CC3F27D8418B40F26142F8
:10153000914220D1174A024402F110018B4218D384
:10154000103B114900209D1AFFF792FF2A460646DC
:1015500004F118010020FFF78BFFA3689E4202D11F
:10156000E368984201D00D25A8E70025284603B07E
:10157000F0BD1025A2E70C25A0E70B259EE700BFD4
:1015800070450008DC9701000068000879450008F4
:10159000909701000898FFF710B5037C044613B933
:1015A000006802F095FF204610BD00000023BFF345
:1015B0005B8FC360BFF35B8FBFF35B8F8360BFF351
:1015C0005B8F7047BFF35B8F0068BFF35B8F704723
:1015D00070B505460C30FFF7F5FF05F10806044627
:1015E0003046FFF7EFFFA04206D930466D68FFF79F
:1015F000E9FF2544281A70BD3046FFF7E3FF201AA3
:10160000F9E7000070B50546406898B105F108009B
:10161000FFF7D8FF05F10C0604463046FFF7D2FF6E
:101620008442304694BF6D680025FFF7CBFF013C34
:101630002C44201A70BD000038B50C460546FFF753
:10164000C7FFA04210D305F10800FFF7BBFF044419
:101650006868B4FBF0F100FB1144BFF35B8F01201D
:10166000AC60BFF35B8F38BD0020FCE72DE9F04193
:10167000144607460D46FFF7C5FF844228BF0446BF
:10168000D4B1B84658F80C6B4046FFF79BFF304486
:10169000286040467E68FFF795FF331A9C4203D8C6
:1016A0006C600120BDE8F0816B60A41B3B68AB60FF
:1016B0002044E8600220F5E72046F3E738B50C4601
:1016C0000546FFF79FFFA04210D305F10C00FFF77E
:1016D00079FF04446868B4FBF0F100FB1144BFF3E8
:1016E0005B8F0120EC60BFF35B8F38BD0020FCE70F
:1016F0002DE9FF41884669460746FFF7B7FF6C466C
:1017000006B204EBC6060025B44209D06268206820
:1017100008EB0501FFF754FD636808341D44F3E747
:1017200029463846FFF7CAFF284604B0BDE8F081D5
:10173000F8B505460C300F46FFF744FF05F10806E3
:1017400004463046FFF73EFFA042304688BF6C6833
:10175000FFF738FF201A386020B130462C68FFF7B9
:1017600031FF2044F8BD000073B5144606460D460F
:10177000FFF72EFF844228BF04460190DCB101A987
:101780003046FFF7D5FF019B33B93268C5E9023314
:10179000C5E9002401200CE09C4238BF0194286078
:1017A000019868608442F5D93368AB60241AEC6014
:1017B000022002B070BD2046FBE700002DE9FF418A
:1017C0000F466946FFF7D0FF6C4600B204EBC00538
:1017D0000026AC4209D0D4F8048054F8081BB8198C
:1017E0004246FFF7EDFC4644F3E7304604B0BDE85F
:1017F000F081000038B50546FFF7E0FF04460146DA
:101800002846FFF719FF204638BD0000302383F338
:10181000118862B670470000002383F3118862B616
:1018200070470000012070477047000010B4134655
:10183000026814680022A4465DF8044B604700006B
:1018400000F5805090F859047047000000F5805072
:1018500090F852047047000000F5805090F9580449
:10186000704700005020704700F5805208B5FFF720
:10187000CDFFD2F89834D2F894041844D2F89034BA
:101880001844D2F878341844D2F888341844D2F87E
:1018900084341844FFF7C0FF08BD000038B5C26AA1
:1018A000936923F001039361044600F031FE05467D
:1018B000E36A9B69DB0706D500F02AFE431BFA2B7F
:1018C000F6D9002004E004F58054012084F8520485
:1018D00038BD00002DE9F04F0C4600F5805185B071
:1018E0001F4691F85234BDF83890054690469BB19A
:1018F000D1F874340133C1F8743423689A0006D4E3
:10190000237B082B0BD9627B0AB10F2B07D9D1F8A7
:1019100078340133C1F878344FF0FF300FE0FFF72F
:1019200075FFEB6AD3F8C42012F4001A0AD0D1F87C
:101930007C340133C1F87C34FFF76EFF002005B022
:10194000BDE8F08FD3F8C46022686B6AC6F3014625
:101950004FF0480B002A1BFB063BB4BF42F080420D
:101960009204CBF8002023685B0044BF42F0005291
:10197000CBF80020227B330643EA0243CBF8043045
:10198000607B720118B343F44013CBF80430D1F8F4
:10199000A4340133C1F8A434AB1803F58353197B85
:1019A00041F020011973207B039200F00FFE039A8F
:1019B000033080105FFA8AF383420AF1010A0DDADC
:1019C00004EB83010BEB830349689960F2E7AB18E2
:1019D00003F58353197B60F34511E3E7EB6A0121BB
:1019E000B140C3F8CC10AB1803F58253C3E90487A8
:1019F00005EB461303F582532146183304F10C001E
:101A000051F804CB43F804CB8142F9D109881980FD
:101A10002A4441F268032846D65002F5805209F064
:101A2000030392F86C1043F0100321F01F010B43E5
:101A300082F86C30FFF7F0FE4246CDF800903B464E
:101A4000214600F089FD012079E7000013B500F57B
:101A500080540191606CFFF7D5FD1F280AD90199C8
:101A6000606C2022FFF744FEA0F120035842584149
:101A700002B010BD0020FBE708B500F58050FFF76D
:101A8000C5FE406CFFF792FDBDE80840FFF7C4BEFD
:101A900000220260828142608260704710B500229D
:101AA0000023C0E900230023044603810C30FFF724
:101AB000EFFF204610BD00002DE9F047074688B033
:101AC00007F5805468469A468846FFF79FFE914680
:101AD000FFF7E4FF606CFFF77BFD1F282CD9606CDB
:101AE00020226946FFF786FE202825D194F852343B
:101AF00013B303AD444605AB2E4603CE9E42206091
:101B00006160354604F10804F6D130682060B3887E
:101B1000A380DDE90023C9E90023BDF80830AAF855
:101B20000030FFF779FE4A4653464146384608B032
:101B3000BDE8F04700F0FEBCFFF76EFE002008B0E5
:101B4000BDE8F0872DE9F84F00230646C0E90133D0
:101B5000284B46F8303B00F5815405468846374609
:101B6000103438462037FFF799FFA742F9D105F521
:101B700080544FF4805326630026C4E90D36676411
:101B8000012305F5835705F5A359E66384F8403032
:101B900084F84830103709F110094FF0000A4FF06F
:101BA000000B47E908ABA7F11800FFF771FF2037DA
:101BB00047F8286C4F45F4D184F85884A4F85A6447
:101BC000A4F85C64A4F85E6484F86064A4F86264B9
:101BD000A4F86464A4F8666484F86864B8F1000F3B
:101BE00002D0054800F08EFC044BEB622846BDE8AD
:101BF000F88F00BFA045000884450008006400403D
:101C000010B5044B197804464A1C1A70FFF79AFF66
:101C1000204610BDA53700202DE9F04300295FD0F4
:101C20003048314BB3FBF1F381428CBF0A201120C5
:101C3000451EB3FBF0F700FB1730ECB220B1022DCC
:101C40002846F5D8002037E07D1EB5F5806F33D2E9
:101C5000C4EBC40808F103034FEAE30EC3F3C70360
:101C6000A4EB030C0EF101094FF47A705FFA8CF6C5
:101C70000EFB000E59FA8CFCBEFBFCFCBCF5617F30
:101C80001CDC1FFA8CF4581C56FA80F047431648A7
:101C9000B0FBF7F7B942D5D1013BDBB20F2BD1D85E
:101CA000711EC9B207294FF0000005D810711480C9
:101CB0005580537191710120BDE8F08308F1FF3325
:101CC0004FEAE30CC3F3C703E41A0CF1010EE6B2CA
:101CD0000CFB00005EFA84F4B0FBF4F4A4B2D2E78B
:101CE0000846E9E73F420F0000127A000B4B10B59F
:101CF0004FF45472044600211846FFF773FA084B5C
:101D0000A3614033E361D8332362F0336362E36A53
:101D100060610022C3F8C02010BD00BF00A40040D5
:101D200070A400402DE9F04F00F58055994695F8D4
:101D30005834012B89B004468A46904604D90027BE
:101D4000384609B0BDE8F08F8D4A52F8231009B922
:101D500042F823008B49C4F80CA00B7884F810904B
:101D600093B9FFF753FD884B9A6D42F000729A6564
:101D70009A6B42F000729A639A6B22F000729A6337
:101D800001230B70FFF748FD95F8513473B9032117
:101D90001520FFF73BFD01F017FC0321162001F091
:101DA00013FC012385F85134FFF736FDFFF72EFDB4
:101DB000E26A936923F01003936100F0A9FB0746E0
:101DC000E36A9E6916F0080607D000F0A1FBC31B6A
:101DD000FA2BF5D9FFF720FDB1E79A6942F001022D
:101DE0009A6100F095FB0746E36A9A69D00705D42B
:101DF00000F08EFBC31BFA2BF6D9EBE79A6942F091
:101E000002029A61E36A00275F65FFF705FD686CCF
:101E1000FFF7CCFB04F5825B0BF1100B20220021B5
:101E20006846FFF7DFF902A8FFF732FE06976A4619
:101E30000BEB06030DF1180E9446BCE80300F445C5
:101E400018605960624603F10803F5D1DCF8000020
:101E5000186020369CF804201A71B6F5806FDDD129
:101E6000002304F5A25285F8503485F853341A3211
:101E700051462046FFF7D0FE074690B9E26A9369C3
:101E800023F00103936100F043FB0546E36A9B697D
:101E9000D9077FF554AF00F03BFB431BFA2BF5D974
:101EA0004DE795F85F6495F85E24C5F86CA436029A
:101EB00046EA426695F86024E36A1643B5F85C2466
:101EC00046EA0246DE61B8F1000F29D004F5A352BC
:101ED000023241462046FFF79FFE90B9E26A9369BD
:101EE00023F00103936100F013FB0546E36A9B694D
:101EF000DA077FF524AF00F00BFB431BFA2BF5D973
:101F00001DE795F8683495F86714C5F870841B01CF
:101F100043EA0123B5F86414E26A43EA0143D3605B
:101F20002046FFF7E3FE002385F85934E36A6FF09B
:101F300040421A65E36A154A5A65E36A44229A6583
:101F4000E36A0722C3F8DC20E36A03229145DA65DD
:101F50003FF4F6AEE26A936923F00103936100F067
:101F6000D7FA0646E36A9B69DB0705D500F0D0FA8D
:101F7000831BFA2BF6D9E2E6012385F85234DFE61B
:101F8000A0370020A4370020001002409B0008006A
:101F90002DE9F04F054689B090469946002741F259
:101FA000680A00F58056EB6AD3F8D430FB40D807B6
:101FB0004AD505EB471252444FEA471B13791907DC
:101FC00042D4D6F880340133C6F8803413799A06A7
:101FD00048BFD6F8A83405EB0B0248BF0133524482
:101FE00048BFC6F8A834137943F008031371DB0720
:101FF00022D596F85334FBB105F58254183468465F
:102000005C44FFF74BFD03AB04F1080C20686168EA
:102010001A4603C2083464451346F7D1206810609D
:10202000A2889A800123ADF808302B68CDE9008999
:10203000DB6B694628469847D6F8543423B1D6F866
:102040009C340133C6F89C340137202FABD109B042
:10205000BDE8F08F2DE9F04F8DB004460F4600F03B
:1020600059FA82468946002F56D1E36AD3F8902068
:10207000920141BF04F58051D1F894240132C1F896
:102080009424D3F89020160703D100200DB0BDE8AA
:10209000F08FD3F89050E669C5F30125482303FB80
:1020A0000566E8464046FFF7F3FC326851004ABF38
:1020B00022F06043C2F38A4343F00043920048BFDA
:1020C00043F080430093736813F400131FBF04F5BB
:1020D000805201238DF80D30D2F8AC340EBF8DF84C
:1020E0000D300133C2F8AC34F38803F00F038DF8E0
:1020F0000C304FF0000B9DF80C0000F067FA5FFA0F
:102100008BF3984220D9F2180CA90B44127A03F8E9
:102110002C2C0BF1010BEEE7012FB6D1E36AD3F8BB
:102120009820950141BF04F58051D1F894240132E3
:10213000C1F89424D3F898201007A6D0D3F898506B
:10214000266AC5F30125A9E7EFB9E36AC3F89450FD
:1021500004A8FFF7A3FC98E80F0007AD07C52B8084
:102160000023ADF8183023682046CDE904A9DB6BC5
:1021700004A9984704F5805458B1D4F88C3401333D
:10218000C4F88C3482E7012F04BFE36AC3F89C5083
:10219000DEE7D4F890340133C4F89034012075E7B9
:1021A000F8B505460F4600F5805401263946284605
:1021B000FFF750FF10B184F85364F7E7D4F85434B4
:1021C00023B1D4F89C340133C4F89C34F8BD00002A
:1021D000F0B5C36A1A6C12F47F0F2BD000F580544F
:1021E0001B6CC4F8A03441F26805002347194FF076
:1021F000010C00EB43122A445E01117911F0020F29
:1022000015D0490713D4B959C66AD6F8C8E00CFAF4
:1022100001F111EA0E0F0AD0C6F8D010117941F081
:1022200004011171D4F888240132C4F888240133E0
:10223000202BDED1F0BD000010B5254C254B2268C7
:1022400002B338B31A6D12060ED580221A6500F05B
:1022500061F950EA01020B4602D0013861F1000336
:1022600002462068FFF794FE1A4A136D1B032AD515
:1022700023684FF4002103F580531165012283F890
:10228000592420E001221A6508221A654FF4806261
:102290001A6510BD196DC80702D4196D890705D5D7
:1022A0000321196510460021FFF77AFF094B1A6DCB
:1022B000100702D41A6DD10605D518221A652068B8
:1022C0000121FFF76DFF2068BDE81040FFF780BFD8
:1022D000A03700200064004008B5FFF797FAFFF729
:1022E00077FFBDE80840FFF797BA0000C36AD3F84C
:1022F000C40080F40010C0F34050704700F58050D7
:1023000008B5FFF783FA406CFFF762F9FFF784FA2C
:1023100043090CBF0120002008BD000000F58053D8
:1023200093F8592462B1C16A8A6922F001028A6174
:10233000D3F898240132C3F89824002283F8592452
:10234000704700002DE9F74300F58251984610319F
:10235000FFF75CFA002541F2680E4FF0010900F525
:10236000805C00EB4514744423795E071CD4DB06C3
:102370001AD5C36A8E69D3F8C87009FA06F63E42C8
:1023800012D04F6801970F689742019F77EB0807BB
:102390000AD2C3F8D060237943F004032371DCF838
:1023A00084340133CCF884340135202D01F120012F
:1023B000D7D103B0BDE8F043FFF72EBAF8B51E46FB
:1023C000002313700F4605461446FFF797FF80F071
:1023D000010038701EB12846FFF788FF2070F8BD55
:1023E0002DE9F04F85B09946DDE90EA30D46029325
:1023F0001378019391F800B08046164600F08AF8F1
:102400002B7804460F4613B93378002B42D022466E
:102410003B464046FFF796FFFFF75EFFFFF77EFF64
:102420004B4632462946FFF7C9FF2B7833B1BBF143
:10243000000F03D0012005B0BDE8F08F337813B151
:10244000019B002BF6D108F580530393029B544562
:1024500077EB03031ED2039BD3F85404D0B1036877
:10246000AAEB0401DB6889B298474B4632462946FD
:102470004046FFF7A3FF2B7813B1BBF1000FD9D172
:10248000337813B1019B002BD4D100F043F80446FC
:102490000F46DBE70020CEE708B50020FFF7CCFEB3
:1024A000BDE8084001F052B808B50120FFF7C4FEAE
:1024B000BDE8084001F04AB800B59BB0EFF30981D0
:1024C00068226846FEF77CFEEFF30583014B9B6BA9
:1024D000FEE700BF00ED00E008B5FFF7EDFF0000EC
:1024E00000B59BB0EFF3098168226846FEF768FEED
:1024F000EFF30583014B5B6BFEE700BF00ED00E0EF
:10250000FEE700000FB408B5029801F01DF9FEE7E0
:1025100001F022BC01F0FABB01F0F8BB13B56C4628
:1025200084E80600031D94E8030083E80500012009
:1025300002B010BD73B58568019155B11B885B076A
:1025400007D4D0E900369B6B9847019AC1B2304658
:10255000A847012002B070BDF0B5866889B0054675
:102560000C465EB1BDF838305B070AD4D0E90037BD
:102570009B6B98472246C1B23846B047012009B04C
:10258000F0BD00220023CDE900230023ADF8083080
:102590000A4603AB01F10806106851681C4603C4E3
:1025A0000832B2422346F7D1106820609288A28098
:1025B000FFF7B2FF0423ADF808302B68CDE9000126
:1025C000DB6B694628469847D8E70000082817D9EA
:1025D00009280CD00A280CD00B280CD00C280CD0C1
:1025E0000D280CD00E2814BF4020302070470C203E
:1025F0007047102070471420704718207047202023
:10260000704700002DE9F041456A15B94162BDE807
:10261000F0814B6823F06047C3F38A464FEAD37ECC
:10262000C3F3807816EA230638BF3E46AC462B46F5
:102630005A68BEEBD27F22F060440AD0002A18DA32
:10264000A40CB44217D19D420FD10D60DEE71346B2
:10265000EEE7A74207D102F08044C2F38072424500
:102660000BD054B1EFE708D2EDE7CCF800100B60C7
:10267000CDE7B44201D0B442E5D81A689C46002A9E
:10268000E5D11960C3E700002DE9F047089D01F08E
:1026900007044FEAD508224405F0070500EBD100F6
:1026A0004FF47F49944201D1BDE8F08704F0070759
:1026B00005F0070A57453E4638BF5646C6F108069C
:1026C000111B8E4228BF0E46E10808EBD50E415C77
:1026D00013F80EC0B94029FA06F721FA0AF1FFB241
:1026E0008CEA010147FA0AF739408CEA010C03F839
:1026F0000EC034443544D5E780EA0120082341F276
:10270000210201B24000002980B203F1FF33B8BFBB
:10271000504013F0FF03F4D17047000038B50C4669
:102720008D18A54200D138BD14F8011BFFF7E4FF56
:10273000F7E7000042684AB1136843604389818922
:1027400001339BB29942438138BF83811046704761
:1027500070B588B0202204460D4668460021FEF779
:1027600041FD20460495FFF7E5FF024658B16B4650
:10277000054608AE1C4603CCB44228606960234677
:1027800005F10805F6D1104608B070BD082817D924
:1027900009280CD00A280CD00B280CD00C280CD0FF
:1027A0000D280CD00E2814BF4020302070470C207C
:1027B0007047102070471420704718207047202061
:1027C00070470000082817D90C280CD910280CD9FC
:1027D00014280CD918280CD920280CD930288CBFE3
:1027E0000F200E207047092070470A2070470B20E9
:1027F00070470C2070470D20704700002DE9F8430A
:10280000078C072F04461ED9D0E9029800254FF601
:10281000FF73C5F12006A5F1200029FA05F108FA99
:1028200006F628FA00F031430143C9B21846FFF713
:1028300063FF0835402D0346EBD1E1693A46BDE818
:10284000F843FFF76BBF4FF6FF70BDE8F883000059
:1028500010B54B6823B9CA8A63F30902CA8210BD56
:1028600004691A681C600361C38A013BC3824A6021
:10287000EFE700002DE9F84F1D46CB8A0F46C3F362
:1028800009010529814692460B4630D00020AAB2A4
:1028900007F11A049EB2042E1FFA80F80FD8904553
:1028A00003F1010306D3FB8A0A4462F30903FB82A6
:1028B00001201AE01AF80060E6540130EAE790457A
:1028C000F1D2A1F1050B1C237C68BBFBF3F203FBE7
:1028D00012BB1FFA8BF6002C45D14846FFF72AFFA2
:1028E000044638B978606FF00200BDE8F88F4FF009
:1028F0000008E6E7002606607860ADB24FF0000BF6
:10290000454510D90AEB0803221D13F8011B915508
:10291000B1B208F101081B291FFA88F82BD04545F0
:1029200006F10106F1D8FB8AC3F30902154465F3E9
:102930000903BCE7013292B21C462368002BF9D18F
:102940006B1F0B441C21B3FBF1F301339BB29A4282
:10295000D3D2BBF1000FD0D14846FFF7EBFE20B930
:10296000C4F800B0BFE70122E7E7C0F800B05E4658
:1029700020600446C1E74545D5D94846FFF7DAFE51
:1029800008B92060AFE7C0F800B000262060044618
:10299000B6E700002DE9F04F2DED028B1C4683B009
:1029A0005B69019207468846002B00F09A80238CD1
:1029B0002BB1E269002A00F09480072B35D807F18B
:1029C0000C00FFF7B7FE054638B96FF00205284640
:1029D00003B0BDEC028BBDE8F08F14220021FEF79E
:1029E00001FC228CE16905F10800FEF7E9FB208C6F
:1029F000013080B2FFF7E6FEFFF7C8FE013880B273
:102A00002084013028746369228C1B782A4403F0E7
:102A10001F0363F03F0348F00041137238466960BA
:102A20002946FFF7EFFD0125D1E700F10C034FF038
:102A3000000908EE103A4FF0800A4E464D4618EE57
:102A4000100AFFF777FE83460028BED0142200212B
:102A5000FEF7C8FB002E3AD1019BABF808300222EA
:102A60000BF1080E1FFA82FC0CF10100BCF1060FFD
:102A7000218C80B201D88E422BD3FFF7A3FEFFF743
:102A800085FE62691278013802F01F028E4208BF8B
:102A90004FF0400A42EA49121BFA80F14AEA020A60
:102AA000013048F0004281F808A08BF81000CBF804
:102AB000042059463846FFF7A5FD238C0135B34263
:102AC0002DB289F001094FF0000AB8D17FE700224A
:102AD000C6E7E169895D0EF802100136B6B201322F
:102AE000C0E76FF0010572E7F8B515460E463022D3
:102AF000002104461F46FEF775FB069B6360B5F593
:102B0000001F079BA76034BF6A094FF6FF72A362DC
:102B100097B2E66104F1100000239A4206D8002320
:102B20000360A782E3822383E360F8BD066001337C
:102B300030462036F1E7000003781BB94BB2002B7A
:102B4000C8BF01707047000000787047F8B50C46A8
:102B5000C969074611B9238C002B37D1257E1F2D5B
:102B600034D8387828BB228C072A2CD8268A36F00D
:102B700003032BD14FF6FF70FFF7D0FD20F00100CB
:102B80003102400441EA0561400C41EA40254FF61C
:102B9000FF72234629463846FFF7FCFE002807DD72
:102BA000626913780133DBB21F2B88BF00231370D7
:102BB000F8BD218A2D0645EA012505432046FFF789
:102BC0001DFE0246E5E76FF00300F1E76FF001003C
:102BD000EEE7000070B58AB00446164600212822B0
:102BE00068461D46FEF7FEFABDF83830ADF81030E5
:102BF0000F9B05939DF840308DF81830119B07937B
:102C00006946BDF84830ADF820302046CDE9026570
:102C1000FFF79CFF0AB070BD2DE9F041D36905466E
:102C20000C4616460BB9138C5BBB377E1F2F28D87A
:102C300095F80080B8F1000F26D03046FFF7DEFD92
:102C40003378210241EAC33141EA0801338A41EA7B
:102C5000076141EA03410246334641F080012846BC
:102C6000FFF798FE00280ADD3378012B07D172693F
:102C700013780133DBB21F2B88BF00231370BDE82C
:102C8000F0816FF00100FAE76FF00300F7E7000052
:102C9000F0B58BB004460D46174600212822684641
:102CA0001E46FEF79FFA9DF84C305A1E5342534180
:102CB0008DF800309DF84030ADF81030119B059331
:102CC0009DF848308DF81830149B07936A46BDF87C
:102CD0005430ADF8203029462046CDE90276FFF782
:102CE0009BFF0BB0F0BD0000406A00B1043070479C
:102CF000436A1A68426202691A600361C38A013B2F
:102D0000C38270472DE9F041D0F82080194E144657
:102D10001D464146002709B9BDE8F081D1E90223EB
:102D2000A21A65EB0303964277EB03031ED2036AF4
:102D30008B420DD1FFF78CFD036A1B6803620369A8
:102D40000B60C38A0161016A013BC3828846E2E7E6
:102D5000FFF77EFD0B68C8F8003003690B60C38A7B
:102D60000161013BC382D8F80010D4E788460968A6
:102D7000D1E700BF80841E002DE9F04F8BB00D46D7
:102D8000DDF8509014469B468046002800F01981DB
:102D9000B9F1000F00F01581531E3F2B00F2118195
:102DA000012A03D1BBF1000F40F00B810023CDE9D4
:102DB0000833B8F81430B5EBC30F4FEAC30703D399
:102DC00000200BB0BDE8F08F2B199F42D8F80C30D3
:102DD0003ABF7F1BFFB227461BB9D8F81030002B33
:102DE0007AD0272D4ED8C5F12806B7424FF0000300
:102DF0002CBFF6B23E4600932946D8F8080008AB2F
:102E00003246FFF741FCA7EB060A35445FFA8AFA1F
:102E1000B8F8143003F10053053BDB000493D8F8F5
:102E20000C3003932821039B13B1BAF1000F2CD16E
:102E3000D8F8100040B1BAF1000F05D0009608ABE9
:102E40005246691AFFF720FC38B2002FB8D0660747
:102E50000AD00AAB03EBD401624211F8083C02F03D
:102E60000702134101F8083C082C3CD9102C40F211
:102E7000B580202C40F2B780BBF1000F00F09C80A1
:102E8000082334E0BA460026C2E7049BE02B28BFA3
:102E9000E02306930B44AB42059314D95A1B0398C5
:102EA0000096924534BF5246D2B2691A08AB04303C
:102EB0000792FFF7E9FB079A1644AAEB020A1544AA
:102EC000F6B25FFA8AFA049B069A05999B1A049354
:102ED000039B1B680393A6E70093D8F8080008AB90
:102EE0003A462946AEE7BBF1000F13D00123B4EBFD
:102EF000C30F6CD0082C12D89DF82030621E23FA24
:102F000002F2D50706D54FF0FF3202FA04F423434C
:102F10008DF820309DF8203089F8003051E7102CD2
:102F200012D8BDF82030621E23FA02F2D10706D56E
:102F30004FF0FF3202FA04F42343ADF82030BDF81D
:102F40002030A9F800303CE7202C0FD80899631EE8
:102F500021FA03F3DA0705D54FF0FF3202FA04F441
:102F60000C430894089BC9F800302AE7402C2BD06A
:102F7000DDE90865611EC4F12102A4F1210326FAEE
:102F800001F105FA02F225FA03F311431943CB07C5
:102F900012D50122A4F12003C4F1200102FA03F3A7
:102FA00022FA01F1A240524243EA010363EB4303D8
:102FB00032432B43CDE90823DDE90823C9E9002387
:102FC000FFE66FF00100FCE66FF00800F9E6082C60
:102FD000A0D9102CB3D9202CEED8C3E7BBF1000F39
:102FE000ADD0022383E7BBF1000FBBD004237EE703
:102FF00030B5012A144638BF0124402C85B028BFC3
:1030000040240025012ACDE9025518D81B788DF8F7
:10301000083063070AD004AB03EBD405624215F80D
:10302000083C02F00702934005F8083C0091034673
:103030002246002102A8FFF727FB05B030BD082A71
:10304000E4D9102A03D81B88ADF80830E1E7202A1C
:103050008DBFD3E900231B680293CDE90223D8E793
:1030600010B5CB681BB98B600B618B8210BD0469F6
:103070001A681C600361C38A013BC382CA60F0E71F
:1030800003064CBFC0F3C0300220704708B50246AB
:10309000FFF7F6FF022806D15306C2F30F2001D135
:1030A00000F0030008BDC2F30740FBE72DE9F04F35
:1030B00093B0CDE903230A6804461046FFF7E0FF0A
:1030C000022814BFC2F306260026002A0D468246B7
:1030D00080F2F28112F0C04940F0EE81097B0029B4
:1030E00000F0EA81022803D02378B34240F0E78160
:1030F000C2F304630693104602F07F030593FFF7C3
:10310000C5FF059B29444FEA834848EA0A4848EA34
:103110004668CE7800230022CDE90823F3098346D0
:1031200048EA0008029367D0059B0093024667684F
:10313000534608A92046B847002800F0C381276AF3
:103140004FB9414604F10C00FFF702FB074690B966
:103150006FF0020054E03B6998450DD03F68002FA6
:10316000F9D1414604F10C00FFF7F2FA07460028B6
:10317000EED0236A3B60276297F817C006F01F085D
:10318000CCF3840CACEB08001FFA80FE0028B8BF1B
:103190000EF12000A8EB0C031FFA83FED7E90221F1
:1031A000B8BF00B2002B0793BEBF0EF120031BB2C5
:1031B000079352EA010338D0039BDFF824E39A1AFD
:1031C000049B4FF0000C63EB010196457CEB01037F
:1031D0002BD36B7B97F81AE0734519D1029B002B18
:1031E00078D0012821DC7868F8B9DFF8F0C294457E
:1031F00070EB010316D337E0276A27B96FF00C0094
:1032000013B0BDE8F08F3B699845B5D03F68F4E74F
:10321000B24890427CEB010301D30020F0E7029B0F
:10322000002BFAD0079B0F2B17DCFA7DB30002F0BE
:10323000030203F07C031343FB7539462046FFF776
:1032400007FB6B7BBB76029B3BB9FB7DC3F3840220
:10325000013262F38603FB75D0E76A7BBB7E9A423C
:10326000DBD1029B002B35D0B309022B32D0039B5C
:10327000BB60049BFB60142200210DA8FDF7B2FF88
:10328000039B0A93049B0B932B1D0C932B7BADF894
:103290003EB0013BDBB2ADF83C30069B8DF84230CE
:1032A000059B8DF8433094F82C308DF840A083F0C6
:1032B00001038DF844308DF84180A3680AA92046A7
:1032C0009847FB7DC3F38403013303F01F039B0284
:1032D000FB82A2E7FB7DC6F34012B2EBD31F40F0A6
:1032E000F480C3F38403434540F0F280029A2B7BC1
:1032F000B609002A4DD0F2075DD4032B40F2EB80D3
:10330000039BBB60049BFB602B7BAE1D033BDBB2CE
:103310003246394604F10C00FFF7ACFA00280CDA0B
:1033200039462046FFF794FAFB7DC3F3840301334B
:1033300003F01F039B02FB820AE7DDE90884AB88E8
:103340003B834FF6FF73C9F12000A9F1200228FA50
:1033500009F104FA00F0014324FA02F2114318467D
:10336000C9B2FFF7C9F909F10809B9F1400F0346DD
:10337000E9D1B8822A7B033AD2B23146FFF7CEF9BF
:10338000FB7DB882DA43C2F3C01262F3C713FB7548
:1033900043E786B92E1D013BDBB23246394604F1C4
:1033A0000C00FFF767FA0028BADB2A7BB88A013ADB
:1033B000D2B23146E2E7F98AC1F30901013B04299F
:1033C000DAB25BD8281D002307F11B069A4208D900
:1033D00010F801CB06F801C0013101330529DBB239
:1033E000F4D103990A9104990B91934207F11B01BF
:1033F0000C9138BF043379680D9134BF55FA83F3CB
:1034000000230E93FB8AADF83EB0C3F309031A44C0
:10341000069B8DF84230059B8DF8433094F82C3094
:10342000ADF83C2083F001038DF8443000238DF883
:1034300040A08DF841807B602A7BB88A013A291D23
:10344000FFF76CF93B8BB882834203D1A3680AA9CA
:103450002046984720460AA9FFF702FEFB7DBA8A5C
:10346000C3F38403013303F01F039B02FB823B8BF6
:103470009A420CBF00206FF01000C1E67B68002B61
:10348000AFD0052001E01C3033461E68002EFAD173
:10349000091A081D2E1D184401EB090CBCF11B0F65
:1034A0005FFA89F39DD89A429BD916F8013B00F840
:1034B000013B09F10109EFE76FF00900A0E66FF0A9
:1034C0000A009DE66FF00B009AE66FF00D0097E69C
:1034D0006FF00E0094E66FF00F0091E640420F008F
:1034E00080841E00EFF3098305494A6B22F0010234
:1034F0004A63683383F30988002383F31188704794
:1035000000EF00E0302080F3118862B60C4B0D4ACA
:10351000D96821F4E0610904090C0A43DA60D3F8A0
:10352000FC20094942F08072C3F8FC200A6842F08E
:1035300001020A602022DA7783F82200704700BF78
:1035400000ED00E00003FA05001000E010B53023A4
:1035500083F311880E4B5B6813F4006314D0F1EE13
:10356000103AEFF30984683C4FF08073E361094B34
:10357000DB6B236684F3098800F0A4F810B1064BD6
:10358000A36110BD054BFBE783F31188F9E700BF8A
:1035900000ED00E000EF00E04306000846060008EA
:1035A0004FF0E023002258684FF0FF31930003F101
:1035B000604303F5614301329042C3F88010C3F8C1
:1035C0008011F3D27047000000F1604303F56143BE
:1035D0000901C9B283F80013012200F01F039A40C9
:1035E00043099B0003F1604303F56143C3F8802165
:1035F0001A60704700230375826803691B68996825
:103600009142FBD25A680360426010605860704774
:1036100000230375826803691B6899689142FBD88F
:103620005A680360426010605860704708B50846E9
:10363000302383F311880B7D032B05D0042B0DD091
:103640002BB983F3118808BD8B6900221A604FF0F3
:10365000FF338361FFF7CEFF0023F2E7D1E90032A9
:1036600013605A60F3E70000FFF7C4BF054BD96849
:103670000875186802681A60536001220275D860E4
:10368000FCF7CABFB037002030B50C4BDD684B1CCF
:1036900087B004460FD02B46094A684600F050F91F
:1036A0002046FFF7E3FF009B13B1684600F052F994
:1036B000A86907B030BDFFF7D9FFF9E7B0370020A0
:1036C0002D360008044B1A68DB6890689B689842A6
:1036D00094BF002001207047B0370020084B10B580
:1036E0001C68D86822681A60536001222275DC6069
:1036F000FFF78EFF01462046BDE81040FCF78CBF67
:10370000B0370020044B1A68DB6892689B689A42C5
:1037100001D9FFF7E3BF7047B037002038B5074C39
:1037200007490848012300252370656000F012FC5A
:103730000223237085F3118838BD00BFD8390020DB
:10374000E4450008B037002008B572B6044B186590
:1037500000F0C8FA00F080FB024B03221A70FEE76B
:10376000B0370020D839002000F02AB9EFF31180DB
:1037700020B9EFF30583302282F3118870470000EF
:1037800010B530B9EFF30584C4F3080414B180F325
:10379000118810BDFFF7B6FF84F31188F9E7000028
:1037A0008B60022308618B82084670478368A3F10F
:1037B000840243F8142C026943F8442C426943F80C
:1037C000402C094A43F8242CC26843F8182C0222E2
:1037D00003F80C2C002203F80B2C044A43F8102C9D
:1037E000A3F12000704700BF31060008B037002069
:1037F00008B5FFF7DBFFBDE80840FFF735BF000065
:10380000024BDB6898610F20FFF730BFB037002014
:10381000302383F31188FFF7F3BF000008B501469A
:10382000302383F311880820FFF72EFF002383F352
:10383000118808BD10B503689C68A2420CD85C686A
:103840008A600B604C602160596099688A1A9A609E
:103850004FF0FF33836010BD1B68121BECE70000C4
:103860000A2938BF0A2170B504460D460A26601998
:1038700000F06AFB00F056FB041BA54203D8751C40
:103880002E460446F3E70A2E04D9BDE87040012015
:1038900000F0A0BB70BD0000F8B5144B0D46D96117
:1038A00003F1100141600A2A1969826038BF0A22B7
:1038B000016048601861A818144600F037FB0A2719
:1038C00000F030FB431BA342064606D37C1C28199C
:1038D00000F03AFB27463546F2E70A2F04D9BDE847
:1038E000F840012000F076BBF8BD00BFB0370020E3
:1038F000F8B506460D4600F015FB0F4A134653F87F
:10390000107F9F4206D12A4601463046BDE8F84066
:10391000FFF7C2BFD169BB68441A2C1928BF2C46D7
:10392000A34202D92946FFF79BFF224631460348AE
:10393000BDE8F840FFF77EBFB0370020C037002059
:1039400010B4C0E9032300235DF8044B4361FFF783
:10395000CFBF000010B5194C236998420DD0D0E9B3
:103960000032816813605A609A680A449A600023A2
:1039700003604FF0FF33A36110BD2346026843F894
:10398000102F53600022026022699A4203D1BDE8E1
:10399000104000F0D3BA936881680B44936000F044
:1039A000C1FA2269E1699268441AA242E4D9114439
:1039B000BDE81040091AFFF753BF00BFB037002021
:1039C0002DE9F047DFF8BC8008F110072C4ED8F83D
:1039D000105000F0A7FAD8F81C40AA68031B9A42BE
:1039E0003ED81444D5E900324FF00009C8F81C4015
:1039F00013605A60C5F80090D8F81030B34201D176
:103A000000F09CFA89F31188D5E9033128469847DC
:103A1000302383F311886B69002BD8D000F082FA31
:103A20006A69A0EB04094A4582460DD2022000F0E3
:103A3000D1FA0022D8F81030B34208D151462846B6
:103A4000BDE8F047FFF728BF121A2244F2E712EB55
:103A5000090938BF4A4629463846FFF7EBFEB5E765
:103A6000D8F81030B34208D01444211AC8F81C000A
:103A7000A960BDE8F047FFF7F3BEBDE8F08700BFDF
:103A8000C0370020B037002000207047FEE700005C
:103A9000704700004FF0FF3070470000BFF34F8FBA
:103AA000024A1369DB03FCD4704700BF00200240C8
:103AB00008B5094B1B7873B9FFF7F0FF074B5A693C
:103AC000002ABFBF064A9A6002F188329A601A68DB
:103AD00022F480621A6008BDF03900200020024004
:103AE0002301674508B50B4B1B7893B9FFF7D6FF49
:103AF000094B5A6942F000425A611A6842F48052F6
:103B00001A601A6822F480521A601A6842F48062BD
:103B10001A6008BDF0390020002002403F289ABFFB
:103B200000F58030C0020020704700004FF40060B4
:103B300070470000402070473F2808B50BD8FFF7BA
:103B4000EDFF00F500630268013204D104308342C6
:103B5000F9D1012008BD0020FCE700003F2838B55E
:103B6000044626D8FFF702FEFFF798FFFFF7A0FFF5
:103B7000114BF3221A6102225A615A6942EAC402C5
:103B80005A615A6942F480325A6105462046FFF76D
:103B900085FF4FF40061FFF7C1FF00F059F9284697
:103BA000FFF7A0FFFFF7ECFD2046BDE83840FFF728
:103BB000C3BF002038BD00BF0020024040EA02031E
:103BC00013F007032DE9F04705460C46164606D0CC
:103BD000344B40F231321A600020BDE8F087811882
:103BE000314A91420CD92F4A40F236311160F3E745
:103BF0002B1D1B686268934208D1083E08350834C3
:103C0000072E19D92A6823689A42F1D0FFF7AEFD32
:103C1000FFF74EFFFFF742FF04F10801234C4FF07E
:103C200001084FF00009012EA1F1080708D8FFF79D
:103C300059FFFFF7A5FD01E0002EE7D10120CCE7F9
:103C4000C4F81480AA4651F8083C4AF8043B51F8DD
:103C5000043C6B60FFF722FF236943F001032361FB
:103C6000C4F814902A6851F8083C9A420ED00D4BC3
:103C700040F25E321A600E4B1D600E4B1E600E4B02
:103C80001F60FFF72FFFFFF77BFDA5E7DAF800A025
:103C900051F8043C9A4501F10801E8D1083E083585
:103CA000C1E700BFEC3900200000020800200240FC
:103CB000E0390020E8390020E4390020084908B53F
:103CC0000B7828B11BB9FFF7F3FE01230B7008BD79
:103CD000002BFCD0BDE808400870FFF703BF00BF11
:103CE000F039002008B54FF4B0414FF0005000F01B
:103CF000B1F8BDE808404FF420514FF0805000F07B
:103D0000A9B80000084600F0E3BB000070B582B01F
:103D1000FFF72CFD0E4E054600F004F93268904284
:103D200037BF0C4A0B49516814682EBFD1E90041D6
:103D3000013151600419034641F100012846019107
:103D40003360FFF71DFD0199204602B070BD00BF32
:103D5000F4390020F839002070B582B0FFF706FD75
:103D6000104E054600F0DEF83268904237BF0E4A2A
:103D70000D49516814682EBFD1E9004101315160ED
:103D8000041941F100010346284601913360FFF711
:103D9000F7FC01994FF47A7200232046FCF728FAC9
:103DA00002B070BDF4390020F83900200244D2B2CC
:103DB000904200D17047431C800000F1804000F524
:103DC0001450006841F8040BD8B2F1E7124B10B55B
:103DD000D3F89040240409D4D3F89040C3F890401D
:103DE000D3F8904044F40044C3F890400B4C23684F
:103DF000024443F480732360D2B2904200D110BDDC
:103E0000431C800000F1804000F5145051F8044B31
:103E10000460D8B2F1E700BF00100240007000401B
:103E200007B5012201A90020FFF7C0FF019803B0E8
:103E30005DF804FB13B50446FFF7F2FFA04205D07E
:103E4000012201A900200194FFF7C0FF02B010BDBC
:103E5000704700007047000070470000074B45F2B4
:103E600055521A6002225A6040F6FF729A604CF670
:103E7000CC421A60024B01221A7070470030004099
:103E8000043A0020034B1B781BB1034B4AF6AA22CD
:103E90001A607047043A002000300040054B1A6851
:103EA00032B902F1804202F50432D2F894201A604D
:103EB000704700BF003A0020024B4FF40002C3F8E5
:103EC000942070470010024008B5FFF7E7FF024B4F
:103ED0001868C0F3407008BD003A00207047000029
:103EE000FEE700000A4B0B480B4A90420BD30B4BEA
:103EF000DA1C121AC11E22F003028B4238BF0022C4
:103F00000021FDF76FB953F8041B40F8041BECE7E0
:103F100044470008883A0020883A0020883A002068
:103F200000F0C2B84FF08043586A70474FF08043AA
:103F3000002258631A610222DA6070474FF0804312
:103F40000022DA60704700004FF0804358637047EA
:103F5000FEE7000070B51B4B01630025044686B0E8
:103F6000586085620E46FFF7CDFA04F11003C4E9EC
:103F700004334FF0FF33C4E90635C4E90044A560BB
:103F8000E562FFF7CFFF2B460246C4E9082304F1A0
:103F900034010D4A256580232046FFF701FC0123EB
:103FA000E0600A4A0375009272680192B268CDE936
:103FB0000223074B6846CDE90435FFF719FC06B02C
:103FC00070BD00BFD8390020F0450008F545000855
:103FD000513F0008024AD36A1843D062704700BFBD
:103FE000B03700204B6843608B688360CB68C36048
:103FF0000B6943614B6903628B6943620B68036021
:104000007047000008B5204BDA6A42F07F02DA629E
:10401000DA6A22F07F02DA62DA6ADA6C42F07F0250
:10402000DA64DA6E42F07F02DA66184ADB6E114615
:104030004FF09040FFF7D6FF02F11C0100F58060C1
:10404000FFF7D0FF02F1380100F58060FFF7CAFFEB
:1040500002F1540100F58060FFF7C4FF02F1700126
:1040600000F58060FFF7BEFF02F18C0100F5806073
:10407000FFF7B8FF02F1A80100F58060FFF7B2FF7B
:10408000BDE8084000F050B800100240FC450008B0
:1040900008B500F0EDF9FFF741FBBDE80840FFF778
:1040A000FDBE0000704700000F4B9A6D42F0010208
:1040B0009A659A6F42F001029A670C4A9B6F936867
:1040C00043F0010393604FF08043A7229A624FF0C0
:1040D000FF32DA6200229A615A63DA605A60012282
:1040E0005A611A60704700BF00100240002004E0CF
:1040F0004FF0804208B51169D3680B40D9B2C9436B
:104100009B07116107D5302383F31188FFF72CFB40
:10411000002383F3118808BD08B5FFF741FABDE815
:10412000084000F081B900004E4B4FF0FF319A6A11
:1041300099629A6A00229A62986AD86A60F07F004F
:10414000D862D86A00F07F00D862D86A186B196309
:10415000186B1A63186B986B9963986B9A63986BDA
:10416000D86BD963D86BDA63D86B186C1964196C87
:104170001A64196C196E41F001011966D3F88010A8
:1041800021F00101C3F88010D3F88010996D41F03F
:1041900080519965996F21F080519967996F3249E3
:1041A0004FF400408860CA600A624A628A62CA624A
:1041B0000A634A638A63CA630A644A648A64CA6493
:1041C0000A654A654A604FF48072C1F880204FF456
:1041D00040720A604A6912F48062FBD1D3F89010F1
:1041E00011F4407F1EBF4FF48031C3F89010C3F824
:1041F0009020D3F8982042F00102C3F89820D3F819
:1042000098209207FBD51A6842F480321A601A6827
:104210009003FCD5D3F8902022F00322C3F890201D
:10422000124ADA601A6842F080721A601A689101C4
:10423000FCD50F490F4800229A60C3F888100E4938
:10424000C3F89C20016002684A401207FBD19A68BB
:1042500042F003029A609A6802F00C020C2AFAD12A
:10426000704700BF0010024000700040032A610147
:10427000550100500020024004070400074A08B519
:10428000536903F00103536123B1054A13680BB16D
:1042900050689847BDE80840FFF758B9000401404E
:1042A000083A0020074A08B5536903F00203536136
:1042B00023B1054A93680BB1D0689847BDE8084020
:1042C000FFF744B900040140083A0020074A08B546
:1042D000536903F00403536123B1054A13690BB119
:1042E00050699847BDE80840FFF730B90004014025
:1042F000083A0020074A08B5536903F008035361E0
:1043000023B1054A93690BB1D0699847BDE80840CD
:10431000FFF71CB900040140083A0020074A08B51D
:10432000536903F01003536123B1054A136A0BB1BB
:10433000506A9847BDE80840FFF708B900040140FB
:10434000083A0020164B10B55C6904F478725A6183
:10435000A30604D5134A936A0BB1D06A9847600646
:1043600004D5104A136B0BB1506B9847210604D546
:104370000C4A936B0BB1D06B9847E20504D5094A00
:10438000136C0BB1506C9847A30504D5054A936C88
:104390000BB1D06C9847BDE81040FFF7D7B800BF0D
:1043A00000040140083A0020194B10B55C6904F480
:1043B0007C425A61620504D5164A136D0BB1506DEB
:1043C0009847230504D5134A936D0BB1D06D9847D8
:1043D000E00404D50F4A136E0BB1506E9847A10448
:1043E00004D50C4A936E0BB1D06E9847620404D585
:1043F000084A136F0BB1506F9847230404D5054A40
:10440000936F0BB1D06F9847BDE81040FFF79EB88F
:1044100000040140083A002008B5FFF769FEBDE836
:104420000840FFF793B80000062108B50846FFF7DB
:10443000CBF806210720FFF7C7F806210820FFF771
:10444000C3F806210920FFF7BFF806210A20FFF76D
:10445000BBF806211720FFF7B7F806212820FFF741
:10446000B3F8BDE8084007211C20FFF7ADB80000F5
:1044700008B5FFF751FE00F007F8FFF713FEBDE89F
:104480000840FFF74DBD00000023054A19460133DF
:10449000102BC2E9001102F10802F8D1704700BFE9
:1044A000083A00200B460146184600F003B8000009
:1044B00000F00EB810B5054C13462CB10A46014663
:1044C0000220AFF3008010BD2046FCE70000000092
:1044D000024B01461868FFF715BC00BF18110020F9
:1044E00010B501390244904201D1002005E0037863
:1044F00011F8014FA34201D0181B10BD0130F2E7A3
:104500002DE9F041A3B1C91A17780144044603F11B
:10451000FF3C8C42204601D9002009E00578BD42CD
:1045200004F10104F5D10CEB0405D618A54201D124
:10453000BDE8F08115F8018D16F801EDF045F5D0D4
:10454000E7E70000034611F8012B03F8012B002ACE
:10455000F9D170476F72672E6172647570696C6F04
:10456000742E6D526F2D4D31303035330000000008
:1045700040A2E4F1646891060041A3E5F265699206
:10458000070000004261642043414E496661636553
:1045900020696E6465782E000000000000000000B5
:1045A000251D00082D180008E12300082518000823
:1045B000D5180008B91A00089D18000865180008E9
:1045C000691800084118000829180008791A00081D
:1045D0004D1800081D250008591800084D1A00083C
:1045E00063300000E045000808380020D83900207A
:1045F0006D61696E0069646C650000000000802ACE
:1046000000000000AAAAAAAA00000024FFFF0000E0
:104610000000000000900900000100000000000000
:10462000AAAAAAAA00000000EFFF000000000000F4
:10463000000000000000000000000000AAAAAAAAD2
:1046400000000000FFFF000000000000000000006C
:104650000000000000000000AAAAAAAA00000000B2
:10466000FFFF00000000000000000000000000004C
:1046700000000000AAAAAAAA00000000FFFF000094
:10468000000000000000000000000000000000002A
:10469000AAAAAAAA00000000FFFF00000000000074
:1046A000000000000000000000000000AAAAAAAA62
:1046B00000000000FFFF00000000000000000000FC
:1046C00060BBFF7F010000006104000000000000EB
:1046D0000098010000000000FE2A0100D204000042
:1046E0001C1100200000000000000000000000007D
:1046F00000000000000000000000000000000000BA
:1047000000000000000000000000000000000000A9
:104710000000000000000000000000000000000099
:104720000000000000000000000000000000000089
:104730000000000000000000000000000000000079
:044740000000000075
:00000001FF
